{
	"Kagi Crypto.sol": {
		"KagiCrypto": {
			"abi": [
				{
					"constant": true,
					"inputs": [],
					"name": "name",
					"outputs": [
						{
							"name": "",
							"type": "string"
						}
					],
					"payable": false,
					"stateMutability": "view",
					"type": "function"
				},
				{
					"constant": false,
					"inputs": [
						{
							"name": "_spender",
							"type": "address"
						},
						{
							"name": "_value",
							"type": "uint256"
						}
					],
					"name": "approve",
					"outputs": [
						{
							"name": "success",
							"type": "bool"
						}
					],
					"payable": false,
					"stateMutability": "nonpayable",
					"type": "function"
				},
				{
					"constant": true,
					"inputs": [],
					"name": "totalSupply",
					"outputs": [
						{
							"name": "",
							"type": "uint256"
						}
					],
					"payable": false,
					"stateMutability": "view",
					"type": "function"
				},
				{
					"constant": false,
					"inputs": [
						{
							"name": "_from",
							"type": "address"
						},
						{
							"name": "_to",
							"type": "address"
						},
						{
							"name": "_amount",
							"type": "uint256"
						}
					],
					"name": "transferFrom",
					"outputs": [
						{
							"name": "success",
							"type": "bool"
						}
					],
					"payable": false,
					"stateMutability": "nonpayable",
					"type": "function"
				},
				{
					"constant": true,
					"inputs": [],
					"name": "decimals",
					"outputs": [
						{
							"name": "",
							"type": "uint256"
						}
					],
					"payable": false,
					"stateMutability": "view",
					"type": "function"
				},
				{
					"constant": false,
					"inputs": [],
					"name": "withdraw",
					"outputs": [],
					"payable": false,
					"stateMutability": "nonpayable",
					"type": "function"
				},
				{
					"constant": true,
					"inputs": [],
					"name": "value",
					"outputs": [
						{
							"name": "",
							"type": "uint256"
						}
					],
					"payable": false,
					"stateMutability": "view",
					"type": "function"
				},
				{
					"constant": false,
					"inputs": [
						{
							"name": "_value",
							"type": "uint256"
						}
					],
					"name": "burn",
					"outputs": [],
					"payable": false,
					"stateMutability": "nonpayable",
					"type": "function"
				},
				{
					"constant": true,
					"inputs": [
						{
							"name": "_owner",
							"type": "address"
						}
					],
					"name": "balanceOf",
					"outputs": [
						{
							"name": "",
							"type": "uint256"
						}
					],
					"payable": false,
					"stateMutability": "view",
					"type": "function"
				},
				{
					"constant": true,
					"inputs": [],
					"name": "symbol",
					"outputs": [
						{
							"name": "",
							"type": "string"
						}
					],
					"payable": false,
					"stateMutability": "view",
					"type": "function"
				},
				{
					"constant": false,
					"inputs": [],
					"name": "finishDistribution",
					"outputs": [
						{
							"name": "",
							"type": "bool"
						}
					],
					"payable": false,
					"stateMutability": "nonpayable",
					"type": "function"
				},
				{
					"constant": false,
					"inputs": [
						{
							"name": "_to",
							"type": "address"
						},
						{
							"name": "_amount",
							"type": "uint256"
						}
					],
					"name": "transfer",
					"outputs": [
						{
							"name": "success",
							"type": "bool"
						}
					],
					"payable": false,
					"stateMutability": "nonpayable",
					"type": "function"
				},
				{
					"constant": false,
					"inputs": [],
					"name": "getTokens",
					"outputs": [],
					"payable": true,
					"stateMutability": "payable",
					"type": "function"
				},
				{
					"constant": true,
					"inputs": [],
					"name": "distributionFinished",
					"outputs": [
						{
							"name": "",
							"type": "bool"
						}
					],
					"payable": false,
					"stateMutability": "view",
					"type": "function"
				},
				{
					"constant": true,
					"inputs": [
						{
							"name": "tokenAddress",
							"type": "address"
						},
						{
							"name": "who",
							"type": "address"
						}
					],
					"name": "getTokenBalance",
					"outputs": [
						{
							"name": "",
							"type": "uint256"
						}
					],
					"payable": false,
					"stateMutability": "view",
					"type": "function"
				},
				{
					"constant": false,
					"inputs": [],
					"name": "KGC",
					"outputs": [],
					"payable": false,
					"stateMutability": "nonpayable",
					"type": "function"
				},
				{
					"constant": true,
					"inputs": [],
					"name": "totalRemaining",
					"outputs": [
						{
							"name": "",
							"type": "uint256"
						}
					],
					"payable": false,
					"stateMutability": "view",
					"type": "function"
				},
				{
					"constant": true,
					"inputs": [
						{
							"name": "_owner",
							"type": "address"
						},
						{
							"name": "_spender",
							"type": "address"
						}
					],
					"name": "allowance",
					"outputs": [
						{
							"name": "",
							"type": "uint256"
						}
					],
					"payable": false,
					"stateMutability": "view",
					"type": "function"
				},
				{
					"constant": false,
					"inputs": [
						{
							"name": "_tokenContract",
							"type": "address"
						}
					],
					"name": "withdrawForeignTokens",
					"outputs": [
						{
							"name": "",
							"type": "bool"
						}
					],
					"payable": false,
					"stateMutability": "nonpayable",
					"type": "function"
				},
				{
					"constant": true,
					"inputs": [],
					"name": "totalDistributed",
					"outputs": [
						{
							"name": "",
							"type": "uint256"
						}
					],
					"payable": false,
					"stateMutability": "view",
					"type": "function"
				},
				{
					"constant": true,
					"inputs": [
						{
							"name": "",
							"type": "address"
						}
					],
					"name": "blacklist",
					"outputs": [
						{
							"name": "",
							"type": "bool"
						}
					],
					"payable": false,
					"stateMutability": "view",
					"type": "function"
				},
				{
					"payable": true,
					"stateMutability": "payable",
					"type": "fallback"
				},
				{
					"anonymous": false,
					"inputs": [
						{
							"indexed": true,
							"name": "_from",
							"type": "address"
						},
						{
							"indexed": true,
							"name": "_to",
							"type": "address"
						},
						{
							"indexed": false,
							"name": "_value",
							"type": "uint256"
						}
					],
					"name": "Transfer",
					"type": "event"
				},
				{
					"anonymous": false,
					"inputs": [
						{
							"indexed": true,
							"name": "_owner",
							"type": "address"
						},
						{
							"indexed": true,
							"name": "_spender",
							"type": "address"
						},
						{
							"indexed": false,
							"name": "_value",
							"type": "uint256"
						}
					],
					"name": "Approval",
					"type": "event"
				},
				{
					"anonymous": false,
					"inputs": [
						{
							"indexed": true,
							"name": "to",
							"type": "address"
						},
						{
							"indexed": false,
							"name": "amount",
							"type": "uint256"
						}
					],
					"name": "Distr",
					"type": "event"
				},
				{
					"anonymous": false,
					"inputs": [],
					"name": "DistrFinished",
					"type": "event"
				},
				{
					"anonymous": false,
					"inputs": [
						{
							"indexed": true,
							"name": "burner",
							"type": "address"
						},
						{
							"indexed": false,
							"name": "value",
							"type": "uint256"
						}
					],
					"name": "Burn",
					"type": "event"
				}
			],
			"devdoc": {
				"methods": {}
			},
			"evm": {
				"assembly": "    /* \"Kagi Crypto.sol\":4784:10151  contract KagiCrypto is ERC20 {\r... */\n  mstore(0x40, 0x80)\n    /* \"Kagi Crypto.sol\":4879:4889  msg.sender */\n  caller\n    /* \"Kagi Crypto.sol\":4863:4889  address owner = msg.sender */\n  0x1\n  exp(0x100, 0x0)\n  dup2\n  sload\n  dup2\n  0xffffffffffffffffffffffffffffffffffffffff\n  mul\n  not\n  and\n  swap1\n  dup4\n  0xffffffffffffffffffffffffffffffffffffffff\n  and\n  mul\n  or\n  swap1\n  sstore\n  pop\n    /* \"Kagi Crypto.sol\":5222:5237  100000000000e18 */\n  0x1431e0fae6d7217caa0000000\n    /* \"Kagi Crypto.sol\":5193:5237  uint256 public totalSupply = 100000000000e18 */\n  0x5\n  sstore\n    /* \"Kagi Crypto.sol\":5279:5293  30000000000e18 */\n  0x60ef6b1aba6f072330000000\n    /* \"Kagi Crypto.sol\":5245:5293  uint256 public totalDistributed = 30000000000e18 */\n  0x6\n  sstore\n    /* \"Kagi Crypto.sol\":5333:5366  totalSupply.sub(totalDistributed) */\n  tag_1\n    /* \"Kagi Crypto.sol\":5349:5365  totalDistributed */\n  sload(0x6)\n    /* \"Kagi Crypto.sol\":5333:5344  totalSupply */\n  sload(0x5)\n    /* \"Kagi Crypto.sol\":5333:5348  totalSupply.sub */\n  or(tag_0_121, mul(0x100000000, tag_2))\n  swap1\n    /* \"Kagi Crypto.sol\":5333:5366  totalSupply.sub(totalDistributed) */\n  swap2\n  swap1\n  0x100000000\n  swap1\n  div\n  jump\t// in\ntag_1:\n    /* \"Kagi Crypto.sol\":5301:5366  uint256 public totalRemaining = totalSupply.sub(totalDistributed) */\n  0x7\n  sstore\n    /* \"Kagi Crypto.sol\":5397:5406  500000e18 */\n  0x69e10de76676d0800000\n    /* \"Kagi Crypto.sol\":5374:5406  uint256 public value = 500000e18 */\n  0x8\n  sstore\n    /* \"Kagi Crypto.sol\":5772:5777  false */\n  0x0\n    /* \"Kagi Crypto.sol\":5737:5777  bool public distributionFinished = false */\n  0x9\n  exp(0x100, 0x0)\n  dup2\n  sload\n  dup2\n  0xff\n  mul\n  not\n  and\n  swap1\n  dup4\n  iszero\n  iszero\n  mul\n  or\n  swap1\n  sstore\n  pop\n    /* \"Kagi Crypto.sol\":4784:10151  contract KagiCrypto is ERC20 {\r... */\n  callvalue\n    /* \"--CODEGEN--\":8:17   */\n  dup1\n    /* \"--CODEGEN--\":5:7   */\n  iszero\n  tag_3\n  jumpi\n    /* \"--CODEGEN--\":30:31   */\n  0x0\n    /* \"--CODEGEN--\":27:28   */\n  dup1\n    /* \"--CODEGEN--\":20:32   */\n  revert\n    /* \"--CODEGEN--\":5:7   */\ntag_3:\n    /* \"Kagi Crypto.sol\":4784:10151  contract KagiCrypto is ERC20 {\r... */\n  pop\n  jump(tag_4)\n    /* \"Kagi Crypto.sol\":3341:3454  function sub(uint256 a, uint256 b) internal pure returns (uint256) {\r... */\ntag_2:\n    /* \"Kagi Crypto.sol\":3399:3406  uint256 */\n  0x0\n    /* \"Kagi Crypto.sol\":3427:3428  a */\n  dup3\n    /* \"Kagi Crypto.sol\":3422:3423  b */\n  dup3\n    /* \"Kagi Crypto.sol\":3422:3428  b <= a */\n  gt\n  iszero\n    /* \"Kagi Crypto.sol\":3415:3429  assert(b <= a) */\n  iszero\n  iszero\n  tag_6\n  jumpi\n  invalid\ntag_6:\n    /* \"Kagi Crypto.sol\":3447:3448  b */\n  dup2\n    /* \"Kagi Crypto.sol\":3443:3444  a */\n  dup4\n    /* \"Kagi Crypto.sol\":3443:3448  a - b */\n  sub\n    /* \"Kagi Crypto.sol\":3436:3448  return a - b */\n  swap1\n  pop\n    /* \"Kagi Crypto.sol\":3341:3454  function sub(uint256 a, uint256 b) internal pure returns (uint256) {\r... */\n  swap3\n  swap2\n  pop\n  pop\n  jump\t// out\n    /* \"Kagi Crypto.sol\":4784:10151  contract KagiCrypto is ERC20 {\r... */\ntag_4:\n  dataSize(sub_0)\n  dup1\n  dataOffset(sub_0)\n  0x0\n  codecopy\n  0x0\n  return\nstop\n\nsub_0: assembly {\n        /* \"Kagi Crypto.sol\":4784:10151  contract KagiCrypto is ERC20 {\r... */\n      mstore(0x40, 0x80)\n      jumpi(tag_1, lt(calldatasize, 0x4))\n      calldataload(0x0)\n      0x100000000000000000000000000000000000000000000000000000000\n      swap1\n      div\n      0xffffffff\n      and\n      dup1\n      0x6fdde03\n      eq\n      tag_2\n      jumpi\n      dup1\n      0x95ea7b3\n      eq\n      tag_3\n      jumpi\n      dup1\n      0x18160ddd\n      eq\n      tag_4\n      jumpi\n      dup1\n      0x23b872dd\n      eq\n      tag_5\n      jumpi\n      dup1\n      0x313ce567\n      eq\n      tag_6\n      jumpi\n      dup1\n      0x3ccfd60b\n      eq\n      tag_7\n      jumpi\n      dup1\n      0x3fa4f245\n      eq\n      tag_8\n      jumpi\n      dup1\n      0x42966c68\n      eq\n      tag_9\n      jumpi\n      dup1\n      0x70a08231\n      eq\n      tag_10\n      jumpi\n      dup1\n      0x95d89b41\n      eq\n      tag_11\n      jumpi\n      dup1\n      0x9b1cbccc\n      eq\n      tag_12\n      jumpi\n      dup1\n      0xa9059cbb\n      eq\n      tag_13\n      jumpi\n      dup1\n      0xaa6ca808\n      eq\n      tag_14\n      jumpi\n      dup1\n      0xc108d542\n      eq\n      tag_15\n      jumpi\n      dup1\n      0xc489744b\n      eq\n      tag_16\n      jumpi\n      dup1\n      0xc63e6171\n      eq\n      tag_17\n      jumpi\n      dup1\n      0xd8a54360\n      eq\n      tag_18\n      jumpi\n      dup1\n      0xdd62ed3e\n      eq\n      tag_19\n      jumpi\n      dup1\n      0xe58fc54c\n      eq\n      tag_20\n      jumpi\n      dup1\n      0xefca2eed\n      eq\n      tag_21\n      jumpi\n      dup1\n      0xf9f92be4\n      eq\n      tag_22\n      jumpi\n    tag_1:\n        /* \"Kagi Crypto.sol\":6901:6912  getTokens() */\n      tag_25\n        /* \"Kagi Crypto.sol\":6901:6910  getTokens */\n      tag_26\n        /* \"Kagi Crypto.sol\":6901:6912  getTokens() */\n      jump\t// in\n    tag_25:\n        /* \"Kagi Crypto.sol\":4784:10151  contract KagiCrypto is ERC20 {\r... */\n      stop\n        /* \"Kagi Crypto.sol\":5057:5100  string public constant name = \"Kagi Crypto\" */\n    tag_2:\n      callvalue\n        /* \"--CODEGEN--\":8:17   */\n      dup1\n        /* \"--CODEGEN--\":5:7   */\n      iszero\n      tag_27\n      jumpi\n        /* \"--CODEGEN--\":30:31   */\n      0x0\n        /* \"--CODEGEN--\":27:28   */\n      dup1\n        /* \"--CODEGEN--\":20:32   */\n      revert\n        /* \"--CODEGEN--\":5:7   */\n    tag_27:\n        /* \"Kagi Crypto.sol\":5057:5100  string public constant name = \"Kagi Crypto\" */\n      pop\n      tag_28\n      jump(tag_29)\n    tag_28:\n      mload(0x40)\n      dup1\n      dup1\n      0x20\n      add\n      dup3\n      dup2\n      sub\n      dup3\n      mstore\n      dup4\n      dup2\n      dup2\n      mload\n      dup2\n      mstore\n      0x20\n      add\n      swap2\n      pop\n      dup1\n      mload\n      swap1\n      0x20\n      add\n      swap1\n      dup1\n      dup4\n      dup4\n        /* \"--CODEGEN--\":23:24   */\n      0x0\n        /* \"--CODEGEN--\":8:108   */\n    tag_30:\n        /* \"--CODEGEN--\":33:36   */\n      dup4\n        /* \"--CODEGEN--\":30:31   */\n      dup2\n        /* \"--CODEGEN--\":27:37   */\n      lt\n        /* \"--CODEGEN--\":8:108   */\n      iszero\n      tag_31\n      jumpi\n        /* \"--CODEGEN--\":99:100   */\n      dup1\n        /* \"--CODEGEN--\":94:97   */\n      dup3\n        /* \"--CODEGEN--\":90:101   */\n      add\n        /* \"--CODEGEN--\":84:102   */\n      mload\n        /* \"--CODEGEN--\":80:81   */\n      dup2\n        /* \"--CODEGEN--\":75:78   */\n      dup5\n        /* \"--CODEGEN--\":71:82   */\n      add\n        /* \"--CODEGEN--\":64:103   */\n      mstore\n        /* \"--CODEGEN--\":52:54   */\n      0x20\n        /* \"--CODEGEN--\":49:50   */\n      dup2\n        /* \"--CODEGEN--\":45:55   */\n      add\n        /* \"--CODEGEN--\":40:55   */\n      swap1\n      pop\n        /* \"--CODEGEN--\":8:108   */\n      jump(tag_30)\n    tag_31:\n        /* \"--CODEGEN--\":12:26   */\n      pop\n        /* \"Kagi Crypto.sol\":5057:5100  string public constant name = \"Kagi Crypto\" */\n      pop\n      pop\n      pop\n      swap1\n      pop\n      swap1\n      dup2\n      add\n      swap1\n      0x1f\n      and\n      dup1\n      iszero\n      tag_33\n      jumpi\n      dup1\n      dup3\n      sub\n      dup1\n      mload\n      0x1\n      dup4\n      0x20\n      sub\n      0x100\n      exp\n      sub\n      not\n      and\n      dup2\n      mstore\n      0x20\n      add\n      swap2\n      pop\n    tag_33:\n      pop\n      swap3\n      pop\n      pop\n      pop\n      mload(0x40)\n      dup1\n      swap2\n      sub\n      swap1\n      return\n        /* \"Kagi Crypto.sol\":8706:9002  function approve(address _spender, uint256 _value) public returns (bool success) {\r... */\n    tag_3:\n      callvalue\n        /* \"--CODEGEN--\":8:17   */\n      dup1\n        /* \"--CODEGEN--\":5:7   */\n      iszero\n      tag_34\n      jumpi\n        /* \"--CODEGEN--\":30:31   */\n      0x0\n        /* \"--CODEGEN--\":27:28   */\n      dup1\n        /* \"--CODEGEN--\":20:32   */\n      revert\n        /* \"--CODEGEN--\":5:7   */\n    tag_34:\n        /* \"Kagi Crypto.sol\":8706:9002  function approve(address _spender, uint256 _value) public returns (bool success) {\r... */\n      pop\n      tag_35\n      0x4\n      dup1\n      calldatasize\n      sub\n      dup2\n      add\n      swap1\n      dup1\n      dup1\n      calldataload\n      0xffffffffffffffffffffffffffffffffffffffff\n      and\n      swap1\n      0x20\n      add\n      swap1\n      swap3\n      swap2\n      swap1\n      dup1\n      calldataload\n      swap1\n      0x20\n      add\n      swap1\n      swap3\n      swap2\n      swap1\n      pop\n      pop\n      pop\n      jump(tag_36)\n    tag_35:\n      mload(0x40)\n      dup1\n      dup3\n      iszero\n      iszero\n      iszero\n      iszero\n      dup2\n      mstore\n      0x20\n      add\n      swap2\n      pop\n      pop\n      mload(0x40)\n      dup1\n      swap2\n      sub\n      swap1\n      return\n        /* \"Kagi Crypto.sol\":5193:5237  uint256 public totalSupply = 100000000000e18 */\n    tag_4:\n      callvalue\n        /* \"--CODEGEN--\":8:17   */\n      dup1\n        /* \"--CODEGEN--\":5:7   */\n      iszero\n      tag_37\n      jumpi\n        /* \"--CODEGEN--\":30:31   */\n      0x0\n        /* \"--CODEGEN--\":27:28   */\n      dup1\n        /* \"--CODEGEN--\":20:32   */\n      revert\n        /* \"--CODEGEN--\":5:7   */\n    tag_37:\n        /* \"Kagi Crypto.sol\":5193:5237  uint256 public totalSupply = 100000000000e18 */\n      pop\n      tag_38\n      jump(tag_39)\n    tag_38:\n      mload(0x40)\n      dup1\n      dup3\n      dup2\n      mstore\n      0x20\n      add\n      swap2\n      pop\n      pop\n      mload(0x40)\n      dup1\n      swap2\n      sub\n      swap1\n      return\n        /* \"Kagi Crypto.sol\":8161:8695  function transferFrom(address _from, address _to, uint256 _amount) onlyPayloadSize(3 * 32) public returns (bool success) {\r... */\n    tag_5:\n      callvalue\n        /* \"--CODEGEN--\":8:17   */\n      dup1\n        /* \"--CODEGEN--\":5:7   */\n      iszero\n      tag_40\n      jumpi\n        /* \"--CODEGEN--\":30:31   */\n      0x0\n        /* \"--CODEGEN--\":27:28   */\n      dup1\n        /* \"--CODEGEN--\":20:32   */\n      revert\n        /* \"--CODEGEN--\":5:7   */\n    tag_40:\n        /* \"Kagi Crypto.sol\":8161:8695  function transferFrom(address _from, address _to, uint256 _amount) onlyPayloadSize(3 * 32) public returns (bool success) {\r... */\n      pop\n      tag_41\n      0x4\n      dup1\n      calldatasize\n      sub\n      dup2\n      add\n      swap1\n      dup1\n      dup1\n      calldataload\n      0xffffffffffffffffffffffffffffffffffffffff\n      and\n      swap1\n      0x20\n      add\n      swap1\n      swap3\n      swap2\n      swap1\n      dup1\n      calldataload\n      0xffffffffffffffffffffffffffffffffffffffff\n      and\n      swap1\n      0x20\n      add\n      swap1\n      swap3\n      swap2\n      swap1\n      dup1\n      calldataload\n      swap1\n      0x20\n      add\n      swap1\n      swap3\n      swap2\n      swap1\n      pop\n      pop\n      pop\n      jump(tag_42)\n    tag_41:\n      mload(0x40)\n      dup1\n      dup3\n      iszero\n      iszero\n      iszero\n      iszero\n      dup2\n      mstore\n      0x20\n      add\n      swap2\n      pop\n      pop\n      mload(0x40)\n      dup1\n      swap2\n      sub\n      swap1\n      return\n        /* \"Kagi Crypto.sol\":5151:5185  uint public constant decimals = 18 */\n    tag_6:\n      callvalue\n        /* \"--CODEGEN--\":8:17   */\n      dup1\n        /* \"--CODEGEN--\":5:7   */\n      iszero\n      tag_43\n      jumpi\n        /* \"--CODEGEN--\":30:31   */\n      0x0\n        /* \"--CODEGEN--\":27:28   */\n      dup1\n        /* \"--CODEGEN--\":20:32   */\n      revert\n        /* \"--CODEGEN--\":5:7   */\n    tag_43:\n        /* \"Kagi Crypto.sol\":5151:5185  uint public constant decimals = 18 */\n      pop\n      tag_44\n      jump(tag_45)\n    tag_44:\n      mload(0x40)\n      dup1\n      dup3\n      dup2\n      mstore\n      0x20\n      add\n      swap2\n      pop\n      pop\n      mload(0x40)\n      dup1\n      swap2\n      sub\n      swap1\n      return\n        /* \"Kagi Crypto.sol\":9384:9521  function withdraw() onlyOwner public {\r... */\n    tag_7:\n      callvalue\n        /* \"--CODEGEN--\":8:17   */\n      dup1\n        /* \"--CODEGEN--\":5:7   */\n      iszero\n      tag_46\n      jumpi\n        /* \"--CODEGEN--\":30:31   */\n      0x0\n        /* \"--CODEGEN--\":27:28   */\n      dup1\n        /* \"--CODEGEN--\":20:32   */\n      revert\n        /* \"--CODEGEN--\":5:7   */\n    tag_46:\n        /* \"Kagi Crypto.sol\":9384:9521  function withdraw() onlyOwner public {\r... */\n      pop\n      tag_47\n      jump(tag_48)\n    tag_47:\n      stop\n        /* \"Kagi Crypto.sol\":5374:5406  uint256 public value = 500000e18 */\n    tag_8:\n      callvalue\n        /* \"--CODEGEN--\":8:17   */\n      dup1\n        /* \"--CODEGEN--\":5:7   */\n      iszero\n      tag_49\n      jumpi\n        /* \"--CODEGEN--\":30:31   */\n      0x0\n        /* \"--CODEGEN--\":27:28   */\n      dup1\n        /* \"--CODEGEN--\":20:32   */\n      revert\n        /* \"--CODEGEN--\":5:7   */\n    tag_49:\n        /* \"Kagi Crypto.sol\":5374:5406  uint256 public value = 500000e18 */\n      pop\n      tag_50\n      jump(tag_51)\n    tag_50:\n      mload(0x40)\n      dup1\n      dup3\n      dup2\n      mstore\n      0x20\n      add\n      swap2\n      pop\n      pop\n      mload(0x40)\n      dup1\n      swap2\n      sub\n      swap1\n      return\n        /* \"Kagi Crypto.sol\":9532:9877  function burn(uint256 _value) onlyOwner public {\r... */\n    tag_9:\n      callvalue\n        /* \"--CODEGEN--\":8:17   */\n      dup1\n        /* \"--CODEGEN--\":5:7   */\n      iszero\n      tag_52\n      jumpi\n        /* \"--CODEGEN--\":30:31   */\n      0x0\n        /* \"--CODEGEN--\":27:28   */\n      dup1\n        /* \"--CODEGEN--\":20:32   */\n      revert\n        /* \"--CODEGEN--\":5:7   */\n    tag_52:\n        /* \"Kagi Crypto.sol\":9532:9877  function burn(uint256 _value) onlyOwner public {\r... */\n      pop\n      tag_53\n      0x4\n      dup1\n      calldatasize\n      sub\n      dup2\n      add\n      swap1\n      dup1\n      dup1\n      calldataload\n      swap1\n      0x20\n      add\n      swap1\n      swap3\n      swap2\n      swap1\n      pop\n      pop\n      pop\n      jump(tag_54)\n    tag_53:\n      stop\n        /* \"Kagi Crypto.sol\":7519:7630  function balanceOf(address _owner) constant public returns (uint256) {\r... */\n    tag_10:\n      callvalue\n        /* \"--CODEGEN--\":8:17   */\n      dup1\n        /* \"--CODEGEN--\":5:7   */\n      iszero\n      tag_55\n      jumpi\n        /* \"--CODEGEN--\":30:31   */\n      0x0\n        /* \"--CODEGEN--\":27:28   */\n      dup1\n        /* \"--CODEGEN--\":20:32   */\n      revert\n        /* \"--CODEGEN--\":5:7   */\n    tag_55:\n        /* \"Kagi Crypto.sol\":7519:7630  function balanceOf(address _owner) constant public returns (uint256) {\r... */\n      pop\n      tag_56\n      0x4\n      dup1\n      calldatasize\n      sub\n      dup2\n      add\n      swap1\n      dup1\n      dup1\n      calldataload\n      0xffffffffffffffffffffffffffffffffffffffff\n      and\n      swap1\n      0x20\n      add\n      swap1\n      swap3\n      swap2\n      swap1\n      pop\n      pop\n      pop\n      jump(tag_57)\n    tag_56:\n      mload(0x40)\n      dup1\n      dup3\n      dup2\n      mstore\n      0x20\n      add\n      swap2\n      pop\n      pop\n      mload(0x40)\n      dup1\n      swap2\n      sub\n      swap1\n      return\n        /* \"Kagi Crypto.sol\":5107:5144  string public constant symbol = \"KGC\" */\n    tag_11:\n      callvalue\n        /* \"--CODEGEN--\":8:17   */\n      dup1\n        /* \"--CODEGEN--\":5:7   */\n      iszero\n      tag_58\n      jumpi\n        /* \"--CODEGEN--\":30:31   */\n      0x0\n        /* \"--CODEGEN--\":27:28   */\n      dup1\n        /* \"--CODEGEN--\":20:32   */\n      revert\n        /* \"--CODEGEN--\":5:7   */\n    tag_58:\n        /* \"Kagi Crypto.sol\":5107:5144  string public constant symbol = \"KGC\" */\n      pop\n      tag_59\n      jump(tag_60)\n    tag_59:\n      mload(0x40)\n      dup1\n      dup1\n      0x20\n      add\n      dup3\n      dup2\n      sub\n      dup3\n      mstore\n      dup4\n      dup2\n      dup2\n      mload\n      dup2\n      mstore\n      0x20\n      add\n      swap2\n      pop\n      dup1\n      mload\n      swap1\n      0x20\n      add\n      swap1\n      dup1\n      dup4\n      dup4\n        /* \"--CODEGEN--\":23:24   */\n      0x0\n        /* \"--CODEGEN--\":8:108   */\n    tag_61:\n        /* \"--CODEGEN--\":33:36   */\n      dup4\n        /* \"--CODEGEN--\":30:31   */\n      dup2\n        /* \"--CODEGEN--\":27:37   */\n      lt\n        /* \"--CODEGEN--\":8:108   */\n      iszero\n      tag_62\n      jumpi\n        /* \"--CODEGEN--\":99:100   */\n      dup1\n        /* \"--CODEGEN--\":94:97   */\n      dup3\n        /* \"--CODEGEN--\":90:101   */\n      add\n        /* \"--CODEGEN--\":84:102   */\n      mload\n        /* \"--CODEGEN--\":80:81   */\n      dup2\n        /* \"--CODEGEN--\":75:78   */\n      dup5\n        /* \"--CODEGEN--\":71:82   */\n      add\n        /* \"--CODEGEN--\":64:103   */\n      mstore\n        /* \"--CODEGEN--\":52:54   */\n      0x20\n        /* \"--CODEGEN--\":49:50   */\n      dup2\n        /* \"--CODEGEN--\":45:55   */\n      add\n        /* \"--CODEGEN--\":40:55   */\n      swap1\n      pop\n        /* \"--CODEGEN--\":8:108   */\n      jump(tag_61)\n    tag_62:\n        /* \"--CODEGEN--\":12:26   */\n      pop\n        /* \"Kagi Crypto.sol\":5107:5144  string public constant symbol = \"KGC\" */\n      pop\n      pop\n      pop\n      swap1\n      pop\n      swap1\n      dup2\n      add\n      swap1\n      0x1f\n      and\n      dup1\n      iszero\n      tag_64\n      jumpi\n      dup1\n      dup3\n      sub\n      dup1\n      mload\n      0x1\n      dup4\n      0x20\n      sub\n      0x100\n      exp\n      sub\n      not\n      and\n      dup2\n      mstore\n      0x20\n      add\n      swap2\n      pop\n    tag_64:\n      pop\n      swap3\n      pop\n      pop\n      pop\n      mload(0x40)\n      dup1\n      swap2\n      sub\n      swap1\n      return\n        /* \"Kagi Crypto.sol\":6200:6370  function finishDistribution() onlyOwner canDistr public returns (bool) {\r... */\n    tag_12:\n      callvalue\n        /* \"--CODEGEN--\":8:17   */\n      dup1\n        /* \"--CODEGEN--\":5:7   */\n      iszero\n      tag_65\n      jumpi\n        /* \"--CODEGEN--\":30:31   */\n      0x0\n        /* \"--CODEGEN--\":27:28   */\n      dup1\n        /* \"--CODEGEN--\":20:32   */\n      revert\n        /* \"--CODEGEN--\":5:7   */\n    tag_65:\n        /* \"Kagi Crypto.sol\":6200:6370  function finishDistribution() onlyOwner canDistr public returns (bool) {\r... */\n      pop\n      tag_66\n      jump(tag_67)\n    tag_66:\n      mload(0x40)\n      dup1\n      dup3\n      iszero\n      iszero\n      iszero\n      iszero\n      dup2\n      mstore\n      0x20\n      add\n      swap2\n      pop\n      pop\n      mload(0x40)\n      dup1\n      swap2\n      sub\n      swap1\n      return\n        /* \"Kagi Crypto.sol\":7751:8150  function transfer(address _to, uint256 _amount) onlyPayloadSize(2 * 32) public returns (bool success) {\r... */\n    tag_13:\n      callvalue\n        /* \"--CODEGEN--\":8:17   */\n      dup1\n        /* \"--CODEGEN--\":5:7   */\n      iszero\n      tag_68\n      jumpi\n        /* \"--CODEGEN--\":30:31   */\n      0x0\n        /* \"--CODEGEN--\":27:28   */\n      dup1\n        /* \"--CODEGEN--\":20:32   */\n      revert\n        /* \"--CODEGEN--\":5:7   */\n    tag_68:\n        /* \"Kagi Crypto.sol\":7751:8150  function transfer(address _to, uint256 _amount) onlyPayloadSize(2 * 32) public returns (bool success) {\r... */\n      pop\n      tag_69\n      0x4\n      dup1\n      calldatasize\n      sub\n      dup2\n      add\n      swap1\n      dup1\n      dup1\n      calldataload\n      0xffffffffffffffffffffffffffffffffffffffff\n      and\n      swap1\n      0x20\n      add\n      swap1\n      swap3\n      swap2\n      swap1\n      dup1\n      calldataload\n      swap1\n      0x20\n      add\n      swap1\n      swap3\n      swap2\n      swap1\n      pop\n      pop\n      pop\n      jump(tag_70)\n    tag_69:\n      mload(0x40)\n      dup1\n      dup3\n      iszero\n      iszero\n      iszero\n      iszero\n      dup2\n      mstore\n      0x20\n      add\n      swap2\n      pop\n      pop\n      mload(0x40)\n      dup1\n      swap2\n      sub\n      swap1\n      return\n        /* \"Kagi Crypto.sol\":6932:7511  function getTokens() payable canDistr onlyWhitelist public {\r... */\n    tag_14:\n      tag_71\n      jump(tag_26)\n    tag_71:\n      stop\n        /* \"Kagi Crypto.sol\":5737:5777  bool public distributionFinished = false */\n    tag_15:\n      callvalue\n        /* \"--CODEGEN--\":8:17   */\n      dup1\n        /* \"--CODEGEN--\":5:7   */\n      iszero\n      tag_72\n      jumpi\n        /* \"--CODEGEN--\":30:31   */\n      0x0\n        /* \"--CODEGEN--\":27:28   */\n      dup1\n        /* \"--CODEGEN--\":20:32   */\n      revert\n        /* \"--CODEGEN--\":5:7   */\n    tag_72:\n        /* \"Kagi Crypto.sol\":5737:5777  bool public distributionFinished = false */\n      pop\n      tag_73\n      jump(tag_74)\n    tag_73:\n      mload(0x40)\n      dup1\n      dup3\n      iszero\n      iszero\n      iszero\n      iszero\n      dup2\n      mstore\n      0x20\n      add\n      swap2\n      pop\n      pop\n      mload(0x40)\n      dup1\n      swap2\n      sub\n      swap1\n      return\n        /* \"Kagi Crypto.sol\":9162:9373  function getTokenBalance(address tokenAddress, address who) constant public returns (uint){\r... */\n    tag_16:\n      callvalue\n        /* \"--CODEGEN--\":8:17   */\n      dup1\n        /* \"--CODEGEN--\":5:7   */\n      iszero\n      tag_75\n      jumpi\n        /* \"--CODEGEN--\":30:31   */\n      0x0\n        /* \"--CODEGEN--\":27:28   */\n      dup1\n        /* \"--CODEGEN--\":20:32   */\n      revert\n        /* \"--CODEGEN--\":5:7   */\n    tag_75:\n        /* \"Kagi Crypto.sol\":9162:9373  function getTokenBalance(address tokenAddress, address who) constant public returns (uint){\r... */\n      pop\n      tag_76\n      0x4\n      dup1\n      calldatasize\n      sub\n      dup2\n      add\n      swap1\n      dup1\n      dup1\n      calldataload\n      0xffffffffffffffffffffffffffffffffffffffff\n      and\n      swap1\n      0x20\n      add\n      swap1\n      swap3\n      swap2\n      swap1\n      dup1\n      calldataload\n      0xffffffffffffffffffffffffffffffffffffffff\n      and\n      swap1\n      0x20\n      add\n      swap1\n      swap3\n      swap2\n      swap1\n      pop\n      pop\n      pop\n      jump(tag_77)\n    tag_76:\n      mload(0x40)\n      dup1\n      dup3\n      dup2\n      mstore\n      0x20\n      add\n      swap2\n      pop\n      pop\n      mload(0x40)\n      dup1\n      swap2\n      sub\n      swap1\n      return\n        /* \"Kagi Crypto.sol\":6075:6189  function KGC() onlyOwner public {\r... */\n    tag_17:\n      callvalue\n        /* \"--CODEGEN--\":8:17   */\n      dup1\n        /* \"--CODEGEN--\":5:7   */\n      iszero\n      tag_78\n      jumpi\n        /* \"--CODEGEN--\":30:31   */\n      0x0\n        /* \"--CODEGEN--\":27:28   */\n      dup1\n        /* \"--CODEGEN--\":20:32   */\n      revert\n        /* \"--CODEGEN--\":5:7   */\n    tag_78:\n        /* \"Kagi Crypto.sol\":6075:6189  function KGC() onlyOwner public {\r... */\n      pop\n      tag_79\n      jump(tag_80)\n    tag_79:\n      stop\n        /* \"Kagi Crypto.sol\":5301:5366  uint256 public totalRemaining = totalSupply.sub(totalDistributed) */\n    tag_18:\n      callvalue\n        /* \"--CODEGEN--\":8:17   */\n      dup1\n        /* \"--CODEGEN--\":5:7   */\n      iszero\n      tag_81\n      jumpi\n        /* \"--CODEGEN--\":30:31   */\n      0x0\n        /* \"--CODEGEN--\":27:28   */\n      dup1\n        /* \"--CODEGEN--\":20:32   */\n      revert\n        /* \"--CODEGEN--\":5:7   */\n    tag_81:\n        /* \"Kagi Crypto.sol\":5301:5366  uint256 public totalRemaining = totalSupply.sub(totalDistributed) */\n      pop\n      tag_82\n      jump(tag_83)\n    tag_82:\n      mload(0x40)\n      dup1\n      dup3\n      dup2\n      mstore\n      0x20\n      add\n      swap2\n      pop\n      pop\n      mload(0x40)\n      dup1\n      swap2\n      sub\n      swap1\n      return\n        /* \"Kagi Crypto.sol\":9013:9151  function allowance(address _owner, address _spender) constant public returns (uint256) {\r... */\n    tag_19:\n      callvalue\n        /* \"--CODEGEN--\":8:17   */\n      dup1\n        /* \"--CODEGEN--\":5:7   */\n      iszero\n      tag_84\n      jumpi\n        /* \"--CODEGEN--\":30:31   */\n      0x0\n        /* \"--CODEGEN--\":27:28   */\n      dup1\n        /* \"--CODEGEN--\":20:32   */\n      revert\n        /* \"--CODEGEN--\":5:7   */\n    tag_84:\n        /* \"Kagi Crypto.sol\":9013:9151  function allowance(address _owner, address _spender) constant public returns (uint256) {\r... */\n      pop\n      tag_85\n      0x4\n      dup1\n      calldatasize\n      sub\n      dup2\n      add\n      swap1\n      dup1\n      dup1\n      calldataload\n      0xffffffffffffffffffffffffffffffffffffffff\n      and\n      swap1\n      0x20\n      add\n      swap1\n      swap3\n      swap2\n      swap1\n      dup1\n      calldataload\n      0xffffffffffffffffffffffffffffffffffffffff\n      and\n      swap1\n      0x20\n      add\n      swap1\n      swap3\n      swap2\n      swap1\n      pop\n      pop\n      pop\n      jump(tag_86)\n    tag_85:\n      mload(0x40)\n      dup1\n      dup3\n      dup2\n      mstore\n      0x20\n      add\n      swap2\n      pop\n      pop\n      mload(0x40)\n      dup1\n      swap2\n      sub\n      swap1\n      return\n        /* \"Kagi Crypto.sol\":9888:10148  function withdrawForeignTokens(address _tokenContract) onlyOwner public returns (bool) {\r... */\n    tag_20:\n      callvalue\n        /* \"--CODEGEN--\":8:17   */\n      dup1\n        /* \"--CODEGEN--\":5:7   */\n      iszero\n      tag_87\n      jumpi\n        /* \"--CODEGEN--\":30:31   */\n      0x0\n        /* \"--CODEGEN--\":27:28   */\n      dup1\n        /* \"--CODEGEN--\":20:32   */\n      revert\n        /* \"--CODEGEN--\":5:7   */\n    tag_87:\n        /* \"Kagi Crypto.sol\":9888:10148  function withdrawForeignTokens(address _tokenContract) onlyOwner public returns (bool) {\r... */\n      pop\n      tag_88\n      0x4\n      dup1\n      calldatasize\n      sub\n      dup2\n      add\n      swap1\n      dup1\n      dup1\n      calldataload\n      0xffffffffffffffffffffffffffffffffffffffff\n      and\n      swap1\n      0x20\n      add\n      swap1\n      swap3\n      swap2\n      swap1\n      pop\n      pop\n      pop\n      jump(tag_89)\n    tag_88:\n      mload(0x40)\n      dup1\n      dup3\n      iszero\n      iszero\n      iszero\n      iszero\n      dup2\n      mstore\n      0x20\n      add\n      swap2\n      pop\n      pop\n      mload(0x40)\n      dup1\n      swap2\n      sub\n      swap1\n      return\n        /* \"Kagi Crypto.sol\":5245:5293  uint256 public totalDistributed = 30000000000e18 */\n    tag_21:\n      callvalue\n        /* \"--CODEGEN--\":8:17   */\n      dup1\n        /* \"--CODEGEN--\":5:7   */\n      iszero\n      tag_90\n      jumpi\n        /* \"--CODEGEN--\":30:31   */\n      0x0\n        /* \"--CODEGEN--\":27:28   */\n      dup1\n        /* \"--CODEGEN--\":20:32   */\n      revert\n        /* \"--CODEGEN--\":5:7   */\n    tag_90:\n        /* \"Kagi Crypto.sol\":5245:5293  uint256 public totalDistributed = 30000000000e18 */\n      pop\n      tag_91\n      jump(tag_92)\n    tag_91:\n      mload(0x40)\n      dup1\n      dup3\n      dup2\n      mstore\n      0x20\n      add\n      swap2\n      pop\n      pop\n      mload(0x40)\n      dup1\n      swap2\n      sub\n      swap1\n      return\n        /* \"Kagi Crypto.sol\":5006:5048  mapping (address => bool) public blacklist */\n    tag_22:\n      callvalue\n        /* \"--CODEGEN--\":8:17   */\n      dup1\n        /* \"--CODEGEN--\":5:7   */\n      iszero\n      tag_93\n      jumpi\n        /* \"--CODEGEN--\":30:31   */\n      0x0\n        /* \"--CODEGEN--\":27:28   */\n      dup1\n        /* \"--CODEGEN--\":20:32   */\n      revert\n        /* \"--CODEGEN--\":5:7   */\n    tag_93:\n        /* \"Kagi Crypto.sol\":5006:5048  mapping (address => bool) public blacklist */\n      pop\n      tag_94\n      0x4\n      dup1\n      calldatasize\n      sub\n      dup2\n      add\n      swap1\n      dup1\n      dup1\n      calldataload\n      0xffffffffffffffffffffffffffffffffffffffff\n      and\n      swap1\n      0x20\n      add\n      swap1\n      swap3\n      swap2\n      swap1\n      pop\n      pop\n      pop\n      jump(tag_95)\n    tag_94:\n      mload(0x40)\n      dup1\n      dup3\n      iszero\n      iszero\n      iszero\n      iszero\n      dup2\n      mstore\n      0x20\n      add\n      swap2\n      pop\n      pop\n      mload(0x40)\n      dup1\n      swap2\n      sub\n      swap1\n      return\n        /* \"Kagi Crypto.sol\":6932:7511  function getTokens() payable canDistr onlyWhitelist public {\r... */\n    tag_26:\n        /* \"Kagi Crypto.sol\":7150:7166  address investor */\n      0x0\n        /* \"Kagi Crypto.sol\":7190:7204  uint256 toGive */\n      dup1\n        /* \"Kagi Crypto.sol\":5829:5849  distributionFinished */\n      0x9\n      0x0\n      swap1\n      sload\n      swap1\n      0x100\n      exp\n      swap1\n      div\n      0xff\n      and\n        /* \"Kagi Crypto.sol\":5828:5849  !distributionFinished */\n      iszero\n        /* \"Kagi Crypto.sol\":5820:5850  require(!distributionFinished) */\n      iszero\n      iszero\n      tag_97\n      jumpi\n      0x0\n      dup1\n      revert\n    tag_97:\n        /* \"Kagi Crypto.sol\":6041:6046  false */\n      0x0\n        /* \"Kagi Crypto.sol\":6016:6046  blacklist[msg.sender] == false */\n      iszero\n      iszero\n        /* \"Kagi Crypto.sol\":6016:6025  blacklist */\n      0x4\n        /* \"Kagi Crypto.sol\":6016:6037  blacklist[msg.sender] */\n      0x0\n        /* \"Kagi Crypto.sol\":6026:6036  msg.sender */\n      caller\n        /* \"Kagi Crypto.sol\":6016:6037  blacklist[msg.sender] */\n      0xffffffffffffffffffffffffffffffffffffffff\n      and\n      0xffffffffffffffffffffffffffffffffffffffff\n      and\n      dup2\n      mstore\n      0x20\n      add\n      swap1\n      dup2\n      mstore\n      0x20\n      add\n      0x0\n      keccak256\n      0x0\n      swap1\n      sload\n      swap1\n      0x100\n      exp\n      swap1\n      div\n      0xff\n      and\n        /* \"Kagi Crypto.sol\":6016:6046  blacklist[msg.sender] == false */\n      iszero\n      iszero\n      eq\n        /* \"Kagi Crypto.sol\":6008:6047  require(blacklist[msg.sender] == false) */\n      iszero\n      iszero\n      tag_99\n      jumpi\n      0x0\n      dup1\n      revert\n    tag_99:\n        /* \"Kagi Crypto.sol\":7014:7028  totalRemaining */\n      sload(0x7)\n        /* \"Kagi Crypto.sol\":7006:7011  value */\n      sload(0x8)\n        /* \"Kagi Crypto.sol\":7006:7028  value > totalRemaining */\n      gt\n        /* \"Kagi Crypto.sol\":7002:7079  if (value > totalRemaining) {\r... */\n      iszero\n      tag_101\n      jumpi\n        /* \"Kagi Crypto.sol\":7053:7067  totalRemaining */\n      sload(0x7)\n        /* \"Kagi Crypto.sol\":7045:7050  value */\n      0x8\n        /* \"Kagi Crypto.sol\":7045:7067  value = totalRemaining */\n      dup2\n      swap1\n      sstore\n      pop\n        /* \"Kagi Crypto.sol\":7002:7079  if (value > totalRemaining) {\r... */\n    tag_101:\n        /* \"Kagi Crypto.sol\":7115:7129  totalRemaining */\n      sload(0x7)\n        /* \"Kagi Crypto.sol\":7106:7111  value */\n      sload(0x8)\n        /* \"Kagi Crypto.sol\":7106:7129  value <= totalRemaining */\n      gt\n      iszero\n        /* \"Kagi Crypto.sol\":7098:7130  require(value <= totalRemaining) */\n      iszero\n      iszero\n      tag_102\n      jumpi\n      0x0\n      dup1\n      revert\n    tag_102:\n        /* \"Kagi Crypto.sol\":7169:7179  msg.sender */\n      caller\n        /* \"Kagi Crypto.sol\":7150:7179  address investor = msg.sender */\n      swap2\n      pop\n        /* \"Kagi Crypto.sol\":7207:7212  value */\n      sload(0x8)\n        /* \"Kagi Crypto.sol\":7190:7212  uint256 toGive = value */\n      swap1\n      pop\n        /* \"Kagi Crypto.sol\":7232:7255  distr(investor, toGive) */\n      tag_103\n        /* \"Kagi Crypto.sol\":7238:7246  investor */\n      dup3\n        /* \"Kagi Crypto.sol\":7248:7254  toGive */\n      dup3\n        /* \"Kagi Crypto.sol\":7232:7237  distr */\n      tag_104\n        /* \"Kagi Crypto.sol\":7232:7255  distr(investor, toGive) */\n      jump\t// in\n    tag_103:\n      pop\n        /* \"Kagi Crypto.sol\":7288:7289  0 */\n      0x0\n        /* \"Kagi Crypto.sol\":7279:7285  toGive */\n      dup2\n        /* \"Kagi Crypto.sol\":7279:7289  toGive > 0 */\n      gt\n        /* \"Kagi Crypto.sol\":7275:7344  if (toGive > 0) {\r... */\n      iszero\n      tag_105\n      jumpi\n        /* \"Kagi Crypto.sol\":7328:7332  true */\n      0x1\n        /* \"Kagi Crypto.sol\":7306:7315  blacklist */\n      0x4\n        /* \"Kagi Crypto.sol\":7306:7325  blacklist[investor] */\n      0x0\n        /* \"Kagi Crypto.sol\":7316:7324  investor */\n      dup5\n        /* \"Kagi Crypto.sol\":7306:7325  blacklist[investor] */\n      0xffffffffffffffffffffffffffffffffffffffff\n      and\n      0xffffffffffffffffffffffffffffffffffffffff\n      and\n      dup2\n      mstore\n      0x20\n      add\n      swap1\n      dup2\n      mstore\n      0x20\n      add\n      0x0\n      keccak256\n      0x0\n        /* \"Kagi Crypto.sol\":7306:7332  blacklist[investor] = true */\n      0x100\n      exp\n      dup2\n      sload\n      dup2\n      0xff\n      mul\n      not\n      and\n      swap1\n      dup4\n      iszero\n      iszero\n      mul\n      or\n      swap1\n      sstore\n      pop\n        /* \"Kagi Crypto.sol\":7275:7344  if (toGive > 0) {\r... */\n    tag_105:\n        /* \"Kagi Crypto.sol\":7380:7391  totalSupply */\n      sload(0x5)\n        /* \"Kagi Crypto.sol\":7360:7376  totalDistributed */\n      sload(0x6)\n        /* \"Kagi Crypto.sol\":7360:7391  totalDistributed >= totalSupply */\n      lt\n      iszero\n        /* \"Kagi Crypto.sol\":7356:7447  if (totalDistributed >= totalSupply) {\r... */\n      iszero\n      tag_106\n      jumpi\n        /* \"Kagi Crypto.sol\":7431:7435  true */\n      0x1\n        /* \"Kagi Crypto.sol\":7408:7428  distributionFinished */\n      0x9\n      0x0\n        /* \"Kagi Crypto.sol\":7408:7435  distributionFinished = true */\n      0x100\n      exp\n      dup2\n      sload\n      dup2\n      0xff\n      mul\n      not\n      and\n      swap1\n      dup4\n      iszero\n      iszero\n      mul\n      or\n      swap1\n      sstore\n      pop\n        /* \"Kagi Crypto.sol\":7356:7447  if (totalDistributed >= totalSupply) {\r... */\n    tag_106:\n        /* \"Kagi Crypto.sol\":7474:7503  value.div(500000).mul(499999) */\n      tag_107\n        /* \"Kagi Crypto.sol\":7496:7502  499999 */\n      0x7a11f\n        /* \"Kagi Crypto.sol\":7474:7491  value.div(500000) */\n      tag_108\n        /* \"Kagi Crypto.sol\":7484:7490  500000 */\n      0x7a120\n        /* \"Kagi Crypto.sol\":7474:7479  value */\n      sload(0x8)\n        /* \"Kagi Crypto.sol\":7474:7483  value.div */\n      tag_109\n      swap1\n        /* \"Kagi Crypto.sol\":7474:7491  value.div(500000) */\n      swap2\n      swap1\n      0xffffffff\n      and\n      jump\t// in\n    tag_108:\n        /* \"Kagi Crypto.sol\":7474:7495  value.div(500000).mul */\n      tag_110\n      swap1\n        /* \"Kagi Crypto.sol\":7474:7503  value.div(500000).mul(499999) */\n      swap2\n      swap1\n      0xffffffff\n      and\n      jump\t// in\n    tag_107:\n        /* \"Kagi Crypto.sol\":7466:7471  value */\n      0x8\n        /* \"Kagi Crypto.sol\":7466:7503  value = value.div(500000).mul(499999) */\n      dup2\n      swap1\n      sstore\n      pop\n        /* \"Kagi Crypto.sol\":6932:7511  function getTokens() payable canDistr onlyWhitelist public {\r... */\n      pop\n      pop\n      jump\t// out\n        /* \"Kagi Crypto.sol\":5057:5100  string public constant name = \"Kagi Crypto\" */\n    tag_29:\n      0x40\n      dup1\n      mload\n      swap1\n      dup2\n      add\n      0x40\n      mstore\n      dup1\n      0xb\n      dup2\n      mstore\n      0x20\n      add\n      0x4b6167692043727970746f000000000000000000000000000000000000000000\n      dup2\n      mstore\n      pop\n      dup2\n      jump\t// out\n        /* \"Kagi Crypto.sol\":8706:9002  function approve(address _spender, uint256 _value) public returns (bool success) {\r... */\n    tag_36:\n        /* \"Kagi Crypto.sol\":8773:8785  bool success */\n      0x0\n        /* \"Kagi Crypto.sol\":8812:8813  0 */\n      dup1\n        /* \"Kagi Crypto.sol\":8802:8808  _value */\n      dup3\n        /* \"Kagi Crypto.sol\":8802:8813  _value != 0 */\n      eq\n      iszero\n        /* \"Kagi Crypto.sol\":8802:8851  _value != 0 && allowed[msg.sender][_spender] != 0 */\n      dup1\n      iszero\n      tag_112\n      jumpi\n      pop\n        /* \"Kagi Crypto.sol\":8850:8851  0 */\n      0x0\n        /* \"Kagi Crypto.sol\":8817:8824  allowed */\n      0x3\n        /* \"Kagi Crypto.sol\":8817:8836  allowed[msg.sender] */\n      0x0\n        /* \"Kagi Crypto.sol\":8825:8835  msg.sender */\n      caller\n        /* \"Kagi Crypto.sol\":8817:8836  allowed[msg.sender] */\n      0xffffffffffffffffffffffffffffffffffffffff\n      and\n      0xffffffffffffffffffffffffffffffffffffffff\n      and\n      dup2\n      mstore\n      0x20\n      add\n      swap1\n      dup2\n      mstore\n      0x20\n      add\n      0x0\n      keccak256\n        /* \"Kagi Crypto.sol\":8817:8846  allowed[msg.sender][_spender] */\n      0x0\n        /* \"Kagi Crypto.sol\":8837:8845  _spender */\n      dup6\n        /* \"Kagi Crypto.sol\":8817:8846  allowed[msg.sender][_spender] */\n      0xffffffffffffffffffffffffffffffffffffffff\n      and\n      0xffffffffffffffffffffffffffffffffffffffff\n      and\n      dup2\n      mstore\n      0x20\n      add\n      swap1\n      dup2\n      mstore\n      0x20\n      add\n      0x0\n      keccak256\n      sload\n        /* \"Kagi Crypto.sol\":8817:8851  allowed[msg.sender][_spender] != 0 */\n      eq\n      iszero\n        /* \"Kagi Crypto.sol\":8802:8851  _value != 0 && allowed[msg.sender][_spender] != 0 */\n    tag_112:\n        /* \"Kagi Crypto.sol\":8798:8870  if (_value != 0 && allowed[msg.sender][_spender] != 0) { return false; } */\n      iszero\n      tag_113\n      jumpi\n        /* \"Kagi Crypto.sol\":8862:8867  false */\n      0x0\n        /* \"Kagi Crypto.sol\":8855:8867  return false */\n      swap1\n      pop\n      jump(tag_111)\n        /* \"Kagi Crypto.sol\":8798:8870  if (_value != 0 && allowed[msg.sender][_spender] != 0) { return false; } */\n    tag_113:\n        /* \"Kagi Crypto.sol\":8912:8918  _value */\n      dup2\n        /* \"Kagi Crypto.sol\":8880:8887  allowed */\n      0x3\n        /* \"Kagi Crypto.sol\":8880:8899  allowed[msg.sender] */\n      0x0\n        /* \"Kagi Crypto.sol\":8888:8898  msg.sender */\n      caller\n        /* \"Kagi Crypto.sol\":8880:8899  allowed[msg.sender] */\n      0xffffffffffffffffffffffffffffffffffffffff\n      and\n      0xffffffffffffffffffffffffffffffffffffffff\n      and\n      dup2\n      mstore\n      0x20\n      add\n      swap1\n      dup2\n      mstore\n      0x20\n      add\n      0x0\n      keccak256\n        /* \"Kagi Crypto.sol\":8880:8909  allowed[msg.sender][_spender] */\n      0x0\n        /* \"Kagi Crypto.sol\":8900:8908  _spender */\n      dup6\n        /* \"Kagi Crypto.sol\":8880:8909  allowed[msg.sender][_spender] */\n      0xffffffffffffffffffffffffffffffffffffffff\n      and\n      0xffffffffffffffffffffffffffffffffffffffff\n      and\n      dup2\n      mstore\n      0x20\n      add\n      swap1\n      dup2\n      mstore\n      0x20\n      add\n      0x0\n      keccak256\n        /* \"Kagi Crypto.sol\":8880:8918  allowed[msg.sender][_spender] = _value */\n      dup2\n      swap1\n      sstore\n      pop\n        /* \"Kagi Crypto.sol\":8955:8963  _spender */\n      dup3\n        /* \"Kagi Crypto.sol\":8934:8972  Approval(msg.sender, _spender, _value) */\n      0xffffffffffffffffffffffffffffffffffffffff\n      and\n        /* \"Kagi Crypto.sol\":8943:8953  msg.sender */\n      caller\n        /* \"Kagi Crypto.sol\":8934:8972  Approval(msg.sender, _spender, _value) */\n      0xffffffffffffffffffffffffffffffffffffffff\n      and\n      0x8c5be1e5ebec7d5bd14f71427d1e84f3dd0314c0f7b2291e5b200ac8c7c3b925\n        /* \"Kagi Crypto.sol\":8965:8971  _value */\n      dup5\n        /* \"Kagi Crypto.sol\":8934:8972  Approval(msg.sender, _spender, _value) */\n      mload(0x40)\n      dup1\n      dup3\n      dup2\n      mstore\n      0x20\n      add\n      swap2\n      pop\n      pop\n      mload(0x40)\n      dup1\n      swap2\n      sub\n      swap1\n      log3\n        /* \"Kagi Crypto.sol\":8990:8994  true */\n      0x1\n        /* \"Kagi Crypto.sol\":8983:8994  return true */\n      swap1\n      pop\n        /* \"Kagi Crypto.sol\":8706:9002  function approve(address _spender, uint256 _value) public returns (bool success) {\r... */\n    tag_111:\n      swap3\n      swap2\n      pop\n      pop\n      jump\t// out\n        /* \"Kagi Crypto.sol\":5193:5237  uint256 public totalSupply = 100000000000e18 */\n    tag_39:\n      sload(0x5)\n      dup2\n      jump\t// out\n        /* \"Kagi Crypto.sol\":8161:8695  function transferFrom(address _from, address _to, uint256 _amount) onlyPayloadSize(3 * 32) public returns (bool success) {\r... */\n    tag_42:\n        /* \"Kagi Crypto.sol\":8268:8280  bool success */\n      0x0\n        /* \"Kagi Crypto.sol\":8244:8250  3 * 32 */\n      0x60\n        /* \"Kagi Crypto.sol\":7718:7719  4 */\n      0x4\n        /* \"Kagi Crypto.sol\":7711:7715  size */\n      dup2\n        /* \"Kagi Crypto.sol\":7711:7719  size + 4 */\n      add\n        /* \"Kagi Crypto.sol\":7692:7700  msg.data */\n      0x0\n      calldatasize\n        /* \"Kagi Crypto.sol\":7692:7707  msg.data.length */\n      swap1\n      pop\n        /* \"Kagi Crypto.sol\":7692:7719  msg.data.length >= size + 4 */\n      lt\n      iszero\n        /* \"Kagi Crypto.sol\":7685:7720  assert(msg.data.length >= size + 4) */\n      iszero\n      iszero\n      tag_115\n      jumpi\n      invalid\n    tag_115:\n        /* \"Kagi Crypto.sol\":8316:8317  0 */\n      0x0\n        /* \"Kagi Crypto.sol\":8301:8318  _to != address(0) */\n      0xffffffffffffffffffffffffffffffffffffffff\n      and\n        /* \"Kagi Crypto.sol\":8301:8304  _to */\n      dup5\n        /* \"Kagi Crypto.sol\":8301:8318  _to != address(0) */\n      0xffffffffffffffffffffffffffffffffffffffff\n      and\n      eq\n      iszero\n        /* \"Kagi Crypto.sol\":8293:8319  require(_to != address(0)) */\n      iszero\n      iszero\n      tag_117\n      jumpi\n      0x0\n      dup1\n      revert\n    tag_117:\n        /* \"Kagi Crypto.sol\":8349:8357  balances */\n      0x2\n        /* \"Kagi Crypto.sol\":8349:8364  balances[_from] */\n      0x0\n        /* \"Kagi Crypto.sol\":8358:8363  _from */\n      dup7\n        /* \"Kagi Crypto.sol\":8349:8364  balances[_from] */\n      0xffffffffffffffffffffffffffffffffffffffff\n      and\n      0xffffffffffffffffffffffffffffffffffffffff\n      and\n      dup2\n      mstore\n      0x20\n      add\n      swap1\n      dup2\n      mstore\n      0x20\n      add\n      0x0\n      keccak256\n      sload\n        /* \"Kagi Crypto.sol\":8338:8345  _amount */\n      dup4\n        /* \"Kagi Crypto.sol\":8338:8364  _amount <= balances[_from] */\n      gt\n      iszero\n        /* \"Kagi Crypto.sol\":8330:8365  require(_amount <= balances[_from]) */\n      iszero\n      iszero\n      tag_118\n      jumpi\n      0x0\n      dup1\n      revert\n    tag_118:\n        /* \"Kagi Crypto.sol\":8395:8402  allowed */\n      0x3\n        /* \"Kagi Crypto.sol\":8395:8409  allowed[_from] */\n      0x0\n        /* \"Kagi Crypto.sol\":8403:8408  _from */\n      dup7\n        /* \"Kagi Crypto.sol\":8395:8409  allowed[_from] */\n      0xffffffffffffffffffffffffffffffffffffffff\n      and\n      0xffffffffffffffffffffffffffffffffffffffff\n      and\n      dup2\n      mstore\n      0x20\n      add\n      swap1\n      dup2\n      mstore\n      0x20\n      add\n      0x0\n      keccak256\n        /* \"Kagi Crypto.sol\":8395:8421  allowed[_from][msg.sender] */\n      0x0\n        /* \"Kagi Crypto.sol\":8410:8420  msg.sender */\n      caller\n        /* \"Kagi Crypto.sol\":8395:8421  allowed[_from][msg.sender] */\n      0xffffffffffffffffffffffffffffffffffffffff\n      and\n      0xffffffffffffffffffffffffffffffffffffffff\n      and\n      dup2\n      mstore\n      0x20\n      add\n      swap1\n      dup2\n      mstore\n      0x20\n      add\n      0x0\n      keccak256\n      sload\n        /* \"Kagi Crypto.sol\":8384:8391  _amount */\n      dup4\n        /* \"Kagi Crypto.sol\":8384:8421  _amount <= allowed[_from][msg.sender] */\n      gt\n      iszero\n        /* \"Kagi Crypto.sol\":8376:8422  require(_amount <= allowed[_from][msg.sender]) */\n      iszero\n      iszero\n      tag_119\n      jumpi\n      0x0\n      dup1\n      revert\n    tag_119:\n        /* \"Kagi Crypto.sol\":8460:8488  balances[_from].sub(_amount) */\n      tag_120\n        /* \"Kagi Crypto.sol\":8480:8487  _amount */\n      dup4\n        /* \"Kagi Crypto.sol\":8460:8468  balances */\n      0x2\n        /* \"Kagi Crypto.sol\":8460:8475  balances[_from] */\n      0x0\n        /* \"Kagi Crypto.sol\":8469:8474  _from */\n      dup9\n        /* \"Kagi Crypto.sol\":8460:8475  balances[_from] */\n      0xffffffffffffffffffffffffffffffffffffffff\n      and\n      0xffffffffffffffffffffffffffffffffffffffff\n      and\n      dup2\n      mstore\n      0x20\n      add\n      swap1\n      dup2\n      mstore\n      0x20\n      add\n      0x0\n      keccak256\n      sload\n        /* \"Kagi Crypto.sol\":8460:8479  balances[_from].sub */\n      tag_121\n      swap1\n        /* \"Kagi Crypto.sol\":8460:8488  balances[_from].sub(_amount) */\n      swap2\n      swap1\n      0xffffffff\n      and\n      jump\t// in\n    tag_120:\n        /* \"Kagi Crypto.sol\":8442:8450  balances */\n      0x2\n        /* \"Kagi Crypto.sol\":8442:8457  balances[_from] */\n      0x0\n        /* \"Kagi Crypto.sol\":8451:8456  _from */\n      dup8\n        /* \"Kagi Crypto.sol\":8442:8457  balances[_from] */\n      0xffffffffffffffffffffffffffffffffffffffff\n      and\n      0xffffffffffffffffffffffffffffffffffffffff\n      and\n      dup2\n      mstore\n      0x20\n      add\n      swap1\n      dup2\n      mstore\n      0x20\n      add\n      0x0\n      keccak256\n        /* \"Kagi Crypto.sol\":8442:8488  balances[_from] = balances[_from].sub(_amount) */\n      dup2\n      swap1\n      sstore\n      pop\n        /* \"Kagi Crypto.sol\":8528:8567  allowed[_from][msg.sender].sub(_amount) */\n      tag_122\n        /* \"Kagi Crypto.sol\":8559:8566  _amount */\n      dup4\n        /* \"Kagi Crypto.sol\":8528:8535  allowed */\n      0x3\n        /* \"Kagi Crypto.sol\":8528:8542  allowed[_from] */\n      0x0\n        /* \"Kagi Crypto.sol\":8536:8541  _from */\n      dup9\n        /* \"Kagi Crypto.sol\":8528:8542  allowed[_from] */\n      0xffffffffffffffffffffffffffffffffffffffff\n      and\n      0xffffffffffffffffffffffffffffffffffffffff\n      and\n      dup2\n      mstore\n      0x20\n      add\n      swap1\n      dup2\n      mstore\n      0x20\n      add\n      0x0\n      keccak256\n        /* \"Kagi Crypto.sol\":8528:8554  allowed[_from][msg.sender] */\n      0x0\n        /* \"Kagi Crypto.sol\":8543:8553  msg.sender */\n      caller\n        /* \"Kagi Crypto.sol\":8528:8554  allowed[_from][msg.sender] */\n      0xffffffffffffffffffffffffffffffffffffffff\n      and\n      0xffffffffffffffffffffffffffffffffffffffff\n      and\n      dup2\n      mstore\n      0x20\n      add\n      swap1\n      dup2\n      mstore\n      0x20\n      add\n      0x0\n      keccak256\n      sload\n        /* \"Kagi Crypto.sol\":8528:8558  allowed[_from][msg.sender].sub */\n      tag_121\n      swap1\n        /* \"Kagi Crypto.sol\":8528:8567  allowed[_from][msg.sender].sub(_amount) */\n      swap2\n      swap1\n      0xffffffff\n      and\n      jump\t// in\n    tag_122:\n        /* \"Kagi Crypto.sol\":8499:8506  allowed */\n      0x3\n        /* \"Kagi Crypto.sol\":8499:8513  allowed[_from] */\n      0x0\n        /* \"Kagi Crypto.sol\":8507:8512  _from */\n      dup8\n        /* \"Kagi Crypto.sol\":8499:8513  allowed[_from] */\n      0xffffffffffffffffffffffffffffffffffffffff\n      and\n      0xffffffffffffffffffffffffffffffffffffffff\n      and\n      dup2\n      mstore\n      0x20\n      add\n      swap1\n      dup2\n      mstore\n      0x20\n      add\n      0x0\n      keccak256\n        /* \"Kagi Crypto.sol\":8499:8525  allowed[_from][msg.sender] */\n      0x0\n        /* \"Kagi Crypto.sol\":8514:8524  msg.sender */\n      caller\n        /* \"Kagi Crypto.sol\":8499:8525  allowed[_from][msg.sender] */\n      0xffffffffffffffffffffffffffffffffffffffff\n      and\n      0xffffffffffffffffffffffffffffffffffffffff\n      and\n      dup2\n      mstore\n      0x20\n      add\n      swap1\n      dup2\n      mstore\n      0x20\n      add\n      0x0\n      keccak256\n        /* \"Kagi Crypto.sol\":8499:8567  allowed[_from][msg.sender] = allowed[_from][msg.sender].sub(_amount) */\n      dup2\n      swap1\n      sstore\n      pop\n        /* \"Kagi Crypto.sol\":8594:8620  balances[_to].add(_amount) */\n      tag_123\n        /* \"Kagi Crypto.sol\":8612:8619  _amount */\n      dup4\n        /* \"Kagi Crypto.sol\":8594:8602  balances */\n      0x2\n        /* \"Kagi Crypto.sol\":8594:8607  balances[_to] */\n      0x0\n        /* \"Kagi Crypto.sol\":8603:8606  _to */\n      dup8\n        /* \"Kagi Crypto.sol\":8594:8607  balances[_to] */\n      0xffffffffffffffffffffffffffffffffffffffff\n      and\n      0xffffffffffffffffffffffffffffffffffffffff\n      and\n      dup2\n      mstore\n      0x20\n      add\n      swap1\n      dup2\n      mstore\n      0x20\n      add\n      0x0\n      keccak256\n      sload\n        /* \"Kagi Crypto.sol\":8594:8611  balances[_to].add */\n      tag_124\n      swap1\n        /* \"Kagi Crypto.sol\":8594:8620  balances[_to].add(_amount) */\n      swap2\n      swap1\n      0xffffffff\n      and\n      jump\t// in\n    tag_123:\n        /* \"Kagi Crypto.sol\":8578:8586  balances */\n      0x2\n        /* \"Kagi Crypto.sol\":8578:8591  balances[_to] */\n      0x0\n        /* \"Kagi Crypto.sol\":8587:8590  _to */\n      dup7\n        /* \"Kagi Crypto.sol\":8578:8591  balances[_to] */\n      0xffffffffffffffffffffffffffffffffffffffff\n      and\n      0xffffffffffffffffffffffffffffffffffffffff\n      and\n      dup2\n      mstore\n      0x20\n      add\n      swap1\n      dup2\n      mstore\n      0x20\n      add\n      0x0\n      keccak256\n        /* \"Kagi Crypto.sol\":8578:8620  balances[_to] = balances[_to].add(_amount) */\n      dup2\n      swap1\n      sstore\n      pop\n        /* \"Kagi Crypto.sol\":8652:8655  _to */\n      dup4\n        /* \"Kagi Crypto.sol\":8636:8665  Transfer(_from, _to, _amount) */\n      0xffffffffffffffffffffffffffffffffffffffff\n      and\n        /* \"Kagi Crypto.sol\":8645:8650  _from */\n      dup6\n        /* \"Kagi Crypto.sol\":8636:8665  Transfer(_from, _to, _amount) */\n      0xffffffffffffffffffffffffffffffffffffffff\n      and\n      0xddf252ad1be2c89b69c2b068fc378daa952ba7f163c4a11628f55a4df523b3ef\n        /* \"Kagi Crypto.sol\":8657:8664  _amount */\n      dup6\n        /* \"Kagi Crypto.sol\":8636:8665  Transfer(_from, _to, _amount) */\n      mload(0x40)\n      dup1\n      dup3\n      dup2\n      mstore\n      0x20\n      add\n      swap2\n      pop\n      pop\n      mload(0x40)\n      dup1\n      swap2\n      sub\n      swap1\n      log3\n        /* \"Kagi Crypto.sol\":8683:8687  true */\n      0x1\n        /* \"Kagi Crypto.sol\":8676:8687  return true */\n      swap2\n      pop\n        /* \"Kagi Crypto.sol\":8161:8695  function transferFrom(address _from, address _to, uint256 _amount) onlyPayloadSize(3 * 32) public returns (bool success) {\r... */\n      pop\n      swap4\n      swap3\n      pop\n      pop\n      pop\n      jump\t// out\n        /* \"Kagi Crypto.sol\":5151:5185  uint public constant decimals = 18 */\n    tag_45:\n        /* \"Kagi Crypto.sol\":5183:5185  18 */\n      0x12\n        /* \"Kagi Crypto.sol\":5151:5185  uint public constant decimals = 18 */\n      dup2\n      jump\t// out\n        /* \"Kagi Crypto.sol\":9384:9521  function withdraw() onlyOwner public {\r... */\n    tag_48:\n        /* \"Kagi Crypto.sol\":9432:9451  uint256 GLMRBalance */\n      0x0\n        /* \"Kagi Crypto.sol\":5935:5940  owner */\n      0x1\n      0x0\n      swap1\n      sload\n      swap1\n      0x100\n      exp\n      swap1\n      div\n      0xffffffffffffffffffffffffffffffffffffffff\n      and\n        /* \"Kagi Crypto.sol\":5921:5940  msg.sender == owner */\n      0xffffffffffffffffffffffffffffffffffffffff\n      and\n        /* \"Kagi Crypto.sol\":5921:5931  msg.sender */\n      caller\n        /* \"Kagi Crypto.sol\":5921:5940  msg.sender == owner */\n      0xffffffffffffffffffffffffffffffffffffffff\n      and\n      eq\n        /* \"Kagi Crypto.sol\":5913:5941  require(msg.sender == owner) */\n      iszero\n      iszero\n      tag_126\n      jumpi\n      0x0\n      dup1\n      revert\n    tag_126:\n        /* \"Kagi Crypto.sol\":9462:9466  this */\n      address\n        /* \"Kagi Crypto.sol\":9454:9475  address(this).balance */\n      0xffffffffffffffffffffffffffffffffffffffff\n      and\n      balance\n        /* \"Kagi Crypto.sol\":9432:9475  uint256 GLMRBalance = address(this).balance */\n      swap1\n      pop\n        /* \"Kagi Crypto.sol\":9486:9491  owner */\n      0x1\n      0x0\n      swap1\n      sload\n      swap1\n      0x100\n      exp\n      swap1\n      div\n      0xffffffffffffffffffffffffffffffffffffffff\n      and\n        /* \"Kagi Crypto.sol\":9486:9500  owner.transfer */\n      0xffffffffffffffffffffffffffffffffffffffff\n      and\n        /* \"Kagi Crypto.sol\":9486:9513  owner.transfer(GLMRBalance) */\n      0x8fc\n        /* \"Kagi Crypto.sol\":9501:9512  GLMRBalance */\n      dup3\n        /* \"Kagi Crypto.sol\":9486:9513  owner.transfer(GLMRBalance) */\n      swap1\n      dup2\n      iszero\n      mul\n      swap1\n      mload(0x40)\n      0x0\n      mload(0x40)\n      dup1\n      dup4\n      sub\n      dup2\n      dup6\n      dup9\n      dup9\n      call\n      swap4\n      pop\n      pop\n      pop\n      pop\n      iszero\n        /* \"--CODEGEN--\":8:17   */\n      dup1\n        /* \"--CODEGEN--\":5:7   */\n      iszero\n      tag_128\n      jumpi\n        /* \"--CODEGEN--\":45:61   */\n      returndatasize\n        /* \"--CODEGEN--\":42:43   */\n      0x0\n        /* \"--CODEGEN--\":39:40   */\n      dup1\n        /* \"--CODEGEN--\":24:62   */\n      returndatacopy\n        /* \"--CODEGEN--\":77:93   */\n      returndatasize\n        /* \"--CODEGEN--\":74:75   */\n      0x0\n        /* \"--CODEGEN--\":67:94   */\n      revert\n        /* \"--CODEGEN--\":5:7   */\n    tag_128:\n        /* \"Kagi Crypto.sol\":9486:9513  owner.transfer(GLMRBalance) */\n      pop\n        /* \"Kagi Crypto.sol\":9384:9521  function withdraw() onlyOwner public {\r... */\n      pop\n      jump\t// out\n        /* \"Kagi Crypto.sol\":5374:5406  uint256 public value = 500000e18 */\n    tag_51:\n      sload(0x8)\n      dup2\n      jump\t// out\n        /* \"Kagi Crypto.sol\":9532:9877  function burn(uint256 _value) onlyOwner public {\r... */\n    tag_54:\n        /* \"Kagi Crypto.sol\":9642:9656  address burner */\n      0x0\n        /* \"Kagi Crypto.sol\":5935:5940  owner */\n      0x1\n      0x0\n      swap1\n      sload\n      swap1\n      0x100\n      exp\n      swap1\n      div\n      0xffffffffffffffffffffffffffffffffffffffff\n      and\n        /* \"Kagi Crypto.sol\":5921:5940  msg.sender == owner */\n      0xffffffffffffffffffffffffffffffffffffffff\n      and\n        /* \"Kagi Crypto.sol\":5921:5931  msg.sender */\n      caller\n        /* \"Kagi Crypto.sol\":5921:5940  msg.sender == owner */\n      0xffffffffffffffffffffffffffffffffffffffff\n      and\n      eq\n        /* \"Kagi Crypto.sol\":5913:5941  require(msg.sender == owner) */\n      iszero\n      iszero\n      tag_130\n      jumpi\n      0x0\n      dup1\n      revert\n    tag_130:\n        /* \"Kagi Crypto.sol\":9608:9616  balances */\n      0x2\n        /* \"Kagi Crypto.sol\":9608:9628  balances[msg.sender] */\n      0x0\n        /* \"Kagi Crypto.sol\":9617:9627  msg.sender */\n      caller\n        /* \"Kagi Crypto.sol\":9608:9628  balances[msg.sender] */\n      0xffffffffffffffffffffffffffffffffffffffff\n      and\n      0xffffffffffffffffffffffffffffffffffffffff\n      and\n      dup2\n      mstore\n      0x20\n      add\n      swap1\n      dup2\n      mstore\n      0x20\n      add\n      0x0\n      keccak256\n      sload\n        /* \"Kagi Crypto.sol\":9598:9604  _value */\n      dup3\n        /* \"Kagi Crypto.sol\":9598:9628  _value <= balances[msg.sender] */\n      gt\n      iszero\n        /* \"Kagi Crypto.sol\":9590:9629  require(_value <= balances[msg.sender]) */\n      iszero\n      iszero\n      tag_132\n      jumpi\n      0x0\n      dup1\n      revert\n    tag_132:\n        /* \"Kagi Crypto.sol\":9659:9669  msg.sender */\n      caller\n        /* \"Kagi Crypto.sol\":9642:9669  address burner = msg.sender */\n      swap1\n      pop\n        /* \"Kagi Crypto.sol\":9699:9727  balances[burner].sub(_value) */\n      tag_133\n        /* \"Kagi Crypto.sol\":9720:9726  _value */\n      dup3\n        /* \"Kagi Crypto.sol\":9699:9707  balances */\n      0x2\n        /* \"Kagi Crypto.sol\":9699:9715  balances[burner] */\n      0x0\n        /* \"Kagi Crypto.sol\":9708:9714  burner */\n      dup5\n        /* \"Kagi Crypto.sol\":9699:9715  balances[burner] */\n      0xffffffffffffffffffffffffffffffffffffffff\n      and\n      0xffffffffffffffffffffffffffffffffffffffff\n      and\n      dup2\n      mstore\n      0x20\n      add\n      swap1\n      dup2\n      mstore\n      0x20\n      add\n      0x0\n      keccak256\n      sload\n        /* \"Kagi Crypto.sol\":9699:9719  balances[burner].sub */\n      tag_121\n      swap1\n        /* \"Kagi Crypto.sol\":9699:9727  balances[burner].sub(_value) */\n      swap2\n      swap1\n      0xffffffff\n      and\n      jump\t// in\n    tag_133:\n        /* \"Kagi Crypto.sol\":9680:9688  balances */\n      0x2\n        /* \"Kagi Crypto.sol\":9680:9696  balances[burner] */\n      0x0\n        /* \"Kagi Crypto.sol\":9689:9695  burner */\n      dup4\n        /* \"Kagi Crypto.sol\":9680:9696  balances[burner] */\n      0xffffffffffffffffffffffffffffffffffffffff\n      and\n      0xffffffffffffffffffffffffffffffffffffffff\n      and\n      dup2\n      mstore\n      0x20\n      add\n      swap1\n      dup2\n      mstore\n      0x20\n      add\n      0x0\n      keccak256\n        /* \"Kagi Crypto.sol\":9680:9727  balances[burner] = balances[burner].sub(_value) */\n      dup2\n      swap1\n      sstore\n      pop\n        /* \"Kagi Crypto.sol\":9752:9775  totalSupply.sub(_value) */\n      tag_134\n        /* \"Kagi Crypto.sol\":9768:9774  _value */\n      dup3\n        /* \"Kagi Crypto.sol\":9752:9763  totalSupply */\n      sload(0x5)\n        /* \"Kagi Crypto.sol\":9752:9767  totalSupply.sub */\n      tag_121\n      swap1\n        /* \"Kagi Crypto.sol\":9752:9775  totalSupply.sub(_value) */\n      swap2\n      swap1\n      0xffffffff\n      and\n      jump\t// in\n    tag_134:\n        /* \"Kagi Crypto.sol\":9738:9749  totalSupply */\n      0x5\n        /* \"Kagi Crypto.sol\":9738:9775  totalSupply = totalSupply.sub(_value) */\n      dup2\n      swap1\n      sstore\n      pop\n        /* \"Kagi Crypto.sol\":9805:9833  totalDistributed.sub(_value) */\n      tag_135\n        /* \"Kagi Crypto.sol\":9826:9832  _value */\n      dup3\n        /* \"Kagi Crypto.sol\":9805:9821  totalDistributed */\n      sload(0x6)\n        /* \"Kagi Crypto.sol\":9805:9825  totalDistributed.sub */\n      tag_121\n      swap1\n        /* \"Kagi Crypto.sol\":9805:9833  totalDistributed.sub(_value) */\n      swap2\n      swap1\n      0xffffffff\n      and\n      jump\t// in\n    tag_135:\n        /* \"Kagi Crypto.sol\":9786:9802  totalDistributed */\n      0x6\n        /* \"Kagi Crypto.sol\":9786:9833  totalDistributed = totalDistributed.sub(_value) */\n      dup2\n      swap1\n      sstore\n      pop\n        /* \"Kagi Crypto.sol\":9854:9860  burner */\n      dup1\n        /* \"Kagi Crypto.sol\":9849:9869  Burn(burner, _value) */\n      0xffffffffffffffffffffffffffffffffffffffff\n      and\n      0xcc16f5dbb4873280815c1ee09dbd06736cffcc184412cf7a71a0fdb75d397ca5\n        /* \"Kagi Crypto.sol\":9862:9868  _value */\n      dup4\n        /* \"Kagi Crypto.sol\":9849:9869  Burn(burner, _value) */\n      mload(0x40)\n      dup1\n      dup3\n      dup2\n      mstore\n      0x20\n      add\n      swap2\n      pop\n      pop\n      mload(0x40)\n      dup1\n      swap2\n      sub\n      swap1\n      log2\n        /* \"Kagi Crypto.sol\":9532:9877  function burn(uint256 _value) onlyOwner public {\r... */\n      pop\n      pop\n      jump\t// out\n        /* \"Kagi Crypto.sol\":7519:7630  function balanceOf(address _owner) constant public returns (uint256) {\r... */\n    tag_57:\n        /* \"Kagi Crypto.sol\":7579:7586  uint256 */\n      0x0\n        /* \"Kagi Crypto.sol\":7606:7614  balances */\n      0x2\n        /* \"Kagi Crypto.sol\":7606:7622  balances[_owner] */\n      0x0\n        /* \"Kagi Crypto.sol\":7615:7621  _owner */\n      dup4\n        /* \"Kagi Crypto.sol\":7606:7622  balances[_owner] */\n      0xffffffffffffffffffffffffffffffffffffffff\n      and\n      0xffffffffffffffffffffffffffffffffffffffff\n      and\n      dup2\n      mstore\n      0x20\n      add\n      swap1\n      dup2\n      mstore\n      0x20\n      add\n      0x0\n      keccak256\n      sload\n        /* \"Kagi Crypto.sol\":7599:7622  return balances[_owner] */\n      swap1\n      pop\n        /* \"Kagi Crypto.sol\":7519:7630  function balanceOf(address _owner) constant public returns (uint256) {\r... */\n      swap2\n      swap1\n      pop\n      jump\t// out\n        /* \"Kagi Crypto.sol\":5107:5144  string public constant symbol = \"KGC\" */\n    tag_60:\n      0x40\n      dup1\n      mload\n      swap1\n      dup2\n      add\n      0x40\n      mstore\n      dup1\n      0x3\n      dup2\n      mstore\n      0x20\n      add\n      0x4b47430000000000000000000000000000000000000000000000000000000000\n      dup2\n      mstore\n      pop\n      dup2\n      jump\t// out\n        /* \"Kagi Crypto.sol\":6200:6370  function finishDistribution() onlyOwner canDistr public returns (bool) {\r... */\n    tag_67:\n        /* \"Kagi Crypto.sol\":6265:6269  bool */\n      0x0\n        /* \"Kagi Crypto.sol\":5935:5940  owner */\n      0x1\n      0x0\n      swap1\n      sload\n      swap1\n      0x100\n      exp\n      swap1\n      div\n      0xffffffffffffffffffffffffffffffffffffffff\n      and\n        /* \"Kagi Crypto.sol\":5921:5940  msg.sender == owner */\n      0xffffffffffffffffffffffffffffffffffffffff\n      and\n        /* \"Kagi Crypto.sol\":5921:5931  msg.sender */\n      caller\n        /* \"Kagi Crypto.sol\":5921:5940  msg.sender == owner */\n      0xffffffffffffffffffffffffffffffffffffffff\n      and\n      eq\n        /* \"Kagi Crypto.sol\":5913:5941  require(msg.sender == owner) */\n      iszero\n      iszero\n      tag_138\n      jumpi\n      0x0\n      dup1\n      revert\n    tag_138:\n        /* \"Kagi Crypto.sol\":5829:5849  distributionFinished */\n      0x9\n      0x0\n      swap1\n      sload\n      swap1\n      0x100\n      exp\n      swap1\n      div\n      0xff\n      and\n        /* \"Kagi Crypto.sol\":5828:5849  !distributionFinished */\n      iszero\n        /* \"Kagi Crypto.sol\":5820:5850  require(!distributionFinished) */\n      iszero\n      iszero\n      tag_140\n      jumpi\n      0x0\n      dup1\n      revert\n    tag_140:\n        /* \"Kagi Crypto.sol\":6305:6309  true */\n      0x1\n        /* \"Kagi Crypto.sol\":6282:6302  distributionFinished */\n      0x9\n      0x0\n        /* \"Kagi Crypto.sol\":6282:6309  distributionFinished = true */\n      0x100\n      exp\n      dup2\n      sload\n      dup2\n      0xff\n      mul\n      not\n      and\n      swap1\n      dup4\n      iszero\n      iszero\n      mul\n      or\n      swap1\n      sstore\n      pop\n        /* \"Kagi Crypto.sol\":6325:6340  DistrFinished() */\n      0x7f95d919e78bdebe8a285e6e33357c2fcb65ccf66e72d7573f9f8f6caad0c4cc\n      mload(0x40)\n      mload(0x40)\n      dup1\n      swap2\n      sub\n      swap1\n      log1\n        /* \"Kagi Crypto.sol\":6358:6362  true */\n      0x1\n        /* \"Kagi Crypto.sol\":6351:6362  return true */\n      swap1\n      pop\n        /* \"Kagi Crypto.sol\":6200:6370  function finishDistribution() onlyOwner canDistr public returns (bool) {\r... */\n      swap1\n      jump\t// out\n        /* \"Kagi Crypto.sol\":7751:8150  function transfer(address _to, uint256 _amount) onlyPayloadSize(2 * 32) public returns (bool success) {\r... */\n    tag_70:\n        /* \"Kagi Crypto.sol\":7839:7851  bool success */\n      0x0\n        /* \"Kagi Crypto.sol\":7815:7821  2 * 32 */\n      0x40\n        /* \"Kagi Crypto.sol\":7718:7719  4 */\n      0x4\n        /* \"Kagi Crypto.sol\":7711:7715  size */\n      dup2\n        /* \"Kagi Crypto.sol\":7711:7719  size + 4 */\n      add\n        /* \"Kagi Crypto.sol\":7692:7700  msg.data */\n      0x0\n      calldatasize\n        /* \"Kagi Crypto.sol\":7692:7707  msg.data.length */\n      swap1\n      pop\n        /* \"Kagi Crypto.sol\":7692:7719  msg.data.length >= size + 4 */\n      lt\n      iszero\n        /* \"Kagi Crypto.sol\":7685:7720  assert(msg.data.length >= size + 4) */\n      iszero\n      iszero\n      tag_143\n      jumpi\n      invalid\n    tag_143:\n        /* \"Kagi Crypto.sol\":7887:7888  0 */\n      0x0\n        /* \"Kagi Crypto.sol\":7872:7889  _to != address(0) */\n      0xffffffffffffffffffffffffffffffffffffffff\n      and\n        /* \"Kagi Crypto.sol\":7872:7875  _to */\n      dup5\n        /* \"Kagi Crypto.sol\":7872:7889  _to != address(0) */\n      0xffffffffffffffffffffffffffffffffffffffff\n      and\n      eq\n      iszero\n        /* \"Kagi Crypto.sol\":7864:7890  require(_to != address(0)) */\n      iszero\n      iszero\n      tag_145\n      jumpi\n      0x0\n      dup1\n      revert\n    tag_145:\n        /* \"Kagi Crypto.sol\":7920:7928  balances */\n      0x2\n        /* \"Kagi Crypto.sol\":7920:7940  balances[msg.sender] */\n      0x0\n        /* \"Kagi Crypto.sol\":7929:7939  msg.sender */\n      caller\n        /* \"Kagi Crypto.sol\":7920:7940  balances[msg.sender] */\n      0xffffffffffffffffffffffffffffffffffffffff\n      and\n      0xffffffffffffffffffffffffffffffffffffffff\n      and\n      dup2\n      mstore\n      0x20\n      add\n      swap1\n      dup2\n      mstore\n      0x20\n      add\n      0x0\n      keccak256\n      sload\n        /* \"Kagi Crypto.sol\":7909:7916  _amount */\n      dup4\n        /* \"Kagi Crypto.sol\":7909:7940  _amount <= balances[msg.sender] */\n      gt\n      iszero\n        /* \"Kagi Crypto.sol\":7901:7941  require(_amount <= balances[msg.sender]) */\n      iszero\n      iszero\n      tag_146\n      jumpi\n      0x0\n      dup1\n      revert\n    tag_146:\n        /* \"Kagi Crypto.sol\":7984:8017  balances[msg.sender].sub(_amount) */\n      tag_147\n        /* \"Kagi Crypto.sol\":8009:8016  _amount */\n      dup4\n        /* \"Kagi Crypto.sol\":7984:7992  balances */\n      0x2\n        /* \"Kagi Crypto.sol\":7984:8004  balances[msg.sender] */\n      0x0\n        /* \"Kagi Crypto.sol\":7993:8003  msg.sender */\n      caller\n        /* \"Kagi Crypto.sol\":7984:8004  balances[msg.sender] */\n      0xffffffffffffffffffffffffffffffffffffffff\n      and\n      0xffffffffffffffffffffffffffffffffffffffff\n      and\n      dup2\n      mstore\n      0x20\n      add\n      swap1\n      dup2\n      mstore\n      0x20\n      add\n      0x0\n      keccak256\n      sload\n        /* \"Kagi Crypto.sol\":7984:8008  balances[msg.sender].sub */\n      tag_121\n      swap1\n        /* \"Kagi Crypto.sol\":7984:8017  balances[msg.sender].sub(_amount) */\n      swap2\n      swap1\n      0xffffffff\n      and\n      jump\t// in\n    tag_147:\n        /* \"Kagi Crypto.sol\":7961:7969  balances */\n      0x2\n        /* \"Kagi Crypto.sol\":7961:7981  balances[msg.sender] */\n      0x0\n        /* \"Kagi Crypto.sol\":7970:7980  msg.sender */\n      caller\n        /* \"Kagi Crypto.sol\":7961:7981  balances[msg.sender] */\n      0xffffffffffffffffffffffffffffffffffffffff\n      and\n      0xffffffffffffffffffffffffffffffffffffffff\n      and\n      dup2\n      mstore\n      0x20\n      add\n      swap1\n      dup2\n      mstore\n      0x20\n      add\n      0x0\n      keccak256\n        /* \"Kagi Crypto.sol\":7961:8017  balances[msg.sender] = balances[msg.sender].sub(_amount) */\n      dup2\n      swap1\n      sstore\n      pop\n        /* \"Kagi Crypto.sol\":8044:8070  balances[_to].add(_amount) */\n      tag_148\n        /* \"Kagi Crypto.sol\":8062:8069  _amount */\n      dup4\n        /* \"Kagi Crypto.sol\":8044:8052  balances */\n      0x2\n        /* \"Kagi Crypto.sol\":8044:8057  balances[_to] */\n      0x0\n        /* \"Kagi Crypto.sol\":8053:8056  _to */\n      dup8\n        /* \"Kagi Crypto.sol\":8044:8057  balances[_to] */\n      0xffffffffffffffffffffffffffffffffffffffff\n      and\n      0xffffffffffffffffffffffffffffffffffffffff\n      and\n      dup2\n      mstore\n      0x20\n      add\n      swap1\n      dup2\n      mstore\n      0x20\n      add\n      0x0\n      keccak256\n      sload\n        /* \"Kagi Crypto.sol\":8044:8061  balances[_to].add */\n      tag_124\n      swap1\n        /* \"Kagi Crypto.sol\":8044:8070  balances[_to].add(_amount) */\n      swap2\n      swap1\n      0xffffffff\n      and\n      jump\t// in\n    tag_148:\n        /* \"Kagi Crypto.sol\":8028:8036  balances */\n      0x2\n        /* \"Kagi Crypto.sol\":8028:8041  balances[_to] */\n      0x0\n        /* \"Kagi Crypto.sol\":8037:8040  _to */\n      dup7\n        /* \"Kagi Crypto.sol\":8028:8041  balances[_to] */\n      0xffffffffffffffffffffffffffffffffffffffff\n      and\n      0xffffffffffffffffffffffffffffffffffffffff\n      and\n      dup2\n      mstore\n      0x20\n      add\n      swap1\n      dup2\n      mstore\n      0x20\n      add\n      0x0\n      keccak256\n        /* \"Kagi Crypto.sol\":8028:8070  balances[_to] = balances[_to].add(_amount) */\n      dup2\n      swap1\n      sstore\n      pop\n        /* \"Kagi Crypto.sol\":8107:8110  _to */\n      dup4\n        /* \"Kagi Crypto.sol\":8086:8120  Transfer(msg.sender, _to, _amount) */\n      0xffffffffffffffffffffffffffffffffffffffff\n      and\n        /* \"Kagi Crypto.sol\":8095:8105  msg.sender */\n      caller\n        /* \"Kagi Crypto.sol\":8086:8120  Transfer(msg.sender, _to, _amount) */\n      0xffffffffffffffffffffffffffffffffffffffff\n      and\n      0xddf252ad1be2c89b69c2b068fc378daa952ba7f163c4a11628f55a4df523b3ef\n        /* \"Kagi Crypto.sol\":8112:8119  _amount */\n      dup6\n        /* \"Kagi Crypto.sol\":8086:8120  Transfer(msg.sender, _to, _amount) */\n      mload(0x40)\n      dup1\n      dup3\n      dup2\n      mstore\n      0x20\n      add\n      swap2\n      pop\n      pop\n      mload(0x40)\n      dup1\n      swap2\n      sub\n      swap1\n      log3\n        /* \"Kagi Crypto.sol\":8138:8142  true */\n      0x1\n        /* \"Kagi Crypto.sol\":8131:8142  return true */\n      swap2\n      pop\n        /* \"Kagi Crypto.sol\":7751:8150  function transfer(address _to, uint256 _amount) onlyPayloadSize(2 * 32) public returns (bool success) {\r... */\n      pop\n      swap3\n      swap2\n      pop\n      pop\n      jump\t// out\n        /* \"Kagi Crypto.sol\":5737:5777  bool public distributionFinished = false */\n    tag_74:\n      0x9\n      0x0\n      swap1\n      sload\n      swap1\n      0x100\n      exp\n      swap1\n      div\n      0xff\n      and\n      dup2\n      jump\t// out\n        /* \"Kagi Crypto.sol\":9162:9373  function getTokenBalance(address tokenAddress, address who) constant public returns (uint){\r... */\n    tag_77:\n        /* \"Kagi Crypto.sol\":9247:9251  uint */\n      0x0\n        /* \"Kagi Crypto.sol\":9263:9277  ForeignToken t */\n      dup1\n        /* \"Kagi Crypto.sol\":9317:9325  uint bal */\n      0x0\n        /* \"Kagi Crypto.sol\":9293:9305  tokenAddress */\n      dup5\n        /* \"Kagi Crypto.sol\":9263:9306  ForeignToken t = ForeignToken(tokenAddress) */\n      swap2\n      pop\n        /* \"Kagi Crypto.sol\":9328:9329  t */\n      dup2\n        /* \"Kagi Crypto.sol\":9328:9339  t.balanceOf */\n      0xffffffffffffffffffffffffffffffffffffffff\n      and\n      0x70a08231\n        /* \"Kagi Crypto.sol\":9340:9343  who */\n      dup6\n        /* \"Kagi Crypto.sol\":9328:9344  t.balanceOf(who) */\n      mload(0x40)\n      dup3\n      0xffffffff\n      and\n      0x100000000000000000000000000000000000000000000000000000000\n      mul\n      dup2\n      mstore\n      0x4\n      add\n      dup1\n      dup3\n      0xffffffffffffffffffffffffffffffffffffffff\n      and\n      0xffffffffffffffffffffffffffffffffffffffff\n      and\n      dup2\n      mstore\n      0x20\n      add\n      swap2\n      pop\n      pop\n      0x20\n      mload(0x40)\n      dup1\n      dup4\n      sub\n      dup2\n      0x0\n      dup8\n      dup1\n      extcodesize\n      iszero\n        /* \"--CODEGEN--\":8:17   */\n      dup1\n        /* \"--CODEGEN--\":5:7   */\n      iszero\n      tag_150\n      jumpi\n        /* \"--CODEGEN--\":30:31   */\n      0x0\n        /* \"--CODEGEN--\":27:28   */\n      dup1\n        /* \"--CODEGEN--\":20:32   */\n      revert\n        /* \"--CODEGEN--\":5:7   */\n    tag_150:\n        /* \"Kagi Crypto.sol\":9328:9344  t.balanceOf(who) */\n      pop\n      gas\n      call\n      iszero\n        /* \"--CODEGEN--\":8:17   */\n      dup1\n        /* \"--CODEGEN--\":5:7   */\n      iszero\n      tag_151\n      jumpi\n        /* \"--CODEGEN--\":45:61   */\n      returndatasize\n        /* \"--CODEGEN--\":42:43   */\n      0x0\n        /* \"--CODEGEN--\":39:40   */\n      dup1\n        /* \"--CODEGEN--\":24:62   */\n      returndatacopy\n        /* \"--CODEGEN--\":77:93   */\n      returndatasize\n        /* \"--CODEGEN--\":74:75   */\n      0x0\n        /* \"--CODEGEN--\":67:94   */\n      revert\n        /* \"--CODEGEN--\":5:7   */\n    tag_151:\n        /* \"Kagi Crypto.sol\":9328:9344  t.balanceOf(who) */\n      pop\n      pop\n      pop\n      pop\n      mload(0x40)\n      returndatasize\n        /* \"--CODEGEN--\":13:15   */\n      0x20\n        /* \"--CODEGEN--\":8:11   */\n      dup2\n        /* \"--CODEGEN--\":5:16   */\n      lt\n        /* \"--CODEGEN--\":2:4   */\n      iszero\n      tag_152\n      jumpi\n        /* \"--CODEGEN--\":29:30   */\n      0x0\n        /* \"--CODEGEN--\":26:27   */\n      dup1\n        /* \"--CODEGEN--\":19:31   */\n      revert\n        /* \"--CODEGEN--\":2:4   */\n    tag_152:\n        /* \"Kagi Crypto.sol\":9328:9344  t.balanceOf(who) */\n      dup2\n      add\n      swap1\n      dup1\n      dup1\n      mload\n      swap1\n      0x20\n      add\n      swap1\n      swap3\n      swap2\n      swap1\n      pop\n      pop\n      pop\n        /* \"Kagi Crypto.sol\":9317:9344  uint bal = t.balanceOf(who) */\n      swap1\n      pop\n        /* \"Kagi Crypto.sol\":9362:9365  bal */\n      dup1\n        /* \"Kagi Crypto.sol\":9355:9365  return bal */\n      swap3\n      pop\n        /* \"Kagi Crypto.sol\":9162:9373  function getTokenBalance(address tokenAddress, address who) constant public returns (uint){\r... */\n      pop\n      pop\n      swap3\n      swap2\n      pop\n      pop\n      jump\t// out\n        /* \"Kagi Crypto.sol\":6075:6189  function KGC() onlyOwner public {\r... */\n    tag_80:\n        /* \"Kagi Crypto.sol\":5935:5940  owner */\n      0x1\n      0x0\n      swap1\n      sload\n      swap1\n      0x100\n      exp\n      swap1\n      div\n      0xffffffffffffffffffffffffffffffffffffffff\n      and\n        /* \"Kagi Crypto.sol\":5921:5940  msg.sender == owner */\n      0xffffffffffffffffffffffffffffffffffffffff\n      and\n        /* \"Kagi Crypto.sol\":5921:5931  msg.sender */\n      caller\n        /* \"Kagi Crypto.sol\":5921:5940  msg.sender == owner */\n      0xffffffffffffffffffffffffffffffffffffffff\n      and\n      eq\n        /* \"Kagi Crypto.sol\":5913:5941  require(msg.sender == owner) */\n      iszero\n      iszero\n      tag_154\n      jumpi\n      0x0\n      dup1\n      revert\n    tag_154:\n        /* \"Kagi Crypto.sol\":6126:6136  msg.sender */\n      caller\n        /* \"Kagi Crypto.sol\":6118:6123  owner */\n      0x1\n      0x0\n        /* \"Kagi Crypto.sol\":6118:6136  owner = msg.sender */\n      0x100\n      exp\n      dup2\n      sload\n      dup2\n      0xffffffffffffffffffffffffffffffffffffffff\n      mul\n      not\n      and\n      swap1\n      dup4\n      0xffffffffffffffffffffffffffffffffffffffff\n      and\n      mul\n      or\n      swap1\n      sstore\n      pop\n        /* \"Kagi Crypto.sol\":6165:6181  totalDistributed */\n      sload(0x6)\n        /* \"Kagi Crypto.sol\":6147:6155  balances */\n      0x2\n        /* \"Kagi Crypto.sol\":6147:6162  balances[owner] */\n      0x0\n        /* \"Kagi Crypto.sol\":6156:6161  owner */\n      0x1\n      0x0\n      swap1\n      sload\n      swap1\n      0x100\n      exp\n      swap1\n      div\n      0xffffffffffffffffffffffffffffffffffffffff\n      and\n        /* \"Kagi Crypto.sol\":6147:6162  balances[owner] */\n      0xffffffffffffffffffffffffffffffffffffffff\n      and\n      0xffffffffffffffffffffffffffffffffffffffff\n      and\n      dup2\n      mstore\n      0x20\n      add\n      swap1\n      dup2\n      mstore\n      0x20\n      add\n      0x0\n      keccak256\n        /* \"Kagi Crypto.sol\":6147:6181  balances[owner] = totalDistributed */\n      dup2\n      swap1\n      sstore\n      pop\n        /* \"Kagi Crypto.sol\":6075:6189  function KGC() onlyOwner public {\r... */\n      jump\t// out\n        /* \"Kagi Crypto.sol\":5301:5366  uint256 public totalRemaining = totalSupply.sub(totalDistributed) */\n    tag_83:\n      sload(0x7)\n      dup2\n      jump\t// out\n        /* \"Kagi Crypto.sol\":9013:9151  function allowance(address _owner, address _spender) constant public returns (uint256) {\r... */\n    tag_86:\n        /* \"Kagi Crypto.sol\":9091:9098  uint256 */\n      0x0\n        /* \"Kagi Crypto.sol\":9118:9125  allowed */\n      0x3\n        /* \"Kagi Crypto.sol\":9118:9133  allowed[_owner] */\n      0x0\n        /* \"Kagi Crypto.sol\":9126:9132  _owner */\n      dup5\n        /* \"Kagi Crypto.sol\":9118:9133  allowed[_owner] */\n      0xffffffffffffffffffffffffffffffffffffffff\n      and\n      0xffffffffffffffffffffffffffffffffffffffff\n      and\n      dup2\n      mstore\n      0x20\n      add\n      swap1\n      dup2\n      mstore\n      0x20\n      add\n      0x0\n      keccak256\n        /* \"Kagi Crypto.sol\":9118:9143  allowed[_owner][_spender] */\n      0x0\n        /* \"Kagi Crypto.sol\":9134:9142  _spender */\n      dup4\n        /* \"Kagi Crypto.sol\":9118:9143  allowed[_owner][_spender] */\n      0xffffffffffffffffffffffffffffffffffffffff\n      and\n      0xffffffffffffffffffffffffffffffffffffffff\n      and\n      dup2\n      mstore\n      0x20\n      add\n      swap1\n      dup2\n      mstore\n      0x20\n      add\n      0x0\n      keccak256\n      sload\n        /* \"Kagi Crypto.sol\":9111:9143  return allowed[_owner][_spender] */\n      swap1\n      pop\n        /* \"Kagi Crypto.sol\":9013:9151  function allowance(address _owner, address _spender) constant public returns (uint256) {\r... */\n      swap3\n      swap2\n      pop\n      pop\n      jump\t// out\n        /* \"Kagi Crypto.sol\":9888:10148  function withdrawForeignTokens(address _tokenContract) onlyOwner public returns (bool) {\r... */\n    tag_89:\n        /* \"Kagi Crypto.sol\":9969:9973  bool */\n      0x0\n        /* \"Kagi Crypto.sol\":9986:10004  ForeignToken token */\n      dup1\n        /* \"Kagi Crypto.sol\":10046:10060  uint256 amount */\n      0x0\n        /* \"Kagi Crypto.sol\":5935:5940  owner */\n      0x1\n      0x0\n      swap1\n      sload\n      swap1\n      0x100\n      exp\n      swap1\n      div\n      0xffffffffffffffffffffffffffffffffffffffff\n      and\n        /* \"Kagi Crypto.sol\":5921:5940  msg.sender == owner */\n      0xffffffffffffffffffffffffffffffffffffffff\n      and\n        /* \"Kagi Crypto.sol\":5921:5931  msg.sender */\n      caller\n        /* \"Kagi Crypto.sol\":5921:5940  msg.sender == owner */\n      0xffffffffffffffffffffffffffffffffffffffff\n      and\n      eq\n        /* \"Kagi Crypto.sol\":5913:5941  require(msg.sender == owner) */\n      iszero\n      iszero\n      tag_158\n      jumpi\n      0x0\n      dup1\n      revert\n    tag_158:\n        /* \"Kagi Crypto.sol\":10020:10034  _tokenContract */\n      dup4\n        /* \"Kagi Crypto.sol\":9986:10035  ForeignToken token = ForeignToken(_tokenContract) */\n      swap2\n      pop\n        /* \"Kagi Crypto.sol\":10063:10068  token */\n      dup2\n        /* \"Kagi Crypto.sol\":10063:10078  token.balanceOf */\n      0xffffffffffffffffffffffffffffffffffffffff\n      and\n      0x70a08231\n        /* \"Kagi Crypto.sol\":10087:10091  this */\n      address\n        /* \"Kagi Crypto.sol\":10063:10093  token.balanceOf(address(this)) */\n      mload(0x40)\n      dup3\n      0xffffffff\n      and\n      0x100000000000000000000000000000000000000000000000000000000\n      mul\n      dup2\n      mstore\n      0x4\n      add\n      dup1\n      dup3\n      0xffffffffffffffffffffffffffffffffffffffff\n      and\n      0xffffffffffffffffffffffffffffffffffffffff\n      and\n      dup2\n      mstore\n      0x20\n      add\n      swap2\n      pop\n      pop\n      0x20\n      mload(0x40)\n      dup1\n      dup4\n      sub\n      dup2\n      0x0\n      dup8\n      dup1\n      extcodesize\n      iszero\n        /* \"--CODEGEN--\":8:17   */\n      dup1\n        /* \"--CODEGEN--\":5:7   */\n      iszero\n      tag_160\n      jumpi\n        /* \"--CODEGEN--\":30:31   */\n      0x0\n        /* \"--CODEGEN--\":27:28   */\n      dup1\n        /* \"--CODEGEN--\":20:32   */\n      revert\n        /* \"--CODEGEN--\":5:7   */\n    tag_160:\n        /* \"Kagi Crypto.sol\":10063:10093  token.balanceOf(address(this)) */\n      pop\n      gas\n      call\n      iszero\n        /* \"--CODEGEN--\":8:17   */\n      dup1\n        /* \"--CODEGEN--\":5:7   */\n      iszero\n      tag_161\n      jumpi\n        /* \"--CODEGEN--\":45:61   */\n      returndatasize\n        /* \"--CODEGEN--\":42:43   */\n      0x0\n        /* \"--CODEGEN--\":39:40   */\n      dup1\n        /* \"--CODEGEN--\":24:62   */\n      returndatacopy\n        /* \"--CODEGEN--\":77:93   */\n      returndatasize\n        /* \"--CODEGEN--\":74:75   */\n      0x0\n        /* \"--CODEGEN--\":67:94   */\n      revert\n        /* \"--CODEGEN--\":5:7   */\n    tag_161:\n        /* \"Kagi Crypto.sol\":10063:10093  token.balanceOf(address(this)) */\n      pop\n      pop\n      pop\n      pop\n      mload(0x40)\n      returndatasize\n        /* \"--CODEGEN--\":13:15   */\n      0x20\n        /* \"--CODEGEN--\":8:11   */\n      dup2\n        /* \"--CODEGEN--\":5:16   */\n      lt\n        /* \"--CODEGEN--\":2:4   */\n      iszero\n      tag_162\n      jumpi\n        /* \"--CODEGEN--\":29:30   */\n      0x0\n        /* \"--CODEGEN--\":26:27   */\n      dup1\n        /* \"--CODEGEN--\":19:31   */\n      revert\n        /* \"--CODEGEN--\":2:4   */\n    tag_162:\n        /* \"Kagi Crypto.sol\":10063:10093  token.balanceOf(address(this)) */\n      dup2\n      add\n      swap1\n      dup1\n      dup1\n      mload\n      swap1\n      0x20\n      add\n      swap1\n      swap3\n      swap2\n      swap1\n      pop\n      pop\n      pop\n        /* \"Kagi Crypto.sol\":10046:10093  uint256 amount = token.balanceOf(address(this)) */\n      swap1\n      pop\n        /* \"Kagi Crypto.sol\":10111:10116  token */\n      dup2\n        /* \"Kagi Crypto.sol\":10111:10125  token.transfer */\n      0xffffffffffffffffffffffffffffffffffffffff\n      and\n      0xa9059cbb\n        /* \"Kagi Crypto.sol\":10126:10131  owner */\n      0x1\n      0x0\n      swap1\n      sload\n      swap1\n      0x100\n      exp\n      swap1\n      div\n      0xffffffffffffffffffffffffffffffffffffffff\n      and\n        /* \"Kagi Crypto.sol\":10133:10139  amount */\n      dup4\n        /* \"Kagi Crypto.sol\":10111:10140  token.transfer(owner, amount) */\n      mload(0x40)\n      dup4\n      0xffffffff\n      and\n      0x100000000000000000000000000000000000000000000000000000000\n      mul\n      dup2\n      mstore\n      0x4\n      add\n      dup1\n      dup4\n      0xffffffffffffffffffffffffffffffffffffffff\n      and\n      0xffffffffffffffffffffffffffffffffffffffff\n      and\n      dup2\n      mstore\n      0x20\n      add\n      dup3\n      dup2\n      mstore\n      0x20\n      add\n      swap3\n      pop\n      pop\n      pop\n      0x20\n      mload(0x40)\n      dup1\n      dup4\n      sub\n      dup2\n      0x0\n      dup8\n      dup1\n      extcodesize\n      iszero\n        /* \"--CODEGEN--\":8:17   */\n      dup1\n        /* \"--CODEGEN--\":5:7   */\n      iszero\n      tag_163\n      jumpi\n        /* \"--CODEGEN--\":30:31   */\n      0x0\n        /* \"--CODEGEN--\":27:28   */\n      dup1\n        /* \"--CODEGEN--\":20:32   */\n      revert\n        /* \"--CODEGEN--\":5:7   */\n    tag_163:\n        /* \"Kagi Crypto.sol\":10111:10140  token.transfer(owner, amount) */\n      pop\n      gas\n      call\n      iszero\n        /* \"--CODEGEN--\":8:17   */\n      dup1\n        /* \"--CODEGEN--\":5:7   */\n      iszero\n      tag_164\n      jumpi\n        /* \"--CODEGEN--\":45:61   */\n      returndatasize\n        /* \"--CODEGEN--\":42:43   */\n      0x0\n        /* \"--CODEGEN--\":39:40   */\n      dup1\n        /* \"--CODEGEN--\":24:62   */\n      returndatacopy\n        /* \"--CODEGEN--\":77:93   */\n      returndatasize\n        /* \"--CODEGEN--\":74:75   */\n      0x0\n        /* \"--CODEGEN--\":67:94   */\n      revert\n        /* \"--CODEGEN--\":5:7   */\n    tag_164:\n        /* \"Kagi Crypto.sol\":10111:10140  token.transfer(owner, amount) */\n      pop\n      pop\n      pop\n      pop\n      mload(0x40)\n      returndatasize\n        /* \"--CODEGEN--\":13:15   */\n      0x20\n        /* \"--CODEGEN--\":8:11   */\n      dup2\n        /* \"--CODEGEN--\":5:16   */\n      lt\n        /* \"--CODEGEN--\":2:4   */\n      iszero\n      tag_165\n      jumpi\n        /* \"--CODEGEN--\":29:30   */\n      0x0\n        /* \"--CODEGEN--\":26:27   */\n      dup1\n        /* \"--CODEGEN--\":19:31   */\n      revert\n        /* \"--CODEGEN--\":2:4   */\n    tag_165:\n        /* \"Kagi Crypto.sol\":10111:10140  token.transfer(owner, amount) */\n      dup2\n      add\n      swap1\n      dup1\n      dup1\n      mload\n      swap1\n      0x20\n      add\n      swap1\n      swap3\n      swap2\n      swap1\n      pop\n      pop\n      pop\n        /* \"Kagi Crypto.sol\":10104:10140  return token.transfer(owner, amount) */\n      swap3\n      pop\n        /* \"Kagi Crypto.sol\":9888:10148  function withdrawForeignTokens(address _tokenContract) onlyOwner public returns (bool) {\r... */\n      pop\n      pop\n      swap2\n      swap1\n      pop\n      jump\t// out\n        /* \"Kagi Crypto.sol\":5245:5293  uint256 public totalDistributed = 30000000000e18 */\n    tag_92:\n      sload(0x6)\n      dup2\n      jump\t// out\n        /* \"Kagi Crypto.sol\":5006:5048  mapping (address => bool) public blacklist */\n    tag_95:\n      mstore(0x20, 0x4)\n      dup1\n      0x0\n      mstore\n      keccak256(0x0, 0x40)\n      0x0\n      swap2\n      pop\n      sload\n      swap1\n      0x100\n      exp\n      swap1\n      div\n      0xff\n      and\n      dup2\n      jump\t// out\n        /* \"Kagi Crypto.sol\":6381:6850  function distr(address _to, uint256 _amount) canDistr private returns (bool) {\r... */\n    tag_104:\n        /* \"Kagi Crypto.sol\":6452:6456  bool */\n      0x0\n        /* \"Kagi Crypto.sol\":5829:5849  distributionFinished */\n      0x9\n      0x0\n      swap1\n      sload\n      swap1\n      0x100\n      exp\n      swap1\n      div\n      0xff\n      and\n        /* \"Kagi Crypto.sol\":5828:5849  !distributionFinished */\n      iszero\n        /* \"Kagi Crypto.sol\":5820:5850  require(!distributionFinished) */\n      iszero\n      iszero\n      tag_167\n      jumpi\n      0x0\n      dup1\n      revert\n    tag_167:\n        /* \"Kagi Crypto.sol\":6488:6517  totalDistributed.add(_amount) */\n      tag_169\n        /* \"Kagi Crypto.sol\":6509:6516  _amount */\n      dup3\n        /* \"Kagi Crypto.sol\":6488:6504  totalDistributed */\n      sload(0x6)\n        /* \"Kagi Crypto.sol\":6488:6508  totalDistributed.add */\n      tag_124\n      swap1\n        /* \"Kagi Crypto.sol\":6488:6517  totalDistributed.add(_amount) */\n      swap2\n      swap1\n      0xffffffff\n      and\n      jump\t// in\n    tag_169:\n        /* \"Kagi Crypto.sol\":6469:6485  totalDistributed */\n      0x6\n        /* \"Kagi Crypto.sol\":6469:6517  totalDistributed = totalDistributed.add(_amount) */\n      dup2\n      swap1\n      sstore\n      pop\n        /* \"Kagi Crypto.sol\":6545:6572  totalRemaining.sub(_amount) */\n      tag_170\n        /* \"Kagi Crypto.sol\":6564:6571  _amount */\n      dup3\n        /* \"Kagi Crypto.sol\":6545:6559  totalRemaining */\n      sload(0x7)\n        /* \"Kagi Crypto.sol\":6545:6563  totalRemaining.sub */\n      tag_121\n      swap1\n        /* \"Kagi Crypto.sol\":6545:6572  totalRemaining.sub(_amount) */\n      swap2\n      swap1\n      0xffffffff\n      and\n      jump\t// in\n    tag_170:\n        /* \"Kagi Crypto.sol\":6528:6542  totalRemaining */\n      0x7\n        /* \"Kagi Crypto.sol\":6528:6572  totalRemaining = totalRemaining.sub(_amount) */\n      dup2\n      swap1\n      sstore\n      pop\n        /* \"Kagi Crypto.sol\":6599:6625  balances[_to].add(_amount) */\n      tag_171\n        /* \"Kagi Crypto.sol\":6617:6624  _amount */\n      dup3\n        /* \"Kagi Crypto.sol\":6599:6607  balances */\n      0x2\n        /* \"Kagi Crypto.sol\":6599:6612  balances[_to] */\n      0x0\n        /* \"Kagi Crypto.sol\":6608:6611  _to */\n      dup7\n        /* \"Kagi Crypto.sol\":6599:6612  balances[_to] */\n      0xffffffffffffffffffffffffffffffffffffffff\n      and\n      0xffffffffffffffffffffffffffffffffffffffff\n      and\n      dup2\n      mstore\n      0x20\n      add\n      swap1\n      dup2\n      mstore\n      0x20\n      add\n      0x0\n      keccak256\n      sload\n        /* \"Kagi Crypto.sol\":6599:6616  balances[_to].add */\n      tag_124\n      swap1\n        /* \"Kagi Crypto.sol\":6599:6625  balances[_to].add(_amount) */\n      swap2\n      swap1\n      0xffffffff\n      and\n      jump\t// in\n    tag_171:\n        /* \"Kagi Crypto.sol\":6583:6591  balances */\n      0x2\n        /* \"Kagi Crypto.sol\":6583:6596  balances[_to] */\n      0x0\n        /* \"Kagi Crypto.sol\":6592:6595  _to */\n      dup6\n        /* \"Kagi Crypto.sol\":6583:6596  balances[_to] */\n      0xffffffffffffffffffffffffffffffffffffffff\n      and\n      0xffffffffffffffffffffffffffffffffffffffff\n      and\n      dup2\n      mstore\n      0x20\n      add\n      swap1\n      dup2\n      mstore\n      0x20\n      add\n      0x0\n      keccak256\n        /* \"Kagi Crypto.sol\":6583:6625  balances[_to] = balances[_to].add(_amount) */\n      dup2\n      swap1\n      sstore\n      pop\n        /* \"Kagi Crypto.sol\":6647:6650  _to */\n      dup3\n        /* \"Kagi Crypto.sol\":6641:6660  Distr(_to, _amount) */\n      0xffffffffffffffffffffffffffffffffffffffff\n      and\n      0x8940c4b8e215f8822c5c8f0056c12652c746cbc57eedbd2a440b175971d47a77\n        /* \"Kagi Crypto.sol\":6652:6659  _amount */\n      dup4\n        /* \"Kagi Crypto.sol\":6641:6660  Distr(_to, _amount) */\n      mload(0x40)\n      dup1\n      dup3\n      dup2\n      mstore\n      0x20\n      add\n      swap2\n      pop\n      pop\n      mload(0x40)\n      dup1\n      swap2\n      sub\n      swap1\n      log2\n        /* \"Kagi Crypto.sol\":6697:6700  _to */\n      dup3\n        /* \"Kagi Crypto.sol\":6676:6710  Transfer(address(0), _to, _amount) */\n      0xffffffffffffffffffffffffffffffffffffffff\n      and\n        /* \"Kagi Crypto.sol\":6693:6694  0 */\n      0x0\n        /* \"Kagi Crypto.sol\":6676:6710  Transfer(address(0), _to, _amount) */\n      0xffffffffffffffffffffffffffffffffffffffff\n      and\n      0xddf252ad1be2c89b69c2b068fc378daa952ba7f163c4a11628f55a4df523b3ef\n        /* \"Kagi Crypto.sol\":6702:6709  _amount */\n      dup5\n        /* \"Kagi Crypto.sol\":6676:6710  Transfer(address(0), _to, _amount) */\n      mload(0x40)\n      dup1\n      dup3\n      dup2\n      mstore\n      0x20\n      add\n      swap2\n      pop\n      pop\n      mload(0x40)\n      dup1\n      swap2\n      sub\n      swap1\n      log3\n        /* \"Kagi Crypto.sol\":6728:6732  true */\n      0x1\n        /* \"Kagi Crypto.sol\":6721:6732  return true */\n      swap1\n      pop\n        /* \"Kagi Crypto.sol\":6381:6850  function distr(address _to, uint256 _amount) canDistr private returns (bool) {\r... */\n      swap3\n      swap2\n      pop\n      pop\n      jump\t// out\n        /* \"Kagi Crypto.sol\":3223:3335  function div(uint256 a, uint256 b) internal pure returns (uint256) {\r... */\n    tag_109:\n        /* \"Kagi Crypto.sol\":3281:3288  uint256 */\n      0x0\n        /* \"Kagi Crypto.sol\":3297:3306  uint256 c */\n      dup1\n        /* \"Kagi Crypto.sol\":3313:3314  b */\n      dup3\n        /* \"Kagi Crypto.sol\":3309:3310  a */\n      dup5\n        /* \"Kagi Crypto.sol\":3309:3314  a / b */\n      dup2\n      iszero\n      iszero\n      tag_174\n      jumpi\n      invalid\n    tag_174:\n      div\n        /* \"Kagi Crypto.sol\":3297:3314  uint256 c = a / b */\n      swap1\n      pop\n        /* \"Kagi Crypto.sol\":3328:3329  c */\n      dup1\n        /* \"Kagi Crypto.sol\":3321:3329  return c */\n      swap2\n      pop\n        /* \"Kagi Crypto.sol\":3223:3335  function div(uint256 a, uint256 b) internal pure returns (uint256) {\r... */\n      pop\n      swap3\n      swap2\n      pop\n      pop\n      jump\t// out\n        /* \"Kagi Crypto.sol\":3070:3217  function mul(uint256 a, uint256 b) internal pure returns (uint256) {\r... */\n    tag_110:\n        /* \"Kagi Crypto.sol\":3128:3135  uint256 */\n      0x0\n        /* \"Kagi Crypto.sol\":3144:3153  uint256 c */\n      dup1\n        /* \"Kagi Crypto.sol\":3160:3161  b */\n      dup3\n        /* \"Kagi Crypto.sol\":3156:3157  a */\n      dup5\n        /* \"Kagi Crypto.sol\":3156:3161  a * b */\n      mul\n        /* \"Kagi Crypto.sol\":3144:3161  uint256 c = a * b */\n      swap1\n      pop\n        /* \"Kagi Crypto.sol\":3180:3181  0 */\n      0x0\n        /* \"Kagi Crypto.sol\":3175:3176  a */\n      dup5\n        /* \"Kagi Crypto.sol\":3175:3181  a == 0 */\n      eq\n        /* \"Kagi Crypto.sol\":3175:3195  a == 0 || c / a == b */\n      dup1\n      tag_176\n      jumpi\n      pop\n        /* \"Kagi Crypto.sol\":3194:3195  b */\n      dup3\n        /* \"Kagi Crypto.sol\":3189:3190  a */\n      dup5\n        /* \"Kagi Crypto.sol\":3185:3186  c */\n      dup3\n        /* \"Kagi Crypto.sol\":3185:3190  c / a */\n      dup2\n      iszero\n      iszero\n      tag_177\n      jumpi\n      invalid\n    tag_177:\n      div\n        /* \"Kagi Crypto.sol\":3185:3195  c / a == b */\n      eq\n        /* \"Kagi Crypto.sol\":3175:3195  a == 0 || c / a == b */\n    tag_176:\n        /* \"Kagi Crypto.sol\":3168:3196  assert(a == 0 || c / a == b) */\n      iszero\n      iszero\n      tag_178\n      jumpi\n      invalid\n    tag_178:\n        /* \"Kagi Crypto.sol\":3210:3211  c */\n      dup1\n        /* \"Kagi Crypto.sol\":3203:3211  return c */\n      swap2\n      pop\n        /* \"Kagi Crypto.sol\":3070:3217  function mul(uint256 a, uint256 b) internal pure returns (uint256) {\r... */\n      pop\n      swap3\n      swap2\n      pop\n      pop\n      jump\t// out\n        /* \"Kagi Crypto.sol\":3341:3454  function sub(uint256 a, uint256 b) internal pure returns (uint256) {\r... */\n    tag_121:\n        /* \"Kagi Crypto.sol\":3399:3406  uint256 */\n      0x0\n        /* \"Kagi Crypto.sol\":3427:3428  a */\n      dup3\n        /* \"Kagi Crypto.sol\":3422:3423  b */\n      dup3\n        /* \"Kagi Crypto.sol\":3422:3428  b <= a */\n      gt\n      iszero\n        /* \"Kagi Crypto.sol\":3415:3429  assert(b <= a) */\n      iszero\n      iszero\n      tag_180\n      jumpi\n      invalid\n    tag_180:\n        /* \"Kagi Crypto.sol\":3447:3448  b */\n      dup2\n        /* \"Kagi Crypto.sol\":3443:3444  a */\n      dup4\n        /* \"Kagi Crypto.sol\":3443:3448  a - b */\n      sub\n        /* \"Kagi Crypto.sol\":3436:3448  return a - b */\n      swap1\n      pop\n        /* \"Kagi Crypto.sol\":3341:3454  function sub(uint256 a, uint256 b) internal pure returns (uint256) {\r... */\n      swap3\n      swap2\n      pop\n      pop\n      jump\t// out\n        /* \"Kagi Crypto.sol\":3460:3593  function add(uint256 a, uint256 b) internal pure returns (uint256) {\r... */\n    tag_124:\n        /* \"Kagi Crypto.sol\":3518:3525  uint256 */\n      0x0\n        /* \"Kagi Crypto.sol\":3534:3543  uint256 c */\n      dup1\n        /* \"Kagi Crypto.sol\":3550:3551  b */\n      dup3\n        /* \"Kagi Crypto.sol\":3546:3547  a */\n      dup5\n        /* \"Kagi Crypto.sol\":3546:3551  a + b */\n      add\n        /* \"Kagi Crypto.sol\":3534:3551  uint256 c = a + b */\n      swap1\n      pop\n        /* \"Kagi Crypto.sol\":3570:3571  a */\n      dup4\n        /* \"Kagi Crypto.sol\":3565:3566  c */\n      dup2\n        /* \"Kagi Crypto.sol\":3565:3571  c >= a */\n      lt\n      iszero\n        /* \"Kagi Crypto.sol\":3558:3572  assert(c >= a) */\n      iszero\n      iszero\n      tag_182\n      jumpi\n      invalid\n    tag_182:\n        /* \"Kagi Crypto.sol\":3586:3587  c */\n      dup1\n        /* \"Kagi Crypto.sol\":3579:3587  return c */\n      swap2\n      pop\n        /* \"Kagi Crypto.sol\":3460:3593  function add(uint256 a, uint256 b) internal pure returns (uint256) {\r... */\n      pop\n      swap3\n      swap2\n      pop\n      pop\n      jump\t// out\n\n    auxdata: 0xa165627a7a72305820eac5e272da459875b76bdf98458ca0ac256f17e09f0e8ff96d6359f4d05af10f0029\n}\n",
				"bytecode": {
					"linkReferences": {},
					"object": "608060405233600160006101000a81548173ffffffffffffffffffffffffffffffffffffffff021916908373ffffffffffffffffffffffffffffffffffffffff1602179055506c01431e0fae6d7217caa00000006005556b60ef6b1aba6f07233000000060065561008a6006546005546100c864010000000002611b7c179091906401000000009004565b6007556969e10de76676d08000006008556000600960006101000a81548160ff0219169083151502179055503480156100c257600080fd5b506100e1565b60008282111515156100d657fe5b818303905092915050565b611bdf806100f06000396000f30060806040526004361061011d576000357c0100000000000000000000000000000000000000000000000000000000900463ffffffff16806306fdde0314610127578063095ea7b3146101b757806318160ddd1461021c57806323b872dd14610247578063313ce567146102cc5780633ccfd60b146102f75780633fa4f2451461030e57806342966c681461033957806370a082311461036657806395d89b41146103bd5780639b1cbccc1461044d578063a9059cbb1461047c578063aa6ca808146104e1578063c108d542146104eb578063c489744b1461051a578063c63e617114610591578063d8a54360146105a8578063dd62ed3e146105d3578063e58fc54c1461064a578063efca2eed146106a5578063f9f92be4146106d0575b61012561072b565b005b34801561013357600080fd5b5061013c6108a7565b6040518080602001828103825283818151815260200191508051906020019080838360005b8381101561017c578082015181840152602081019050610161565b50505050905090810190601f1680156101a95780820380516001836020036101000a031916815260200191505b509250505060405180910390f35b3480156101c357600080fd5b50610202600480360381019080803573ffffffffffffffffffffffffffffffffffffffff169060200190929190803590602001909291905050506108e0565b604051808215151515815260200191505060405180910390f35b34801561022857600080fd5b50610231610a6e565b6040518082815260200191505060405180910390f35b34801561025357600080fd5b506102b2600480360381019080803573ffffffffffffffffffffffffffffffffffffffff169060200190929190803573ffffffffffffffffffffffffffffffffffffffff16906020019092919080359060200190929190505050610a74565b604051808215151515815260200191505060405180910390f35b3480156102d857600080fd5b506102e1610e4a565b6040518082815260200191505060405180910390f35b34801561030357600080fd5b5061030c610e4f565b005b34801561031a57600080fd5b50610323610f33565b6040518082815260200191505060405180910390f35b34801561034557600080fd5b5061036460048036038101908080359060200190929190505050610f39565b005b34801561037257600080fd5b506103a7600480360381019080803573ffffffffffffffffffffffffffffffffffffffff169060200190929190505050611105565b6040518082815260200191505060405180910390f35b3480156103c957600080fd5b506103d261114e565b6040518080602001828103825283818151815260200191508051906020019080838360005b838110156104125780820151818401526020810190506103f7565b50505050905090810190601f16801561043f5780820380516001836020036101000a031916815260200191505b509250505060405180910390f35b34801561045957600080fd5b50610462611187565b604051808215151515815260200191505060405180910390f35b34801561048857600080fd5b506104c7600480360381019080803573ffffffffffffffffffffffffffffffffffffffff1690602001909291908035906020019092919050505061124f565b604051808215151515815260200191505060405180910390f35b6104e961072b565b005b3480156104f757600080fd5b5061050061148a565b604051808215151515815260200191505060405180910390f35b34801561052657600080fd5b5061057b600480360381019080803573ffffffffffffffffffffffffffffffffffffffff169060200190929190803573ffffffffffffffffffffffffffffffffffffffff16906020019092919050505061149d565b6040518082815260200191505060405180910390f35b34801561059d57600080fd5b506105a6611588565b005b3480156105b457600080fd5b506105bd61168f565b6040518082815260200191505060405180910390f35b3480156105df57600080fd5b50610634600480360381019080803573ffffffffffffffffffffffffffffffffffffffff169060200190929190803573ffffffffffffffffffffffffffffffffffffffff169060200190929190505050611695565b6040518082815260200191505060405180910390f35b34801561065657600080fd5b5061068b600480360381019080803573ffffffffffffffffffffffffffffffffffffffff16906020019092919050505061171c565b604051808215151515815260200191505060405180910390f35b3480156106b157600080fd5b506106ba611961565b6040518082815260200191505060405180910390f35b3480156106dc57600080fd5b50610711600480360381019080803573ffffffffffffffffffffffffffffffffffffffff169060200190929190505050611967565b604051808215151515815260200191505060405180910390f35b600080600960009054906101000a900460ff1615151561074a57600080fd5b60001515600460003373ffffffffffffffffffffffffffffffffffffffff1673ffffffffffffffffffffffffffffffffffffffff16815260200190815260200160002060009054906101000a900460ff1615151415156107a957600080fd5b60075460085411156107bf576007546008819055505b600754600854111515156107d257600080fd5b33915060085490506107e48282611987565b506000811115610847576001600460008473ffffffffffffffffffffffffffffffffffffffff1673ffffffffffffffffffffffffffffffffffffffff16815260200190815260200160002060006101000a81548160ff0219169083151502179055505b600554600654101515610870576001600960006101000a81548160ff0219169083151502179055505b61089d6207a11f61088f6207a120600854611b2e90919063ffffffff16565b611b4990919063ffffffff16565b6008819055505050565b6040805190810160405280600b81526020017f4b6167692043727970746f00000000000000000000000000000000000000000081525081565b600080821415801561096f57506000600360003373ffffffffffffffffffffffffffffffffffffffff1673ffffffffffffffffffffffffffffffffffffffff16815260200190815260200160002060008573ffffffffffffffffffffffffffffffffffffffff1673ffffffffffffffffffffffffffffffffffffffff1681526020019081526020016000205414155b1561097d5760009050610a68565b81600360003373ffffffffffffffffffffffffffffffffffffffff1673ffffffffffffffffffffffffffffffffffffffff16815260200190815260200160002060008573ffffffffffffffffffffffffffffffffffffffff1673ffffffffffffffffffffffffffffffffffffffff168152602001908152602001600020819055508273ffffffffffffffffffffffffffffffffffffffff163373ffffffffffffffffffffffffffffffffffffffff167f8c5be1e5ebec7d5bd14f71427d1e84f3dd0314c0f7b2291e5b200ac8c7c3b925846040518082815260200191505060405180910390a3600190505b92915050565b60055481565b6000606060048101600036905010151515610a8b57fe5b600073ffffffffffffffffffffffffffffffffffffffff168473ffffffffffffffffffffffffffffffffffffffff1614151515610ac757600080fd5b600260008673ffffffffffffffffffffffffffffffffffffffff1673ffffffffffffffffffffffffffffffffffffffff168152602001908152602001600020548311151515610b1557600080fd5b600360008673ffffffffffffffffffffffffffffffffffffffff1673ffffffffffffffffffffffffffffffffffffffff16815260200190815260200160002060003373ffffffffffffffffffffffffffffffffffffffff1673ffffffffffffffffffffffffffffffffffffffff168152602001908152602001600020548311151515610ba057600080fd5b610bf283600260008873ffffffffffffffffffffffffffffffffffffffff1673ffffffffffffffffffffffffffffffffffffffff16815260200190815260200160002054611b7c90919063ffffffff16565b600260008773ffffffffffffffffffffffffffffffffffffffff1673ffffffffffffffffffffffffffffffffffffffff16815260200190815260200160002081905550610cc483600360008873ffffffffffffffffffffffffffffffffffffffff1673ffffffffffffffffffffffffffffffffffffffff16815260200190815260200160002060003373ffffffffffffffffffffffffffffffffffffffff1673ffffffffffffffffffffffffffffffffffffffff16815260200190815260200160002054611b7c90919063ffffffff16565b600360008773ffffffffffffffffffffffffffffffffffffffff1673ffffffffffffffffffffffffffffffffffffffff16815260200190815260200160002060003373ffffffffffffffffffffffffffffffffffffffff1673ffffffffffffffffffffffffffffffffffffffff16815260200190815260200160002081905550610d9683600260008773ffffffffffffffffffffffffffffffffffffffff1673ffffffffffffffffffffffffffffffffffffffff16815260200190815260200160002054611b9590919063ffffffff16565b600260008673ffffffffffffffffffffffffffffffffffffffff1673ffffffffffffffffffffffffffffffffffffffff168152602001908152602001600020819055508373ffffffffffffffffffffffffffffffffffffffff168573ffffffffffffffffffffffffffffffffffffffff167fddf252ad1be2c89b69c2b068fc378daa952ba7f163c4a11628f55a4df523b3ef856040518082815260200191505060405180910390a360019150509392505050565b601281565b6000600160009054906101000a900473ffffffffffffffffffffffffffffffffffffffff1673ffffffffffffffffffffffffffffffffffffffff163373ffffffffffffffffffffffffffffffffffffffff16141515610ead57600080fd5b3073ffffffffffffffffffffffffffffffffffffffff16319050600160009054906101000a900473ffffffffffffffffffffffffffffffffffffffff1673ffffffffffffffffffffffffffffffffffffffff166108fc829081150290604051600060405180830381858888f19350505050158015610f2f573d6000803e3d6000fd5b5050565b60085481565b6000600160009054906101000a900473ffffffffffffffffffffffffffffffffffffffff1673ffffffffffffffffffffffffffffffffffffffff163373ffffffffffffffffffffffffffffffffffffffff16141515610f9757600080fd5b600260003373ffffffffffffffffffffffffffffffffffffffff1673ffffffffffffffffffffffffffffffffffffffff168152602001908152602001600020548211151515610fe557600080fd5b33905061103a82600260008473ffffffffffffffffffffffffffffffffffffffff1673ffffffffffffffffffffffffffffffffffffffff16815260200190815260200160002054611b7c90919063ffffffff16565b600260008373ffffffffffffffffffffffffffffffffffffffff1673ffffffffffffffffffffffffffffffffffffffff1681526020019081526020016000208190555061109282600554611b7c90919063ffffffff16565b6005819055506110ad82600654611b7c90919063ffffffff16565b6006819055508073ffffffffffffffffffffffffffffffffffffffff167fcc16f5dbb4873280815c1ee09dbd06736cffcc184412cf7a71a0fdb75d397ca5836040518082815260200191505060405180910390a25050565b6000600260008373ffffffffffffffffffffffffffffffffffffffff1673ffffffffffffffffffffffffffffffffffffffff168152602001908152602001600020549050919050565b6040805190810160405280600381526020017f4b4743000000000000000000000000000000000000000000000000000000000081525081565b6000600160009054906101000a900473ffffffffffffffffffffffffffffffffffffffff1673ffffffffffffffffffffffffffffffffffffffff163373ffffffffffffffffffffffffffffffffffffffff161415156111e557600080fd5b600960009054906101000a900460ff1615151561120157600080fd5b6001600960006101000a81548160ff0219169083151502179055507f7f95d919e78bdebe8a285e6e33357c2fcb65ccf66e72d7573f9f8f6caad0c4cc60405160405180910390a16001905090565b600060406004810160003690501015151561126657fe5b600073ffffffffffffffffffffffffffffffffffffffff168473ffffffffffffffffffffffffffffffffffffffff16141515156112a257600080fd5b600260003373ffffffffffffffffffffffffffffffffffffffff1673ffffffffffffffffffffffffffffffffffffffff1681526020019081526020016000205483111515156112f057600080fd5b61134283600260003373ffffffffffffffffffffffffffffffffffffffff1673ffffffffffffffffffffffffffffffffffffffff16815260200190815260200160002054611b7c90919063ffffffff16565b600260003373ffffffffffffffffffffffffffffffffffffffff1673ffffffffffffffffffffffffffffffffffffffff168152602001908152602001600020819055506113d783600260008773ffffffffffffffffffffffffffffffffffffffff1673ffffffffffffffffffffffffffffffffffffffff16815260200190815260200160002054611b9590919063ffffffff16565b600260008673ffffffffffffffffffffffffffffffffffffffff1673ffffffffffffffffffffffffffffffffffffffff168152602001908152602001600020819055508373ffffffffffffffffffffffffffffffffffffffff163373ffffffffffffffffffffffffffffffffffffffff167fddf252ad1be2c89b69c2b068fc378daa952ba7f163c4a11628f55a4df523b3ef856040518082815260200191505060405180910390a3600191505092915050565b600960009054906101000a900460ff1681565b60008060008491508173ffffffffffffffffffffffffffffffffffffffff166370a08231856040518263ffffffff167c0100000000000000000000000000000000000000000000000000000000028152600401808273ffffffffffffffffffffffffffffffffffffffff1673ffffffffffffffffffffffffffffffffffffffff168152602001915050602060405180830381600087803b15801561154057600080fd5b505af1158015611554573d6000803e3d6000fd5b505050506040513d602081101561156a57600080fd5b81019080805190602001909291905050509050809250505092915050565b600160009054906101000a900473ffffffffffffffffffffffffffffffffffffffff1673ffffffffffffffffffffffffffffffffffffffff163373ffffffffffffffffffffffffffffffffffffffff161415156115e457600080fd5b33600160006101000a81548173ffffffffffffffffffffffffffffffffffffffff021916908373ffffffffffffffffffffffffffffffffffffffff16021790555060065460026000600160009054906101000a900473ffffffffffffffffffffffffffffffffffffffff1673ffffffffffffffffffffffffffffffffffffffff1673ffffffffffffffffffffffffffffffffffffffff16815260200190815260200160002081905550565b60075481565b6000600360008473ffffffffffffffffffffffffffffffffffffffff1673ffffffffffffffffffffffffffffffffffffffff16815260200190815260200160002060008373ffffffffffffffffffffffffffffffffffffffff1673ffffffffffffffffffffffffffffffffffffffff16815260200190815260200160002054905092915050565b6000806000600160009054906101000a900473ffffffffffffffffffffffffffffffffffffffff1673ffffffffffffffffffffffffffffffffffffffff163373ffffffffffffffffffffffffffffffffffffffff1614151561177d57600080fd5b8391508173ffffffffffffffffffffffffffffffffffffffff166370a08231306040518263ffffffff167c0100000000000000000000000000000000000000000000000000000000028152600401808273ffffffffffffffffffffffffffffffffffffffff1673ffffffffffffffffffffffffffffffffffffffff168152602001915050602060405180830381600087803b15801561181b57600080fd5b505af115801561182f573d6000803e3d6000fd5b505050506040513d602081101561184557600080fd5b810190808051906020019092919050505090508173ffffffffffffffffffffffffffffffffffffffff1663a9059cbb600160009054906101000a900473ffffffffffffffffffffffffffffffffffffffff16836040518363ffffffff167c0100000000000000000000000000000000000000000000000000000000028152600401808373ffffffffffffffffffffffffffffffffffffffff1673ffffffffffffffffffffffffffffffffffffffff16815260200182815260200192505050602060405180830381600087803b15801561191d57600080fd5b505af1158015611931573d6000803e3d6000fd5b505050506040513d602081101561194757600080fd5b810190808051906020019092919050505092505050919050565b60065481565b60046020528060005260406000206000915054906101000a900460ff1681565b6000600960009054906101000a900460ff161515156119a557600080fd5b6119ba82600654611b9590919063ffffffff16565b6006819055506119d582600754611b7c90919063ffffffff16565b600781905550611a2d82600260008673ffffffffffffffffffffffffffffffffffffffff1673ffffffffffffffffffffffffffffffffffffffff16815260200190815260200160002054611b9590919063ffffffff16565b600260008573ffffffffffffffffffffffffffffffffffffffff1673ffffffffffffffffffffffffffffffffffffffff168152602001908152602001600020819055508273ffffffffffffffffffffffffffffffffffffffff167f8940c4b8e215f8822c5c8f0056c12652c746cbc57eedbd2a440b175971d47a77836040518082815260200191505060405180910390a28273ffffffffffffffffffffffffffffffffffffffff16600073ffffffffffffffffffffffffffffffffffffffff167fddf252ad1be2c89b69c2b068fc378daa952ba7f163c4a11628f55a4df523b3ef846040518082815260200191505060405180910390a36001905092915050565b6000808284811515611b3c57fe5b0490508091505092915050565b60008082840290506000841480611b6a5750828482811515611b6757fe5b04145b1515611b7257fe5b8091505092915050565b6000828211151515611b8a57fe5b818303905092915050565b6000808284019050838110151515611ba957fe5b80915050929150505600a165627a7a72305820eac5e272da459875b76bdf98458ca0ac256f17e09f0e8ff96d6359f4d05af10f0029",
					"opcodes": "PUSH1 0x80 PUSH1 0x40 MSTORE CALLER PUSH1 0x1 PUSH1 0x0 PUSH2 0x100 EXP DUP2 SLOAD DUP2 PUSH20 0xFFFFFFFFFFFFFFFFFFFFFFFFFFFFFFFFFFFFFFFF MUL NOT AND SWAP1 DUP4 PUSH20 0xFFFFFFFFFFFFFFFFFFFFFFFFFFFFFFFFFFFFFFFF AND MUL OR SWAP1 SSTORE POP PUSH13 0x1431E0FAE6D7217CAA0000000 PUSH1 0x5 SSTORE PUSH12 0x60EF6B1ABA6F072330000000 PUSH1 0x6 SSTORE PUSH2 0x8A PUSH1 0x6 SLOAD PUSH1 0x5 SLOAD PUSH2 0xC8 PUSH5 0x100000000 MUL PUSH2 0x1B7C OR SWAP1 SWAP2 SWAP1 PUSH5 0x100000000 SWAP1 DIV JUMP JUMPDEST PUSH1 0x7 SSTORE PUSH10 0x69E10DE76676D0800000 PUSH1 0x8 SSTORE PUSH1 0x0 PUSH1 0x9 PUSH1 0x0 PUSH2 0x100 EXP DUP2 SLOAD DUP2 PUSH1 0xFF MUL NOT AND SWAP1 DUP4 ISZERO ISZERO MUL OR SWAP1 SSTORE POP CALLVALUE DUP1 ISZERO PUSH2 0xC2 JUMPI PUSH1 0x0 DUP1 REVERT JUMPDEST POP PUSH2 0xE1 JUMP JUMPDEST PUSH1 0x0 DUP3 DUP3 GT ISZERO ISZERO ISZERO PUSH2 0xD6 JUMPI INVALID JUMPDEST DUP2 DUP4 SUB SWAP1 POP SWAP3 SWAP2 POP POP JUMP JUMPDEST PUSH2 0x1BDF DUP1 PUSH2 0xF0 PUSH1 0x0 CODECOPY PUSH1 0x0 RETURN STOP PUSH1 0x80 PUSH1 0x40 MSTORE PUSH1 0x4 CALLDATASIZE LT PUSH2 0x11D JUMPI PUSH1 0x0 CALLDATALOAD PUSH29 0x100000000000000000000000000000000000000000000000000000000 SWAP1 DIV PUSH4 0xFFFFFFFF AND DUP1 PUSH4 0x6FDDE03 EQ PUSH2 0x127 JUMPI DUP1 PUSH4 0x95EA7B3 EQ PUSH2 0x1B7 JUMPI DUP1 PUSH4 0x18160DDD EQ PUSH2 0x21C JUMPI DUP1 PUSH4 0x23B872DD EQ PUSH2 0x247 JUMPI DUP1 PUSH4 0x313CE567 EQ PUSH2 0x2CC JUMPI DUP1 PUSH4 0x3CCFD60B EQ PUSH2 0x2F7 JUMPI DUP1 PUSH4 0x3FA4F245 EQ PUSH2 0x30E JUMPI DUP1 PUSH4 0x42966C68 EQ PUSH2 0x339 JUMPI DUP1 PUSH4 0x70A08231 EQ PUSH2 0x366 JUMPI DUP1 PUSH4 0x95D89B41 EQ PUSH2 0x3BD JUMPI DUP1 PUSH4 0x9B1CBCCC EQ PUSH2 0x44D JUMPI DUP1 PUSH4 0xA9059CBB EQ PUSH2 0x47C JUMPI DUP1 PUSH4 0xAA6CA808 EQ PUSH2 0x4E1 JUMPI DUP1 PUSH4 0xC108D542 EQ PUSH2 0x4EB JUMPI DUP1 PUSH4 0xC489744B EQ PUSH2 0x51A JUMPI DUP1 PUSH4 0xC63E6171 EQ PUSH2 0x591 JUMPI DUP1 PUSH4 0xD8A54360 EQ PUSH2 0x5A8 JUMPI DUP1 PUSH4 0xDD62ED3E EQ PUSH2 0x5D3 JUMPI DUP1 PUSH4 0xE58FC54C EQ PUSH2 0x64A JUMPI DUP1 PUSH4 0xEFCA2EED EQ PUSH2 0x6A5 JUMPI DUP1 PUSH4 0xF9F92BE4 EQ PUSH2 0x6D0 JUMPI JUMPDEST PUSH2 0x125 PUSH2 0x72B JUMP JUMPDEST STOP JUMPDEST CALLVALUE DUP1 ISZERO PUSH2 0x133 JUMPI PUSH1 0x0 DUP1 REVERT JUMPDEST POP PUSH2 0x13C PUSH2 0x8A7 JUMP JUMPDEST PUSH1 0x40 MLOAD DUP1 DUP1 PUSH1 0x20 ADD DUP3 DUP2 SUB DUP3 MSTORE DUP4 DUP2 DUP2 MLOAD DUP2 MSTORE PUSH1 0x20 ADD SWAP2 POP DUP1 MLOAD SWAP1 PUSH1 0x20 ADD SWAP1 DUP1 DUP4 DUP4 PUSH1 0x0 JUMPDEST DUP4 DUP2 LT ISZERO PUSH2 0x17C JUMPI DUP1 DUP3 ADD MLOAD DUP2 DUP5 ADD MSTORE PUSH1 0x20 DUP2 ADD SWAP1 POP PUSH2 0x161 JUMP JUMPDEST POP POP POP POP SWAP1 POP SWAP1 DUP2 ADD SWAP1 PUSH1 0x1F AND DUP1 ISZERO PUSH2 0x1A9 JUMPI DUP1 DUP3 SUB DUP1 MLOAD PUSH1 0x1 DUP4 PUSH1 0x20 SUB PUSH2 0x100 EXP SUB NOT AND DUP2 MSTORE PUSH1 0x20 ADD SWAP2 POP JUMPDEST POP SWAP3 POP POP POP PUSH1 0x40 MLOAD DUP1 SWAP2 SUB SWAP1 RETURN JUMPDEST CALLVALUE DUP1 ISZERO PUSH2 0x1C3 JUMPI PUSH1 0x0 DUP1 REVERT JUMPDEST POP PUSH2 0x202 PUSH1 0x4 DUP1 CALLDATASIZE SUB DUP2 ADD SWAP1 DUP1 DUP1 CALLDATALOAD PUSH20 0xFFFFFFFFFFFFFFFFFFFFFFFFFFFFFFFFFFFFFFFF AND SWAP1 PUSH1 0x20 ADD SWAP1 SWAP3 SWAP2 SWAP1 DUP1 CALLDATALOAD SWAP1 PUSH1 0x20 ADD SWAP1 SWAP3 SWAP2 SWAP1 POP POP POP PUSH2 0x8E0 JUMP JUMPDEST PUSH1 0x40 MLOAD DUP1 DUP3 ISZERO ISZERO ISZERO ISZERO DUP2 MSTORE PUSH1 0x20 ADD SWAP2 POP POP PUSH1 0x40 MLOAD DUP1 SWAP2 SUB SWAP1 RETURN JUMPDEST CALLVALUE DUP1 ISZERO PUSH2 0x228 JUMPI PUSH1 0x0 DUP1 REVERT JUMPDEST POP PUSH2 0x231 PUSH2 0xA6E JUMP JUMPDEST PUSH1 0x40 MLOAD DUP1 DUP3 DUP2 MSTORE PUSH1 0x20 ADD SWAP2 POP POP PUSH1 0x40 MLOAD DUP1 SWAP2 SUB SWAP1 RETURN JUMPDEST CALLVALUE DUP1 ISZERO PUSH2 0x253 JUMPI PUSH1 0x0 DUP1 REVERT JUMPDEST POP PUSH2 0x2B2 PUSH1 0x4 DUP1 CALLDATASIZE SUB DUP2 ADD SWAP1 DUP1 DUP1 CALLDATALOAD PUSH20 0xFFFFFFFFFFFFFFFFFFFFFFFFFFFFFFFFFFFFFFFF AND SWAP1 PUSH1 0x20 ADD SWAP1 SWAP3 SWAP2 SWAP1 DUP1 CALLDATALOAD PUSH20 0xFFFFFFFFFFFFFFFFFFFFFFFFFFFFFFFFFFFFFFFF AND SWAP1 PUSH1 0x20 ADD SWAP1 SWAP3 SWAP2 SWAP1 DUP1 CALLDATALOAD SWAP1 PUSH1 0x20 ADD SWAP1 SWAP3 SWAP2 SWAP1 POP POP POP PUSH2 0xA74 JUMP JUMPDEST PUSH1 0x40 MLOAD DUP1 DUP3 ISZERO ISZERO ISZERO ISZERO DUP2 MSTORE PUSH1 0x20 ADD SWAP2 POP POP PUSH1 0x40 MLOAD DUP1 SWAP2 SUB SWAP1 RETURN JUMPDEST CALLVALUE DUP1 ISZERO PUSH2 0x2D8 JUMPI PUSH1 0x0 DUP1 REVERT JUMPDEST POP PUSH2 0x2E1 PUSH2 0xE4A JUMP JUMPDEST PUSH1 0x40 MLOAD DUP1 DUP3 DUP2 MSTORE PUSH1 0x20 ADD SWAP2 POP POP PUSH1 0x40 MLOAD DUP1 SWAP2 SUB SWAP1 RETURN JUMPDEST CALLVALUE DUP1 ISZERO PUSH2 0x303 JUMPI PUSH1 0x0 DUP1 REVERT JUMPDEST POP PUSH2 0x30C PUSH2 0xE4F JUMP JUMPDEST STOP JUMPDEST CALLVALUE DUP1 ISZERO PUSH2 0x31A JUMPI PUSH1 0x0 DUP1 REVERT JUMPDEST POP PUSH2 0x323 PUSH2 0xF33 JUMP JUMPDEST PUSH1 0x40 MLOAD DUP1 DUP3 DUP2 MSTORE PUSH1 0x20 ADD SWAP2 POP POP PUSH1 0x40 MLOAD DUP1 SWAP2 SUB SWAP1 RETURN JUMPDEST CALLVALUE DUP1 ISZERO PUSH2 0x345 JUMPI PUSH1 0x0 DUP1 REVERT JUMPDEST POP PUSH2 0x364 PUSH1 0x4 DUP1 CALLDATASIZE SUB DUP2 ADD SWAP1 DUP1 DUP1 CALLDATALOAD SWAP1 PUSH1 0x20 ADD SWAP1 SWAP3 SWAP2 SWAP1 POP POP POP PUSH2 0xF39 JUMP JUMPDEST STOP JUMPDEST CALLVALUE DUP1 ISZERO PUSH2 0x372 JUMPI PUSH1 0x0 DUP1 REVERT JUMPDEST POP PUSH2 0x3A7 PUSH1 0x4 DUP1 CALLDATASIZE SUB DUP2 ADD SWAP1 DUP1 DUP1 CALLDATALOAD PUSH20 0xFFFFFFFFFFFFFFFFFFFFFFFFFFFFFFFFFFFFFFFF AND SWAP1 PUSH1 0x20 ADD SWAP1 SWAP3 SWAP2 SWAP1 POP POP POP PUSH2 0x1105 JUMP JUMPDEST PUSH1 0x40 MLOAD DUP1 DUP3 DUP2 MSTORE PUSH1 0x20 ADD SWAP2 POP POP PUSH1 0x40 MLOAD DUP1 SWAP2 SUB SWAP1 RETURN JUMPDEST CALLVALUE DUP1 ISZERO PUSH2 0x3C9 JUMPI PUSH1 0x0 DUP1 REVERT JUMPDEST POP PUSH2 0x3D2 PUSH2 0x114E JUMP JUMPDEST PUSH1 0x40 MLOAD DUP1 DUP1 PUSH1 0x20 ADD DUP3 DUP2 SUB DUP3 MSTORE DUP4 DUP2 DUP2 MLOAD DUP2 MSTORE PUSH1 0x20 ADD SWAP2 POP DUP1 MLOAD SWAP1 PUSH1 0x20 ADD SWAP1 DUP1 DUP4 DUP4 PUSH1 0x0 JUMPDEST DUP4 DUP2 LT ISZERO PUSH2 0x412 JUMPI DUP1 DUP3 ADD MLOAD DUP2 DUP5 ADD MSTORE PUSH1 0x20 DUP2 ADD SWAP1 POP PUSH2 0x3F7 JUMP JUMPDEST POP POP POP POP SWAP1 POP SWAP1 DUP2 ADD SWAP1 PUSH1 0x1F AND DUP1 ISZERO PUSH2 0x43F JUMPI DUP1 DUP3 SUB DUP1 MLOAD PUSH1 0x1 DUP4 PUSH1 0x20 SUB PUSH2 0x100 EXP SUB NOT AND DUP2 MSTORE PUSH1 0x20 ADD SWAP2 POP JUMPDEST POP SWAP3 POP POP POP PUSH1 0x40 MLOAD DUP1 SWAP2 SUB SWAP1 RETURN JUMPDEST CALLVALUE DUP1 ISZERO PUSH2 0x459 JUMPI PUSH1 0x0 DUP1 REVERT JUMPDEST POP PUSH2 0x462 PUSH2 0x1187 JUMP JUMPDEST PUSH1 0x40 MLOAD DUP1 DUP3 ISZERO ISZERO ISZERO ISZERO DUP2 MSTORE PUSH1 0x20 ADD SWAP2 POP POP PUSH1 0x40 MLOAD DUP1 SWAP2 SUB SWAP1 RETURN JUMPDEST CALLVALUE DUP1 ISZERO PUSH2 0x488 JUMPI PUSH1 0x0 DUP1 REVERT JUMPDEST POP PUSH2 0x4C7 PUSH1 0x4 DUP1 CALLDATASIZE SUB DUP2 ADD SWAP1 DUP1 DUP1 CALLDATALOAD PUSH20 0xFFFFFFFFFFFFFFFFFFFFFFFFFFFFFFFFFFFFFFFF AND SWAP1 PUSH1 0x20 ADD SWAP1 SWAP3 SWAP2 SWAP1 DUP1 CALLDATALOAD SWAP1 PUSH1 0x20 ADD SWAP1 SWAP3 SWAP2 SWAP1 POP POP POP PUSH2 0x124F JUMP JUMPDEST PUSH1 0x40 MLOAD DUP1 DUP3 ISZERO ISZERO ISZERO ISZERO DUP2 MSTORE PUSH1 0x20 ADD SWAP2 POP POP PUSH1 0x40 MLOAD DUP1 SWAP2 SUB SWAP1 RETURN JUMPDEST PUSH2 0x4E9 PUSH2 0x72B JUMP JUMPDEST STOP JUMPDEST CALLVALUE DUP1 ISZERO PUSH2 0x4F7 JUMPI PUSH1 0x0 DUP1 REVERT JUMPDEST POP PUSH2 0x500 PUSH2 0x148A JUMP JUMPDEST PUSH1 0x40 MLOAD DUP1 DUP3 ISZERO ISZERO ISZERO ISZERO DUP2 MSTORE PUSH1 0x20 ADD SWAP2 POP POP PUSH1 0x40 MLOAD DUP1 SWAP2 SUB SWAP1 RETURN JUMPDEST CALLVALUE DUP1 ISZERO PUSH2 0x526 JUMPI PUSH1 0x0 DUP1 REVERT JUMPDEST POP PUSH2 0x57B PUSH1 0x4 DUP1 CALLDATASIZE SUB DUP2 ADD SWAP1 DUP1 DUP1 CALLDATALOAD PUSH20 0xFFFFFFFFFFFFFFFFFFFFFFFFFFFFFFFFFFFFFFFF AND SWAP1 PUSH1 0x20 ADD SWAP1 SWAP3 SWAP2 SWAP1 DUP1 CALLDATALOAD PUSH20 0xFFFFFFFFFFFFFFFFFFFFFFFFFFFFFFFFFFFFFFFF AND SWAP1 PUSH1 0x20 ADD SWAP1 SWAP3 SWAP2 SWAP1 POP POP POP PUSH2 0x149D JUMP JUMPDEST PUSH1 0x40 MLOAD DUP1 DUP3 DUP2 MSTORE PUSH1 0x20 ADD SWAP2 POP POP PUSH1 0x40 MLOAD DUP1 SWAP2 SUB SWAP1 RETURN JUMPDEST CALLVALUE DUP1 ISZERO PUSH2 0x59D JUMPI PUSH1 0x0 DUP1 REVERT JUMPDEST POP PUSH2 0x5A6 PUSH2 0x1588 JUMP JUMPDEST STOP JUMPDEST CALLVALUE DUP1 ISZERO PUSH2 0x5B4 JUMPI PUSH1 0x0 DUP1 REVERT JUMPDEST POP PUSH2 0x5BD PUSH2 0x168F JUMP JUMPDEST PUSH1 0x40 MLOAD DUP1 DUP3 DUP2 MSTORE PUSH1 0x20 ADD SWAP2 POP POP PUSH1 0x40 MLOAD DUP1 SWAP2 SUB SWAP1 RETURN JUMPDEST CALLVALUE DUP1 ISZERO PUSH2 0x5DF JUMPI PUSH1 0x0 DUP1 REVERT JUMPDEST POP PUSH2 0x634 PUSH1 0x4 DUP1 CALLDATASIZE SUB DUP2 ADD SWAP1 DUP1 DUP1 CALLDATALOAD PUSH20 0xFFFFFFFFFFFFFFFFFFFFFFFFFFFFFFFFFFFFFFFF AND SWAP1 PUSH1 0x20 ADD SWAP1 SWAP3 SWAP2 SWAP1 DUP1 CALLDATALOAD PUSH20 0xFFFFFFFFFFFFFFFFFFFFFFFFFFFFFFFFFFFFFFFF AND SWAP1 PUSH1 0x20 ADD SWAP1 SWAP3 SWAP2 SWAP1 POP POP POP PUSH2 0x1695 JUMP JUMPDEST PUSH1 0x40 MLOAD DUP1 DUP3 DUP2 MSTORE PUSH1 0x20 ADD SWAP2 POP POP PUSH1 0x40 MLOAD DUP1 SWAP2 SUB SWAP1 RETURN JUMPDEST CALLVALUE DUP1 ISZERO PUSH2 0x656 JUMPI PUSH1 0x0 DUP1 REVERT JUMPDEST POP PUSH2 0x68B PUSH1 0x4 DUP1 CALLDATASIZE SUB DUP2 ADD SWAP1 DUP1 DUP1 CALLDATALOAD PUSH20 0xFFFFFFFFFFFFFFFFFFFFFFFFFFFFFFFFFFFFFFFF AND SWAP1 PUSH1 0x20 ADD SWAP1 SWAP3 SWAP2 SWAP1 POP POP POP PUSH2 0x171C JUMP JUMPDEST PUSH1 0x40 MLOAD DUP1 DUP3 ISZERO ISZERO ISZERO ISZERO DUP2 MSTORE PUSH1 0x20 ADD SWAP2 POP POP PUSH1 0x40 MLOAD DUP1 SWAP2 SUB SWAP1 RETURN JUMPDEST CALLVALUE DUP1 ISZERO PUSH2 0x6B1 JUMPI PUSH1 0x0 DUP1 REVERT JUMPDEST POP PUSH2 0x6BA PUSH2 0x1961 JUMP JUMPDEST PUSH1 0x40 MLOAD DUP1 DUP3 DUP2 MSTORE PUSH1 0x20 ADD SWAP2 POP POP PUSH1 0x40 MLOAD DUP1 SWAP2 SUB SWAP1 RETURN JUMPDEST CALLVALUE DUP1 ISZERO PUSH2 0x6DC JUMPI PUSH1 0x0 DUP1 REVERT JUMPDEST POP PUSH2 0x711 PUSH1 0x4 DUP1 CALLDATASIZE SUB DUP2 ADD SWAP1 DUP1 DUP1 CALLDATALOAD PUSH20 0xFFFFFFFFFFFFFFFFFFFFFFFFFFFFFFFFFFFFFFFF AND SWAP1 PUSH1 0x20 ADD SWAP1 SWAP3 SWAP2 SWAP1 POP POP POP PUSH2 0x1967 JUMP JUMPDEST PUSH1 0x40 MLOAD DUP1 DUP3 ISZERO ISZERO ISZERO ISZERO DUP2 MSTORE PUSH1 0x20 ADD SWAP2 POP POP PUSH1 0x40 MLOAD DUP1 SWAP2 SUB SWAP1 RETURN JUMPDEST PUSH1 0x0 DUP1 PUSH1 0x9 PUSH1 0x0 SWAP1 SLOAD SWAP1 PUSH2 0x100 EXP SWAP1 DIV PUSH1 0xFF AND ISZERO ISZERO ISZERO PUSH2 0x74A JUMPI PUSH1 0x0 DUP1 REVERT JUMPDEST PUSH1 0x0 ISZERO ISZERO PUSH1 0x4 PUSH1 0x0 CALLER PUSH20 0xFFFFFFFFFFFFFFFFFFFFFFFFFFFFFFFFFFFFFFFF AND PUSH20 0xFFFFFFFFFFFFFFFFFFFFFFFFFFFFFFFFFFFFFFFF AND DUP2 MSTORE PUSH1 0x20 ADD SWAP1 DUP2 MSTORE PUSH1 0x20 ADD PUSH1 0x0 KECCAK256 PUSH1 0x0 SWAP1 SLOAD SWAP1 PUSH2 0x100 EXP SWAP1 DIV PUSH1 0xFF AND ISZERO ISZERO EQ ISZERO ISZERO PUSH2 0x7A9 JUMPI PUSH1 0x0 DUP1 REVERT JUMPDEST PUSH1 0x7 SLOAD PUSH1 0x8 SLOAD GT ISZERO PUSH2 0x7BF JUMPI PUSH1 0x7 SLOAD PUSH1 0x8 DUP2 SWAP1 SSTORE POP JUMPDEST PUSH1 0x7 SLOAD PUSH1 0x8 SLOAD GT ISZERO ISZERO ISZERO PUSH2 0x7D2 JUMPI PUSH1 0x0 DUP1 REVERT JUMPDEST CALLER SWAP2 POP PUSH1 0x8 SLOAD SWAP1 POP PUSH2 0x7E4 DUP3 DUP3 PUSH2 0x1987 JUMP JUMPDEST POP PUSH1 0x0 DUP2 GT ISZERO PUSH2 0x847 JUMPI PUSH1 0x1 PUSH1 0x4 PUSH1 0x0 DUP5 PUSH20 0xFFFFFFFFFFFFFFFFFFFFFFFFFFFFFFFFFFFFFFFF AND PUSH20 0xFFFFFFFFFFFFFFFFFFFFFFFFFFFFFFFFFFFFFFFF AND DUP2 MSTORE PUSH1 0x20 ADD SWAP1 DUP2 MSTORE PUSH1 0x20 ADD PUSH1 0x0 KECCAK256 PUSH1 0x0 PUSH2 0x100 EXP DUP2 SLOAD DUP2 PUSH1 0xFF MUL NOT AND SWAP1 DUP4 ISZERO ISZERO MUL OR SWAP1 SSTORE POP JUMPDEST PUSH1 0x5 SLOAD PUSH1 0x6 SLOAD LT ISZERO ISZERO PUSH2 0x870 JUMPI PUSH1 0x1 PUSH1 0x9 PUSH1 0x0 PUSH2 0x100 EXP DUP2 SLOAD DUP2 PUSH1 0xFF MUL NOT AND SWAP1 DUP4 ISZERO ISZERO MUL OR SWAP1 SSTORE POP JUMPDEST PUSH2 0x89D PUSH3 0x7A11F PUSH2 0x88F PUSH3 0x7A120 PUSH1 0x8 SLOAD PUSH2 0x1B2E SWAP1 SWAP2 SWAP1 PUSH4 0xFFFFFFFF AND JUMP JUMPDEST PUSH2 0x1B49 SWAP1 SWAP2 SWAP1 PUSH4 0xFFFFFFFF AND JUMP JUMPDEST PUSH1 0x8 DUP2 SWAP1 SSTORE POP POP POP JUMP JUMPDEST PUSH1 0x40 DUP1 MLOAD SWAP1 DUP2 ADD PUSH1 0x40 MSTORE DUP1 PUSH1 0xB DUP2 MSTORE PUSH1 0x20 ADD PUSH32 0x4B6167692043727970746F000000000000000000000000000000000000000000 DUP2 MSTORE POP DUP2 JUMP JUMPDEST PUSH1 0x0 DUP1 DUP3 EQ ISZERO DUP1 ISZERO PUSH2 0x96F JUMPI POP PUSH1 0x0 PUSH1 0x3 PUSH1 0x0 CALLER PUSH20 0xFFFFFFFFFFFFFFFFFFFFFFFFFFFFFFFFFFFFFFFF AND PUSH20 0xFFFFFFFFFFFFFFFFFFFFFFFFFFFFFFFFFFFFFFFF AND DUP2 MSTORE PUSH1 0x20 ADD SWAP1 DUP2 MSTORE PUSH1 0x20 ADD PUSH1 0x0 KECCAK256 PUSH1 0x0 DUP6 PUSH20 0xFFFFFFFFFFFFFFFFFFFFFFFFFFFFFFFFFFFFFFFF AND PUSH20 0xFFFFFFFFFFFFFFFFFFFFFFFFFFFFFFFFFFFFFFFF AND DUP2 MSTORE PUSH1 0x20 ADD SWAP1 DUP2 MSTORE PUSH1 0x20 ADD PUSH1 0x0 KECCAK256 SLOAD EQ ISZERO JUMPDEST ISZERO PUSH2 0x97D JUMPI PUSH1 0x0 SWAP1 POP PUSH2 0xA68 JUMP JUMPDEST DUP2 PUSH1 0x3 PUSH1 0x0 CALLER PUSH20 0xFFFFFFFFFFFFFFFFFFFFFFFFFFFFFFFFFFFFFFFF AND PUSH20 0xFFFFFFFFFFFFFFFFFFFFFFFFFFFFFFFFFFFFFFFF AND DUP2 MSTORE PUSH1 0x20 ADD SWAP1 DUP2 MSTORE PUSH1 0x20 ADD PUSH1 0x0 KECCAK256 PUSH1 0x0 DUP6 PUSH20 0xFFFFFFFFFFFFFFFFFFFFFFFFFFFFFFFFFFFFFFFF AND PUSH20 0xFFFFFFFFFFFFFFFFFFFFFFFFFFFFFFFFFFFFFFFF AND DUP2 MSTORE PUSH1 0x20 ADD SWAP1 DUP2 MSTORE PUSH1 0x20 ADD PUSH1 0x0 KECCAK256 DUP2 SWAP1 SSTORE POP DUP3 PUSH20 0xFFFFFFFFFFFFFFFFFFFFFFFFFFFFFFFFFFFFFFFF AND CALLER PUSH20 0xFFFFFFFFFFFFFFFFFFFFFFFFFFFFFFFFFFFFFFFF AND PUSH32 0x8C5BE1E5EBEC7D5BD14F71427D1E84F3DD0314C0F7B2291E5B200AC8C7C3B925 DUP5 PUSH1 0x40 MLOAD DUP1 DUP3 DUP2 MSTORE PUSH1 0x20 ADD SWAP2 POP POP PUSH1 0x40 MLOAD DUP1 SWAP2 SUB SWAP1 LOG3 PUSH1 0x1 SWAP1 POP JUMPDEST SWAP3 SWAP2 POP POP JUMP JUMPDEST PUSH1 0x5 SLOAD DUP2 JUMP JUMPDEST PUSH1 0x0 PUSH1 0x60 PUSH1 0x4 DUP2 ADD PUSH1 0x0 CALLDATASIZE SWAP1 POP LT ISZERO ISZERO ISZERO PUSH2 0xA8B JUMPI INVALID JUMPDEST PUSH1 0x0 PUSH20 0xFFFFFFFFFFFFFFFFFFFFFFFFFFFFFFFFFFFFFFFF AND DUP5 PUSH20 0xFFFFFFFFFFFFFFFFFFFFFFFFFFFFFFFFFFFFFFFF AND EQ ISZERO ISZERO ISZERO PUSH2 0xAC7 JUMPI PUSH1 0x0 DUP1 REVERT JUMPDEST PUSH1 0x2 PUSH1 0x0 DUP7 PUSH20 0xFFFFFFFFFFFFFFFFFFFFFFFFFFFFFFFFFFFFFFFF AND PUSH20 0xFFFFFFFFFFFFFFFFFFFFFFFFFFFFFFFFFFFFFFFF AND DUP2 MSTORE PUSH1 0x20 ADD SWAP1 DUP2 MSTORE PUSH1 0x20 ADD PUSH1 0x0 KECCAK256 SLOAD DUP4 GT ISZERO ISZERO ISZERO PUSH2 0xB15 JUMPI PUSH1 0x0 DUP1 REVERT JUMPDEST PUSH1 0x3 PUSH1 0x0 DUP7 PUSH20 0xFFFFFFFFFFFFFFFFFFFFFFFFFFFFFFFFFFFFFFFF AND PUSH20 0xFFFFFFFFFFFFFFFFFFFFFFFFFFFFFFFFFFFFFFFF AND DUP2 MSTORE PUSH1 0x20 ADD SWAP1 DUP2 MSTORE PUSH1 0x20 ADD PUSH1 0x0 KECCAK256 PUSH1 0x0 CALLER PUSH20 0xFFFFFFFFFFFFFFFFFFFFFFFFFFFFFFFFFFFFFFFF AND PUSH20 0xFFFFFFFFFFFFFFFFFFFFFFFFFFFFFFFFFFFFFFFF AND DUP2 MSTORE PUSH1 0x20 ADD SWAP1 DUP2 MSTORE PUSH1 0x20 ADD PUSH1 0x0 KECCAK256 SLOAD DUP4 GT ISZERO ISZERO ISZERO PUSH2 0xBA0 JUMPI PUSH1 0x0 DUP1 REVERT JUMPDEST PUSH2 0xBF2 DUP4 PUSH1 0x2 PUSH1 0x0 DUP9 PUSH20 0xFFFFFFFFFFFFFFFFFFFFFFFFFFFFFFFFFFFFFFFF AND PUSH20 0xFFFFFFFFFFFFFFFFFFFFFFFFFFFFFFFFFFFFFFFF AND DUP2 MSTORE PUSH1 0x20 ADD SWAP1 DUP2 MSTORE PUSH1 0x20 ADD PUSH1 0x0 KECCAK256 SLOAD PUSH2 0x1B7C SWAP1 SWAP2 SWAP1 PUSH4 0xFFFFFFFF AND JUMP JUMPDEST PUSH1 0x2 PUSH1 0x0 DUP8 PUSH20 0xFFFFFFFFFFFFFFFFFFFFFFFFFFFFFFFFFFFFFFFF AND PUSH20 0xFFFFFFFFFFFFFFFFFFFFFFFFFFFFFFFFFFFFFFFF AND DUP2 MSTORE PUSH1 0x20 ADD SWAP1 DUP2 MSTORE PUSH1 0x20 ADD PUSH1 0x0 KECCAK256 DUP2 SWAP1 SSTORE POP PUSH2 0xCC4 DUP4 PUSH1 0x3 PUSH1 0x0 DUP9 PUSH20 0xFFFFFFFFFFFFFFFFFFFFFFFFFFFFFFFFFFFFFFFF AND PUSH20 0xFFFFFFFFFFFFFFFFFFFFFFFFFFFFFFFFFFFFFFFF AND DUP2 MSTORE PUSH1 0x20 ADD SWAP1 DUP2 MSTORE PUSH1 0x20 ADD PUSH1 0x0 KECCAK256 PUSH1 0x0 CALLER PUSH20 0xFFFFFFFFFFFFFFFFFFFFFFFFFFFFFFFFFFFFFFFF AND PUSH20 0xFFFFFFFFFFFFFFFFFFFFFFFFFFFFFFFFFFFFFFFF AND DUP2 MSTORE PUSH1 0x20 ADD SWAP1 DUP2 MSTORE PUSH1 0x20 ADD PUSH1 0x0 KECCAK256 SLOAD PUSH2 0x1B7C SWAP1 SWAP2 SWAP1 PUSH4 0xFFFFFFFF AND JUMP JUMPDEST PUSH1 0x3 PUSH1 0x0 DUP8 PUSH20 0xFFFFFFFFFFFFFFFFFFFFFFFFFFFFFFFFFFFFFFFF AND PUSH20 0xFFFFFFFFFFFFFFFFFFFFFFFFFFFFFFFFFFFFFFFF AND DUP2 MSTORE PUSH1 0x20 ADD SWAP1 DUP2 MSTORE PUSH1 0x20 ADD PUSH1 0x0 KECCAK256 PUSH1 0x0 CALLER PUSH20 0xFFFFFFFFFFFFFFFFFFFFFFFFFFFFFFFFFFFFFFFF AND PUSH20 0xFFFFFFFFFFFFFFFFFFFFFFFFFFFFFFFFFFFFFFFF AND DUP2 MSTORE PUSH1 0x20 ADD SWAP1 DUP2 MSTORE PUSH1 0x20 ADD PUSH1 0x0 KECCAK256 DUP2 SWAP1 SSTORE POP PUSH2 0xD96 DUP4 PUSH1 0x2 PUSH1 0x0 DUP8 PUSH20 0xFFFFFFFFFFFFFFFFFFFFFFFFFFFFFFFFFFFFFFFF AND PUSH20 0xFFFFFFFFFFFFFFFFFFFFFFFFFFFFFFFFFFFFFFFF AND DUP2 MSTORE PUSH1 0x20 ADD SWAP1 DUP2 MSTORE PUSH1 0x20 ADD PUSH1 0x0 KECCAK256 SLOAD PUSH2 0x1B95 SWAP1 SWAP2 SWAP1 PUSH4 0xFFFFFFFF AND JUMP JUMPDEST PUSH1 0x2 PUSH1 0x0 DUP7 PUSH20 0xFFFFFFFFFFFFFFFFFFFFFFFFFFFFFFFFFFFFFFFF AND PUSH20 0xFFFFFFFFFFFFFFFFFFFFFFFFFFFFFFFFFFFFFFFF AND DUP2 MSTORE PUSH1 0x20 ADD SWAP1 DUP2 MSTORE PUSH1 0x20 ADD PUSH1 0x0 KECCAK256 DUP2 SWAP1 SSTORE POP DUP4 PUSH20 0xFFFFFFFFFFFFFFFFFFFFFFFFFFFFFFFFFFFFFFFF AND DUP6 PUSH20 0xFFFFFFFFFFFFFFFFFFFFFFFFFFFFFFFFFFFFFFFF AND PUSH32 0xDDF252AD1BE2C89B69C2B068FC378DAA952BA7F163C4A11628F55A4DF523B3EF DUP6 PUSH1 0x40 MLOAD DUP1 DUP3 DUP2 MSTORE PUSH1 0x20 ADD SWAP2 POP POP PUSH1 0x40 MLOAD DUP1 SWAP2 SUB SWAP1 LOG3 PUSH1 0x1 SWAP2 POP POP SWAP4 SWAP3 POP POP POP JUMP JUMPDEST PUSH1 0x12 DUP2 JUMP JUMPDEST PUSH1 0x0 PUSH1 0x1 PUSH1 0x0 SWAP1 SLOAD SWAP1 PUSH2 0x100 EXP SWAP1 DIV PUSH20 0xFFFFFFFFFFFFFFFFFFFFFFFFFFFFFFFFFFFFFFFF AND PUSH20 0xFFFFFFFFFFFFFFFFFFFFFFFFFFFFFFFFFFFFFFFF AND CALLER PUSH20 0xFFFFFFFFFFFFFFFFFFFFFFFFFFFFFFFFFFFFFFFF AND EQ ISZERO ISZERO PUSH2 0xEAD JUMPI PUSH1 0x0 DUP1 REVERT JUMPDEST ADDRESS PUSH20 0xFFFFFFFFFFFFFFFFFFFFFFFFFFFFFFFFFFFFFFFF AND BALANCE SWAP1 POP PUSH1 0x1 PUSH1 0x0 SWAP1 SLOAD SWAP1 PUSH2 0x100 EXP SWAP1 DIV PUSH20 0xFFFFFFFFFFFFFFFFFFFFFFFFFFFFFFFFFFFFFFFF AND PUSH20 0xFFFFFFFFFFFFFFFFFFFFFFFFFFFFFFFFFFFFFFFF AND PUSH2 0x8FC DUP3 SWAP1 DUP2 ISZERO MUL SWAP1 PUSH1 0x40 MLOAD PUSH1 0x0 PUSH1 0x40 MLOAD DUP1 DUP4 SUB DUP2 DUP6 DUP9 DUP9 CALL SWAP4 POP POP POP POP ISZERO DUP1 ISZERO PUSH2 0xF2F JUMPI RETURNDATASIZE PUSH1 0x0 DUP1 RETURNDATACOPY RETURNDATASIZE PUSH1 0x0 REVERT JUMPDEST POP POP JUMP JUMPDEST PUSH1 0x8 SLOAD DUP2 JUMP JUMPDEST PUSH1 0x0 PUSH1 0x1 PUSH1 0x0 SWAP1 SLOAD SWAP1 PUSH2 0x100 EXP SWAP1 DIV PUSH20 0xFFFFFFFFFFFFFFFFFFFFFFFFFFFFFFFFFFFFFFFF AND PUSH20 0xFFFFFFFFFFFFFFFFFFFFFFFFFFFFFFFFFFFFFFFF AND CALLER PUSH20 0xFFFFFFFFFFFFFFFFFFFFFFFFFFFFFFFFFFFFFFFF AND EQ ISZERO ISZERO PUSH2 0xF97 JUMPI PUSH1 0x0 DUP1 REVERT JUMPDEST PUSH1 0x2 PUSH1 0x0 CALLER PUSH20 0xFFFFFFFFFFFFFFFFFFFFFFFFFFFFFFFFFFFFFFFF AND PUSH20 0xFFFFFFFFFFFFFFFFFFFFFFFFFFFFFFFFFFFFFFFF AND DUP2 MSTORE PUSH1 0x20 ADD SWAP1 DUP2 MSTORE PUSH1 0x20 ADD PUSH1 0x0 KECCAK256 SLOAD DUP3 GT ISZERO ISZERO ISZERO PUSH2 0xFE5 JUMPI PUSH1 0x0 DUP1 REVERT JUMPDEST CALLER SWAP1 POP PUSH2 0x103A DUP3 PUSH1 0x2 PUSH1 0x0 DUP5 PUSH20 0xFFFFFFFFFFFFFFFFFFFFFFFFFFFFFFFFFFFFFFFF AND PUSH20 0xFFFFFFFFFFFFFFFFFFFFFFFFFFFFFFFFFFFFFFFF AND DUP2 MSTORE PUSH1 0x20 ADD SWAP1 DUP2 MSTORE PUSH1 0x20 ADD PUSH1 0x0 KECCAK256 SLOAD PUSH2 0x1B7C SWAP1 SWAP2 SWAP1 PUSH4 0xFFFFFFFF AND JUMP JUMPDEST PUSH1 0x2 PUSH1 0x0 DUP4 PUSH20 0xFFFFFFFFFFFFFFFFFFFFFFFFFFFFFFFFFFFFFFFF AND PUSH20 0xFFFFFFFFFFFFFFFFFFFFFFFFFFFFFFFFFFFFFFFF AND DUP2 MSTORE PUSH1 0x20 ADD SWAP1 DUP2 MSTORE PUSH1 0x20 ADD PUSH1 0x0 KECCAK256 DUP2 SWAP1 SSTORE POP PUSH2 0x1092 DUP3 PUSH1 0x5 SLOAD PUSH2 0x1B7C SWAP1 SWAP2 SWAP1 PUSH4 0xFFFFFFFF AND JUMP JUMPDEST PUSH1 0x5 DUP2 SWAP1 SSTORE POP PUSH2 0x10AD DUP3 PUSH1 0x6 SLOAD PUSH2 0x1B7C SWAP1 SWAP2 SWAP1 PUSH4 0xFFFFFFFF AND JUMP JUMPDEST PUSH1 0x6 DUP2 SWAP1 SSTORE POP DUP1 PUSH20 0xFFFFFFFFFFFFFFFFFFFFFFFFFFFFFFFFFFFFFFFF AND PUSH32 0xCC16F5DBB4873280815C1EE09DBD06736CFFCC184412CF7A71A0FDB75D397CA5 DUP4 PUSH1 0x40 MLOAD DUP1 DUP3 DUP2 MSTORE PUSH1 0x20 ADD SWAP2 POP POP PUSH1 0x40 MLOAD DUP1 SWAP2 SUB SWAP1 LOG2 POP POP JUMP JUMPDEST PUSH1 0x0 PUSH1 0x2 PUSH1 0x0 DUP4 PUSH20 0xFFFFFFFFFFFFFFFFFFFFFFFFFFFFFFFFFFFFFFFF AND PUSH20 0xFFFFFFFFFFFFFFFFFFFFFFFFFFFFFFFFFFFFFFFF AND DUP2 MSTORE PUSH1 0x20 ADD SWAP1 DUP2 MSTORE PUSH1 0x20 ADD PUSH1 0x0 KECCAK256 SLOAD SWAP1 POP SWAP2 SWAP1 POP JUMP JUMPDEST PUSH1 0x40 DUP1 MLOAD SWAP1 DUP2 ADD PUSH1 0x40 MSTORE DUP1 PUSH1 0x3 DUP2 MSTORE PUSH1 0x20 ADD PUSH32 0x4B47430000000000000000000000000000000000000000000000000000000000 DUP2 MSTORE POP DUP2 JUMP JUMPDEST PUSH1 0x0 PUSH1 0x1 PUSH1 0x0 SWAP1 SLOAD SWAP1 PUSH2 0x100 EXP SWAP1 DIV PUSH20 0xFFFFFFFFFFFFFFFFFFFFFFFFFFFFFFFFFFFFFFFF AND PUSH20 0xFFFFFFFFFFFFFFFFFFFFFFFFFFFFFFFFFFFFFFFF AND CALLER PUSH20 0xFFFFFFFFFFFFFFFFFFFFFFFFFFFFFFFFFFFFFFFF AND EQ ISZERO ISZERO PUSH2 0x11E5 JUMPI PUSH1 0x0 DUP1 REVERT JUMPDEST PUSH1 0x9 PUSH1 0x0 SWAP1 SLOAD SWAP1 PUSH2 0x100 EXP SWAP1 DIV PUSH1 0xFF AND ISZERO ISZERO ISZERO PUSH2 0x1201 JUMPI PUSH1 0x0 DUP1 REVERT JUMPDEST PUSH1 0x1 PUSH1 0x9 PUSH1 0x0 PUSH2 0x100 EXP DUP2 SLOAD DUP2 PUSH1 0xFF MUL NOT AND SWAP1 DUP4 ISZERO ISZERO MUL OR SWAP1 SSTORE POP PUSH32 0x7F95D919E78BDEBE8A285E6E33357C2FCB65CCF66E72D7573F9F8F6CAAD0C4CC PUSH1 0x40 MLOAD PUSH1 0x40 MLOAD DUP1 SWAP2 SUB SWAP1 LOG1 PUSH1 0x1 SWAP1 POP SWAP1 JUMP JUMPDEST PUSH1 0x0 PUSH1 0x40 PUSH1 0x4 DUP2 ADD PUSH1 0x0 CALLDATASIZE SWAP1 POP LT ISZERO ISZERO ISZERO PUSH2 0x1266 JUMPI INVALID JUMPDEST PUSH1 0x0 PUSH20 0xFFFFFFFFFFFFFFFFFFFFFFFFFFFFFFFFFFFFFFFF AND DUP5 PUSH20 0xFFFFFFFFFFFFFFFFFFFFFFFFFFFFFFFFFFFFFFFF AND EQ ISZERO ISZERO ISZERO PUSH2 0x12A2 JUMPI PUSH1 0x0 DUP1 REVERT JUMPDEST PUSH1 0x2 PUSH1 0x0 CALLER PUSH20 0xFFFFFFFFFFFFFFFFFFFFFFFFFFFFFFFFFFFFFFFF AND PUSH20 0xFFFFFFFFFFFFFFFFFFFFFFFFFFFFFFFFFFFFFFFF AND DUP2 MSTORE PUSH1 0x20 ADD SWAP1 DUP2 MSTORE PUSH1 0x20 ADD PUSH1 0x0 KECCAK256 SLOAD DUP4 GT ISZERO ISZERO ISZERO PUSH2 0x12F0 JUMPI PUSH1 0x0 DUP1 REVERT JUMPDEST PUSH2 0x1342 DUP4 PUSH1 0x2 PUSH1 0x0 CALLER PUSH20 0xFFFFFFFFFFFFFFFFFFFFFFFFFFFFFFFFFFFFFFFF AND PUSH20 0xFFFFFFFFFFFFFFFFFFFFFFFFFFFFFFFFFFFFFFFF AND DUP2 MSTORE PUSH1 0x20 ADD SWAP1 DUP2 MSTORE PUSH1 0x20 ADD PUSH1 0x0 KECCAK256 SLOAD PUSH2 0x1B7C SWAP1 SWAP2 SWAP1 PUSH4 0xFFFFFFFF AND JUMP JUMPDEST PUSH1 0x2 PUSH1 0x0 CALLER PUSH20 0xFFFFFFFFFFFFFFFFFFFFFFFFFFFFFFFFFFFFFFFF AND PUSH20 0xFFFFFFFFFFFFFFFFFFFFFFFFFFFFFFFFFFFFFFFF AND DUP2 MSTORE PUSH1 0x20 ADD SWAP1 DUP2 MSTORE PUSH1 0x20 ADD PUSH1 0x0 KECCAK256 DUP2 SWAP1 SSTORE POP PUSH2 0x13D7 DUP4 PUSH1 0x2 PUSH1 0x0 DUP8 PUSH20 0xFFFFFFFFFFFFFFFFFFFFFFFFFFFFFFFFFFFFFFFF AND PUSH20 0xFFFFFFFFFFFFFFFFFFFFFFFFFFFFFFFFFFFFFFFF AND DUP2 MSTORE PUSH1 0x20 ADD SWAP1 DUP2 MSTORE PUSH1 0x20 ADD PUSH1 0x0 KECCAK256 SLOAD PUSH2 0x1B95 SWAP1 SWAP2 SWAP1 PUSH4 0xFFFFFFFF AND JUMP JUMPDEST PUSH1 0x2 PUSH1 0x0 DUP7 PUSH20 0xFFFFFFFFFFFFFFFFFFFFFFFFFFFFFFFFFFFFFFFF AND PUSH20 0xFFFFFFFFFFFFFFFFFFFFFFFFFFFFFFFFFFFFFFFF AND DUP2 MSTORE PUSH1 0x20 ADD SWAP1 DUP2 MSTORE PUSH1 0x20 ADD PUSH1 0x0 KECCAK256 DUP2 SWAP1 SSTORE POP DUP4 PUSH20 0xFFFFFFFFFFFFFFFFFFFFFFFFFFFFFFFFFFFFFFFF AND CALLER PUSH20 0xFFFFFFFFFFFFFFFFFFFFFFFFFFFFFFFFFFFFFFFF AND PUSH32 0xDDF252AD1BE2C89B69C2B068FC378DAA952BA7F163C4A11628F55A4DF523B3EF DUP6 PUSH1 0x40 MLOAD DUP1 DUP3 DUP2 MSTORE PUSH1 0x20 ADD SWAP2 POP POP PUSH1 0x40 MLOAD DUP1 SWAP2 SUB SWAP1 LOG3 PUSH1 0x1 SWAP2 POP POP SWAP3 SWAP2 POP POP JUMP JUMPDEST PUSH1 0x9 PUSH1 0x0 SWAP1 SLOAD SWAP1 PUSH2 0x100 EXP SWAP1 DIV PUSH1 0xFF AND DUP2 JUMP JUMPDEST PUSH1 0x0 DUP1 PUSH1 0x0 DUP5 SWAP2 POP DUP2 PUSH20 0xFFFFFFFFFFFFFFFFFFFFFFFFFFFFFFFFFFFFFFFF AND PUSH4 0x70A08231 DUP6 PUSH1 0x40 MLOAD DUP3 PUSH4 0xFFFFFFFF AND PUSH29 0x100000000000000000000000000000000000000000000000000000000 MUL DUP2 MSTORE PUSH1 0x4 ADD DUP1 DUP3 PUSH20 0xFFFFFFFFFFFFFFFFFFFFFFFFFFFFFFFFFFFFFFFF AND PUSH20 0xFFFFFFFFFFFFFFFFFFFFFFFFFFFFFFFFFFFFFFFF AND DUP2 MSTORE PUSH1 0x20 ADD SWAP2 POP POP PUSH1 0x20 PUSH1 0x40 MLOAD DUP1 DUP4 SUB DUP2 PUSH1 0x0 DUP8 DUP1 EXTCODESIZE ISZERO DUP1 ISZERO PUSH2 0x1540 JUMPI PUSH1 0x0 DUP1 REVERT JUMPDEST POP GAS CALL ISZERO DUP1 ISZERO PUSH2 0x1554 JUMPI RETURNDATASIZE PUSH1 0x0 DUP1 RETURNDATACOPY RETURNDATASIZE PUSH1 0x0 REVERT JUMPDEST POP POP POP POP PUSH1 0x40 MLOAD RETURNDATASIZE PUSH1 0x20 DUP2 LT ISZERO PUSH2 0x156A JUMPI PUSH1 0x0 DUP1 REVERT JUMPDEST DUP2 ADD SWAP1 DUP1 DUP1 MLOAD SWAP1 PUSH1 0x20 ADD SWAP1 SWAP3 SWAP2 SWAP1 POP POP POP SWAP1 POP DUP1 SWAP3 POP POP POP SWAP3 SWAP2 POP POP JUMP JUMPDEST PUSH1 0x1 PUSH1 0x0 SWAP1 SLOAD SWAP1 PUSH2 0x100 EXP SWAP1 DIV PUSH20 0xFFFFFFFFFFFFFFFFFFFFFFFFFFFFFFFFFFFFFFFF AND PUSH20 0xFFFFFFFFFFFFFFFFFFFFFFFFFFFFFFFFFFFFFFFF AND CALLER PUSH20 0xFFFFFFFFFFFFFFFFFFFFFFFFFFFFFFFFFFFFFFFF AND EQ ISZERO ISZERO PUSH2 0x15E4 JUMPI PUSH1 0x0 DUP1 REVERT JUMPDEST CALLER PUSH1 0x1 PUSH1 0x0 PUSH2 0x100 EXP DUP2 SLOAD DUP2 PUSH20 0xFFFFFFFFFFFFFFFFFFFFFFFFFFFFFFFFFFFFFFFF MUL NOT AND SWAP1 DUP4 PUSH20 0xFFFFFFFFFFFFFFFFFFFFFFFFFFFFFFFFFFFFFFFF AND MUL OR SWAP1 SSTORE POP PUSH1 0x6 SLOAD PUSH1 0x2 PUSH1 0x0 PUSH1 0x1 PUSH1 0x0 SWAP1 SLOAD SWAP1 PUSH2 0x100 EXP SWAP1 DIV PUSH20 0xFFFFFFFFFFFFFFFFFFFFFFFFFFFFFFFFFFFFFFFF AND PUSH20 0xFFFFFFFFFFFFFFFFFFFFFFFFFFFFFFFFFFFFFFFF AND PUSH20 0xFFFFFFFFFFFFFFFFFFFFFFFFFFFFFFFFFFFFFFFF AND DUP2 MSTORE PUSH1 0x20 ADD SWAP1 DUP2 MSTORE PUSH1 0x20 ADD PUSH1 0x0 KECCAK256 DUP2 SWAP1 SSTORE POP JUMP JUMPDEST PUSH1 0x7 SLOAD DUP2 JUMP JUMPDEST PUSH1 0x0 PUSH1 0x3 PUSH1 0x0 DUP5 PUSH20 0xFFFFFFFFFFFFFFFFFFFFFFFFFFFFFFFFFFFFFFFF AND PUSH20 0xFFFFFFFFFFFFFFFFFFFFFFFFFFFFFFFFFFFFFFFF AND DUP2 MSTORE PUSH1 0x20 ADD SWAP1 DUP2 MSTORE PUSH1 0x20 ADD PUSH1 0x0 KECCAK256 PUSH1 0x0 DUP4 PUSH20 0xFFFFFFFFFFFFFFFFFFFFFFFFFFFFFFFFFFFFFFFF AND PUSH20 0xFFFFFFFFFFFFFFFFFFFFFFFFFFFFFFFFFFFFFFFF AND DUP2 MSTORE PUSH1 0x20 ADD SWAP1 DUP2 MSTORE PUSH1 0x20 ADD PUSH1 0x0 KECCAK256 SLOAD SWAP1 POP SWAP3 SWAP2 POP POP JUMP JUMPDEST PUSH1 0x0 DUP1 PUSH1 0x0 PUSH1 0x1 PUSH1 0x0 SWAP1 SLOAD SWAP1 PUSH2 0x100 EXP SWAP1 DIV PUSH20 0xFFFFFFFFFFFFFFFFFFFFFFFFFFFFFFFFFFFFFFFF AND PUSH20 0xFFFFFFFFFFFFFFFFFFFFFFFFFFFFFFFFFFFFFFFF AND CALLER PUSH20 0xFFFFFFFFFFFFFFFFFFFFFFFFFFFFFFFFFFFFFFFF AND EQ ISZERO ISZERO PUSH2 0x177D JUMPI PUSH1 0x0 DUP1 REVERT JUMPDEST DUP4 SWAP2 POP DUP2 PUSH20 0xFFFFFFFFFFFFFFFFFFFFFFFFFFFFFFFFFFFFFFFF AND PUSH4 0x70A08231 ADDRESS PUSH1 0x40 MLOAD DUP3 PUSH4 0xFFFFFFFF AND PUSH29 0x100000000000000000000000000000000000000000000000000000000 MUL DUP2 MSTORE PUSH1 0x4 ADD DUP1 DUP3 PUSH20 0xFFFFFFFFFFFFFFFFFFFFFFFFFFFFFFFFFFFFFFFF AND PUSH20 0xFFFFFFFFFFFFFFFFFFFFFFFFFFFFFFFFFFFFFFFF AND DUP2 MSTORE PUSH1 0x20 ADD SWAP2 POP POP PUSH1 0x20 PUSH1 0x40 MLOAD DUP1 DUP4 SUB DUP2 PUSH1 0x0 DUP8 DUP1 EXTCODESIZE ISZERO DUP1 ISZERO PUSH2 0x181B JUMPI PUSH1 0x0 DUP1 REVERT JUMPDEST POP GAS CALL ISZERO DUP1 ISZERO PUSH2 0x182F JUMPI RETURNDATASIZE PUSH1 0x0 DUP1 RETURNDATACOPY RETURNDATASIZE PUSH1 0x0 REVERT JUMPDEST POP POP POP POP PUSH1 0x40 MLOAD RETURNDATASIZE PUSH1 0x20 DUP2 LT ISZERO PUSH2 0x1845 JUMPI PUSH1 0x0 DUP1 REVERT JUMPDEST DUP2 ADD SWAP1 DUP1 DUP1 MLOAD SWAP1 PUSH1 0x20 ADD SWAP1 SWAP3 SWAP2 SWAP1 POP POP POP SWAP1 POP DUP2 PUSH20 0xFFFFFFFFFFFFFFFFFFFFFFFFFFFFFFFFFFFFFFFF AND PUSH4 0xA9059CBB PUSH1 0x1 PUSH1 0x0 SWAP1 SLOAD SWAP1 PUSH2 0x100 EXP SWAP1 DIV PUSH20 0xFFFFFFFFFFFFFFFFFFFFFFFFFFFFFFFFFFFFFFFF AND DUP4 PUSH1 0x40 MLOAD DUP4 PUSH4 0xFFFFFFFF AND PUSH29 0x100000000000000000000000000000000000000000000000000000000 MUL DUP2 MSTORE PUSH1 0x4 ADD DUP1 DUP4 PUSH20 0xFFFFFFFFFFFFFFFFFFFFFFFFFFFFFFFFFFFFFFFF AND PUSH20 0xFFFFFFFFFFFFFFFFFFFFFFFFFFFFFFFFFFFFFFFF AND DUP2 MSTORE PUSH1 0x20 ADD DUP3 DUP2 MSTORE PUSH1 0x20 ADD SWAP3 POP POP POP PUSH1 0x20 PUSH1 0x40 MLOAD DUP1 DUP4 SUB DUP2 PUSH1 0x0 DUP8 DUP1 EXTCODESIZE ISZERO DUP1 ISZERO PUSH2 0x191D JUMPI PUSH1 0x0 DUP1 REVERT JUMPDEST POP GAS CALL ISZERO DUP1 ISZERO PUSH2 0x1931 JUMPI RETURNDATASIZE PUSH1 0x0 DUP1 RETURNDATACOPY RETURNDATASIZE PUSH1 0x0 REVERT JUMPDEST POP POP POP POP PUSH1 0x40 MLOAD RETURNDATASIZE PUSH1 0x20 DUP2 LT ISZERO PUSH2 0x1947 JUMPI PUSH1 0x0 DUP1 REVERT JUMPDEST DUP2 ADD SWAP1 DUP1 DUP1 MLOAD SWAP1 PUSH1 0x20 ADD SWAP1 SWAP3 SWAP2 SWAP1 POP POP POP SWAP3 POP POP POP SWAP2 SWAP1 POP JUMP JUMPDEST PUSH1 0x6 SLOAD DUP2 JUMP JUMPDEST PUSH1 0x4 PUSH1 0x20 MSTORE DUP1 PUSH1 0x0 MSTORE PUSH1 0x40 PUSH1 0x0 KECCAK256 PUSH1 0x0 SWAP2 POP SLOAD SWAP1 PUSH2 0x100 EXP SWAP1 DIV PUSH1 0xFF AND DUP2 JUMP JUMPDEST PUSH1 0x0 PUSH1 0x9 PUSH1 0x0 SWAP1 SLOAD SWAP1 PUSH2 0x100 EXP SWAP1 DIV PUSH1 0xFF AND ISZERO ISZERO ISZERO PUSH2 0x19A5 JUMPI PUSH1 0x0 DUP1 REVERT JUMPDEST PUSH2 0x19BA DUP3 PUSH1 0x6 SLOAD PUSH2 0x1B95 SWAP1 SWAP2 SWAP1 PUSH4 0xFFFFFFFF AND JUMP JUMPDEST PUSH1 0x6 DUP2 SWAP1 SSTORE POP PUSH2 0x19D5 DUP3 PUSH1 0x7 SLOAD PUSH2 0x1B7C SWAP1 SWAP2 SWAP1 PUSH4 0xFFFFFFFF AND JUMP JUMPDEST PUSH1 0x7 DUP2 SWAP1 SSTORE POP PUSH2 0x1A2D DUP3 PUSH1 0x2 PUSH1 0x0 DUP7 PUSH20 0xFFFFFFFFFFFFFFFFFFFFFFFFFFFFFFFFFFFFFFFF AND PUSH20 0xFFFFFFFFFFFFFFFFFFFFFFFFFFFFFFFFFFFFFFFF AND DUP2 MSTORE PUSH1 0x20 ADD SWAP1 DUP2 MSTORE PUSH1 0x20 ADD PUSH1 0x0 KECCAK256 SLOAD PUSH2 0x1B95 SWAP1 SWAP2 SWAP1 PUSH4 0xFFFFFFFF AND JUMP JUMPDEST PUSH1 0x2 PUSH1 0x0 DUP6 PUSH20 0xFFFFFFFFFFFFFFFFFFFFFFFFFFFFFFFFFFFFFFFF AND PUSH20 0xFFFFFFFFFFFFFFFFFFFFFFFFFFFFFFFFFFFFFFFF AND DUP2 MSTORE PUSH1 0x20 ADD SWAP1 DUP2 MSTORE PUSH1 0x20 ADD PUSH1 0x0 KECCAK256 DUP2 SWAP1 SSTORE POP DUP3 PUSH20 0xFFFFFFFFFFFFFFFFFFFFFFFFFFFFFFFFFFFFFFFF AND PUSH32 0x8940C4B8E215F8822C5C8F0056C12652C746CBC57EEDBD2A440B175971D47A77 DUP4 PUSH1 0x40 MLOAD DUP1 DUP3 DUP2 MSTORE PUSH1 0x20 ADD SWAP2 POP POP PUSH1 0x40 MLOAD DUP1 SWAP2 SUB SWAP1 LOG2 DUP3 PUSH20 0xFFFFFFFFFFFFFFFFFFFFFFFFFFFFFFFFFFFFFFFF AND PUSH1 0x0 PUSH20 0xFFFFFFFFFFFFFFFFFFFFFFFFFFFFFFFFFFFFFFFF AND PUSH32 0xDDF252AD1BE2C89B69C2B068FC378DAA952BA7F163C4A11628F55A4DF523B3EF DUP5 PUSH1 0x40 MLOAD DUP1 DUP3 DUP2 MSTORE PUSH1 0x20 ADD SWAP2 POP POP PUSH1 0x40 MLOAD DUP1 SWAP2 SUB SWAP1 LOG3 PUSH1 0x1 SWAP1 POP SWAP3 SWAP2 POP POP JUMP JUMPDEST PUSH1 0x0 DUP1 DUP3 DUP5 DUP2 ISZERO ISZERO PUSH2 0x1B3C JUMPI INVALID JUMPDEST DIV SWAP1 POP DUP1 SWAP2 POP POP SWAP3 SWAP2 POP POP JUMP JUMPDEST PUSH1 0x0 DUP1 DUP3 DUP5 MUL SWAP1 POP PUSH1 0x0 DUP5 EQ DUP1 PUSH2 0x1B6A JUMPI POP DUP3 DUP5 DUP3 DUP2 ISZERO ISZERO PUSH2 0x1B67 JUMPI INVALID JUMPDEST DIV EQ JUMPDEST ISZERO ISZERO PUSH2 0x1B72 JUMPI INVALID JUMPDEST DUP1 SWAP2 POP POP SWAP3 SWAP2 POP POP JUMP JUMPDEST PUSH1 0x0 DUP3 DUP3 GT ISZERO ISZERO ISZERO PUSH2 0x1B8A JUMPI INVALID JUMPDEST DUP2 DUP4 SUB SWAP1 POP SWAP3 SWAP2 POP POP JUMP JUMPDEST PUSH1 0x0 DUP1 DUP3 DUP5 ADD SWAP1 POP DUP4 DUP2 LT ISZERO ISZERO ISZERO PUSH2 0x1BA9 JUMPI INVALID JUMPDEST DUP1 SWAP2 POP POP SWAP3 SWAP2 POP POP JUMP STOP LOG1 PUSH6 0x627A7A723058 KECCAK256 0xea 0xc5 0xe2 PUSH19 0xDA459875B76BDF98458CA0AC256F17E09F0E8F 0xf9 PUSH14 0x6359F4D05AF10F00290000000000 "
				},
				"gasEstimates": {
					"creation": {
						"codeDepositCost": "1427000",
						"executionCost": "infinite",
						"totalCost": "infinite"
					},
					"external": {
						"": "infinite",
						"KGC()": "41545",
						"allowance(address,address)": "1058",
						"approve(address,uint256)": "22796",
						"balanceOf(address)": "735",
						"blacklist(address)": "1009",
						"burn(uint256)": "infinite",
						"decimals()": "282",
						"distributionFinished()": "728",
						"finishDistribution()": "22016",
						"getTokenBalance(address,address)": "infinite",
						"getTokens()": "infinite",
						"name()": "infinite",
						"symbol()": "infinite",
						"totalDistributed()": "812",
						"totalRemaining()": "746",
						"totalSupply()": "438",
						"transfer(address,uint256)": "infinite",
						"transferFrom(address,address,uint256)": "infinite",
						"value()": "526",
						"withdraw()": "infinite",
						"withdrawForeignTokens(address)": "infinite"
					},
					"internal": {
						"distr(address,uint256)": "infinite"
					}
				},
				"methodIdentifiers": {
					"KGC()": "c63e6171",
					"allowance(address,address)": "dd62ed3e",
					"approve(address,uint256)": "095ea7b3",
					"balanceOf(address)": "70a08231",
					"blacklist(address)": "f9f92be4",
					"burn(uint256)": "42966c68",
					"decimals()": "313ce567",
					"distributionFinished()": "c108d542",
					"finishDistribution()": "9b1cbccc",
					"getTokenBalance(address,address)": "c489744b",
					"getTokens()": "aa6ca808",
					"name()": "06fdde03",
					"symbol()": "95d89b41",
					"totalDistributed()": "efca2eed",
					"totalRemaining()": "d8a54360",
					"totalSupply()": "18160ddd",
					"transfer(address,uint256)": "a9059cbb",
					"transferFrom(address,address,uint256)": "23b872dd",
					"value()": "3fa4f245",
					"withdraw()": "3ccfd60b",
					"withdrawForeignTokens(address)": "e58fc54c"
				}
			},
			"userdoc": {
				"methods": {}
			}
		}
	}
}